:020000040800F2
:1000000010590024AD02000885D000087996000838
:10001000A5CD0008511D00088DF300080000000068
:10002000000000000000000000000000DBDB000812
:10003000D92C00080000000031D30008C9DF0008F7
:10004000C7020008C7020008C7020008C70200086C
:10005000C7020008C7020008C7020008C70200085C
:10006000C7020008C7020008C7020008A92200084A
:10007000B5220008C1220008CD220008D9220008BC
:10008000E5220008F1220008C7020008D52D00086B
:10009000E12D0008C7020008C7020008C7020008D7
:1000A000C7020008C7020008C7020008C70200080C
:1000B000C7020008C7020008C7020008C7020008FC
:1000C000C702000849A10008C7020008C7020008CB
:1000D000C702000839F3000851F3000869F300086B
:1000E000C7020008C702000800000000C70200089D
:1000F00039E300082DE30008C7020008FD220008CC
:10010000C7020008C7020008C7020008C7020008AB
:100110001DE8000835E80008C7020008C70200080B
:100120000923000815230008212300082D230008B7
:1001300039230008C7020008C7020008C7020008E8
:1001400000000000000000000000000000000000AF
:100150004523000851230008C702000881F3000866
:10016000C7020008C7020008C7020008C70200084B
:10017000C7020008C7020008C7020008C70200083B
:10018000C7020008C70200084DE8000865E800083B
:10019000C7020008C7020008C7020008C70200081B
:1001A000C7020008C7020008C7020008C70200080B
:1001B000C7020008C7020008C702000869A10008BA
:1001C000C7020008C7020008C7020008C7020008EB
:1001D000C7020008C7020008C7020008C7020008DB
:1001E000C7020008C7020008C7020008C7020008CB
:1001F000C7020008C7020008C7020008C7020008BB
:10020000C7020008C7020008C7020008C7020008AA
:10021000C7020008C7020008C7020008C70200089A
:10022000C7020008C7020008C7020008000000005B
:10023000C7020008C702000800000000C70200084B
:10024000C7020008C7020008C7020008C70200086A
:10025000C7020008C7020008C7020008C70200085A
:10026000C7020008C7020008C7020008C70200084A
:10027000C7020008C7020008C7020008000000000B
:10028000C7020008C7020008C702000800000000FB
:1002900000000000C7020008DFF80CD000F068FA88
:1002A00000480047211C01081059002406488047D7
:1002B00006480047FEE7FEE7FEE7FEE7FEE7FEE74B
:1002C000FEE7FEE7FEE7FEE79DE000089902000872
:1002D0002DE9F05F0546002092469B46884606467B
:1002E000814640241BE0284641464746224600F00E
:1002F00077F853465A46C01A914110D31146184612
:10030000224600F05EF82D1A67EB01084F462246A0
:100310000120002100F055F817EB00094E41201E86
:10032000A4F10104DFDC484631462A464346BDE8D5
:10033000F09F10B5431A934209D28318881803E03E
:1003400010F8011D03F8011D521EF9D210BD40EA3C
:1003500001039B0703D009E008C9121F08C0042A43
:10036000FAD203E011F8013B00F8013B521EF9D22A
:1003700010BDD2B201E000F8012B491EFBD270473C
:100380000022F6E710B513460A4604461946FFF761
:10039000F0FF204610BD30B50B460146002020225C
:1003A000012409E021FA02F59D4205D303FA02F582
:1003B000491B04FA02F52844151EA2F10102F1DCE2
:1003C00030BD202A04DB203A00FA02F100207047F9
:1003D0009140C2F1200320FA03F319439040704783
:1003E000202A04DB203A21FA02F00021704721FA8A
:1003F00002F3D040C2F120029140084319467047F1
:100400002DE9FE4F804681EA0300C00F0C460090A4
:1004100021F0004123F00045B8EB0200A94105D2CC
:100420004046214690461C460B46024623F00040BB
:10043000104347D0270DC7F30A00C3F30A510290B7
:10044000401A019040286BDAC3F3130040F4801B7C
:100450000098924620B10023D2EB030A63EB0B0B0A
:1004600001985946C0F140025046FFF7AAFF0646E0
:100470000D4650465946019A00F08CF910EB0800E1
:100480006141002487EA115284EAE7731A4340D09D
:10049000009A62B3019A012A4FEA075215DC001B49
:1004A00061EB02014FF0004202EA0752CDE900423F
:1004B000001C41F5801132462B4600F08CF903B048
:1004C000BDE8F08F40462146F9E7001B61EB0201D1
:1004D000001C41F5801300185B412018A2F500179D
:1004E00047EB030140EAD570B6196D4111E06D0884
:1004F0004FEA360645EAC0754FEA0752001B61EB2A
:100500000201001C41F5801149084FEA3000001932
:10051000514132462B4603B0BDE8F04F00F04CB9D4
:100520000098012240000023D0EB020263EBE0734D
:10053000009821464FEAE074B8EB000061EB04013B
:10054000E9E783F000435BE781F0004158E72DE9DC
:10055000FE4F81EA030404F0004421F000410094BE
:100560004FF0000B23F0004350EA01045ED052EA42
:1005700003045BD0C3F30A54C1F30A552C44A4F21C
:10058000F3340194A0FB0254C1F3130141F4801130
:10059000C3F3130343F4801301FB024400FB034E37
:1005A000840A970A44EA815447EA8357A4FB076800
:1005B00002958D0A05FB07854FEA932C04FB0C542A
:1005C0002705029D4FEA065847EA1637B5EB08059E
:1005D0006EEB070C870E920E47EA811742EA8312F0
:1005E000A7FB0201B6EB0B0164EB00042B0D43EA01
:1005F0000C335E1844EB1C50DA465146E7FB02010F
:10060000C5F313044FEA0B3343EA14534FEA0432A1
:10061000019C43EA0603A4F10C040294009CCDE97A
:1006200000B400F0D8F803B0BDE8F08F0020014618
:10063000F9E72DE9F04D81EA030404F0004B21F0C5
:10064000004514464FF0000A23F0004150EA05022D
:1006500020D054EA01021DD0C5F30A570246C5F363
:100660001303C1F31300C1F30A5640F4801543F499
:100670008013A7EB0608101BD64608F2FD3873EB73
:10068000050002D308F1010801E092185B41B8F1BE
:10069000000F03DA00200146BDE8F08D00204FF482
:1006A0008011064684460EE0171B73EB050705D341
:1006B000121B63EB050306434CEA010C49084FEAA1
:1006C000300092185B4150EA0107EDD152EA030075
:1006D00012D082EA040083EA0501084305D0101B0A
:1006E000AB4106D20122002306E000224FF0004376
:1006F00002E06FF0010253101AEB06004CEB0851B8
:1007000010EB0A0041EB0B01BDE8F04D00F054B8CE
:10071000C1F30A52C1F3130140F2FF3341F48011D7
:100720009A4202DA00200146704740F233439A426F
:10073000A2F2334202DC5242FFF752BEFFF741BE43
:1007400030B5041E71F1000404DB4FF00044404258
:1007500064EB0101141E73F1000405DB1C464FF02D
:100760000043524263EB0403994208BF904230BDFC
:10077000064C074D06E0E06840F0010394E80700EE
:1007800098471034AC42F6D3FFF78AFDC024010825
:10079000E0240108202A06DBCB17203A41FA02F0B8
:1007A00043EAE07306E041FA02F3D040C2F12002CE
:1007B000914008431946704710B5141E73F10004A8
:1007C00008DA401C41F1000192185B411A4301D143
:1007D00020F0010010BD2DE9F04D92469B4611B16D
:1007E000B1FA81F202E0B0FA80F220329046FFF7CF
:1007F000E8FD04460F4640EA0A0041EA0B01534671
:100800005A46084313D0114653EA010019D0C8F1E3
:1008100040025046FFF7E4FD05460E465046594655
:100820004246FFF7CEFD084305D0012004E02046F4
:100830003946BDE8F08D0020054346EAE0762C43BA
:1008400037430A986305E40AA0EB08000022FD0A7A
:1008500044EA47540A3002D500200146E9E7010581
:1008600010196941DDE9084500196941BDE8F04DFD
:10087000A2E770B58C1810F8015B15F0070301D1E1
:1008800010F8013B2A1106D110F8012B03E010F8F3
:10089000016B01F8016B5B1EF9D12B0705D4002316
:1008A000521E0DD401F8013BFAE710F8013BCB1AB8
:1008B000921C03E013F8015B01F8015B521EF9D5AD
:1008C000A142D8D3002070BD70B504462DED068B33
:1008D000DFED580A9FED582B594820EE200A594E5B
:1008E000B0F95E00B7EEC00A01EE100AB8EEC11B07
:1008F00001EE420BB7EEC08B96ED0F0AB1EE400A47
:10090000B7EEC00A0FF024FD94ED9C1AB7EEC11AA1
:1009100020EE019B96ED0F0AB1EE400AB7EEC00A39
:100920000FF016FE94ED9D1A474DB7EEC11A01EE79
:10093000409BB7EEC90B85ED070A96ED0F0AB1EEA5
:10094000400AB7EEC00A0FF003FE94ED9C1AB7EE12
:10095000C11A20EE019B96ED0F0AB1EE400AB7EEE8
:10096000C00A0FF0F5FC94ED9D2AB0EE401BB7EEE7
:10097000C80AB7EEC22AB0EE408B02EE019BB7EE7A
:10098000C91B85ED081A0FF0E3FD95ED071AB7EEC8
:10099000C11A20EE019BB0EE480B0FF0D9FC95ED8B
:1009A000081AB7EEC11A01EE009BB0EE480BB7EE85
:1009B000C99B0FF0CDFC95ED071AB7EEC11A20EEDA
:1009C00001ABB0EE480B0FF0C3FD95ED081A2046C1
:1009D000B7EEC11A01EE40ABB7EECA0B85ED090ABE
:1009E000B1EE401A70EE490A79EE401A39EE002A4B
:1009F00094ED9E0A31EE491A70EE800A71EE802A5B
:100A000031EE001A32EE002ABDEEE00AFDEEC11A08
:100A1000BDEEE21AFDEEC20A84ED200AC4ED331ADF
:100A200084ED461AC4ED590ABDEC068BBDE8704052
:100A30000DF024B903FA8EBC94F6065F984C653F1E
:100A4000EC1F002430350024140200240FB430B50C
:100A5000012405462DED048B81B09DED099ADDED55
:100A60000A9ADDED0B8A9DED128A00BF04F5007035
:100A700080B2009004EB440000EB0410002205EB70
:100A8000800011460223001D0CF094FA04EB440090
:100A9000F0EE481A05EB0010B0EE681AF0EE690AA5
:100AA000B0EE490A00F5A87000F05EFD641C042C4D
:100AB000DCDDB7EE000A85EDA30A85EDA10A85ED20
:100AC000A20A01B0BDEC048B30BC5DF814FB000041
:100AD0000FB400220123114630B504462DED088BDA
:100AE00081B019A8DDED2EBADDED229A90EC038AD3
:100AF00025A890EC03AA40F20120009004F19C008C
:100B00000CF058FA002240F2022001231146009016
:100B100004F1E8000CF04EFA40F2032000900123AB
:100B20002046022200210CF045FAF0EE6B1AB0EEDE
:100B30004B1AF0EE6A0AB0EE4A0A04F14C0000F0DB
:100B400013FD0DA9DDED161A04F59A7091EC030A58
:100B500000F00AFDF0EE691AB0EE491AF0EE680AEC
:100B6000B0EE480A04F5B27000F0FEFC9FED0D0AED
:100B70004FF4FA55A4F89450282384F8973084ED64
:100B8000220A0022A4F8A8214EF6BC11A4F8A41150
:100B90004EF6C610A4F8A60101B0BDEC088B30BC1F
:100BA0005DF814FB1FF42C3E02480122818B806902
:100BB00004F05ABC5401002402480022818B806951
:100BC00004F052BC5401002470B52DED028BFFF7E8
:100BD000F3FF802000F048FC552000F045FC552034
:100BE00000F042FC484C2070FFF7DEFF9FED478A83
:100BF000B0EE480A01F0A6FFFFF7DEFF802000F00C
:100C000033FC552000F030FC552000F02DFC207006
:100C1000FFF7CAFFB0EE480A01F094FFFFF7CCFFE0
:100C2000B6217E2000F032FCFFF7BEFF9FED380AB0
:100C300001F088FFFFF7C0FF802000F015FC552071
:100C400000F012FC552000F00FFC2070FFF7ACFF05
:100C5000B0EE480A01F076FFFFF7AEFF802000F00B
:100C600003FC552000F000FC552000F0FDFB207037
:100C7000FFF79AFFB0EE480A01F064FF20781E28C3
:100C800003D0FF20BDEC028B70BD1F4D002084F807
:100C90000100B835FFF790FF607800EB4000411984
:100CA000285C497800F0F2FBFFF77EFFB0EE480ABF
:100CB00001F048FFFFF780FF607800EB4000285C00
:100CC00040F0800000F0D0FB552000F0CDFB552017
:100CD00000F0CAFB2070FFF767FFB0EE480A01F092
:100CE00031FF6078227800EB400129444B78934231
:100CF00003D08978A2781143A170401CC0B2607003
:100D00000628C7D30020BDE7300100246F12833AC4
:100D10000AD7A33D2DE9F04F04462DED048B89B091
:100D2000DFEDF39A002000900190F0EE698AB0EEBA
:100D3000688A01F043FFEF4D0DF10809DFF8B8B301
:100D40000DF1140ADFF8B48385ED050A01F036FFD2
:100D5000D5ED050A30EE600A10EE101A594510DD87
:100D60009FEDE70ADFEDE70A9FEDE71ADFEDE71AEF
:100D70009FEDE72A04F1240084ED062A80EC040AA2
:100D80008FE19FEDE40A01F0DDFEC4ED0C9AC4EDA5
:100D9000099AC4ED0A9A0026C4ED0B9AFEE000BF42
:100DA000FFF70AFF922000F05FFB0622694612203F
:100DB00000F03CFBFFF7F8FE9DF801009DF80010E5
:100DC000D5ED030A000200B2084300EE100AB8EEA7
:100DD000C00A20EE200A84ED000A9DF803009DF869
:100DE0000210D5ED031A000200B2084300EE900A8B
:100DF00020EE000AF8EEE00A20EEA11A84ED011AB6
:100E00009DF805009DF8041001EE010A000200B2F1
:100E1000084300EE900AF8EEE00A60EEA10AC4ED85
:100E2000020A00EEA00A0FF0E8FCB0EE409A94ED42
:100E30000C0A30EE090A84ED0C0A00F087F908224A
:100E40006946002000F0F2FA00F076F99DF8000003
:100E50000F2840D19DF803009DF80210D5ED040A3B
:100E6000000200B2084300EE100AB8EEC00A20EEFD
:100E7000200A84ED030A94ED091A31EE000A84ED8C
:100E8000090A9DF805009DF80410000200B208430D
:100E900000EE100AB8EEC00A20EE200A84ED040A23
:100EA00094ED0A1A31EE000A84ED0A0A9DF8070053
:100EB0009DF80610000200B2084300EE100AB8EEDA
:100EC000C00A20EE200A84ED050AD4ED0B0A30EEAC
:100ED000800A84ED0B0A002E7DD0B4EEE89AF1EE84
:100EE00010FA01DDF0EE498AB4EEC89AF1EE10FA7C
:100EF00001D2B0EE498A00204946524604EB8007F1
:100F000001EB800397ED030AD3ED000AB4EEE00A8B
:100F1000F1EE10FA01DD83ED000A02EB8003D3ED60
:100F2000000AB4EEE00AF1EE10FA01D283ED000AF5
:100F3000401CC0B20328E1D378EEC80A5FF000007D
:100F40004A465346C5ED060A02EB800103EB8007D3
:100F500091ED000A97ED001A08EB800C411C30EE71
:100F6000410AC8B203288CED000AEDD310EE900AB6
:100F7000B0F17C5F16DC6848D8F80010814211DCC3
:100F8000D8F8041081420DDCD8F80810814209DC41
:100F90009FED620A01F0D6FD761CB6B2E888864263
:100FA000FFF4FEAEE9885FF00000D4ED0C0A00EE1D
:100FB000101A2E46B8EE400A80EE801A84ED0C1A04
:100FC00000EE101A04EB8002401CD2ED090AB8EEC4
:100FD000401AC0B200E071E080EE810A032882ED81
:100FE000090AEDD3FFF7E8FDA22000F03DFA022246
:100FF0006946222000F01AFAFFF7D6FD9DF800108E
:101000009DF80100C90041EA5010B0F5806F01DB86
:10101000A0F50060424900EE100AB4EE001AF3EEAB
:10102000070AB8EEC00A40EE010AC4ED060AB0880D
:10103000401CB080B06988423FF788AE94ED0C0A3E
:10104000DFED380A384930EE600AB0EEC00A10EE23
:10105000100A8842F0DC3548D8F800108142EBDCF9
:10106000D8F804108142E7DCD8F808108142E3DCAC
:1010700094ED090A2E48B0EEC00A10EE101A814213
:10108000DADC94ED0A0AB0EEC00A10EE101A8142C2
:10109000D2DC94ED0B0AB0EEC00A10EE101A8142B9
:1010A000CADC94ED0C0ADFED230A80EE801A84ED91
:1010B000081A09B0BDEC048BBDE8F08F5FF00000AA
:1010C0004A46F0EE498AB0EE498A534604EB80075F
:1010D00003EB800C97ED030A02EB8007411C87EDC0
:1010E000000AC8B203288CED000AEFD324E7000001
:1010F000000000003001002400004041E01F0024F7
:10110000F2FA88BB7779ABBBE1CB96B92C092441C5
:1011100000008C420AD7A33B9A99193E6F12033AFA
:10112000CDCC4C3FCDCC1C416666663F9A99993E2A
:101130008FC2F53CC3F51C4103480122B0F84010B2
:10114000C06B04F091B90000540100240348002250
:10115000B0F84010C06B04F087B9000054010024BF
:1011600070B52DED028BFFF7F1FF4249002000F032
:101170006FF9FFF7E1FF9FED408AB0EE480A01F0FA
:10118000E1FCFFF7E3FF3B49002000F061F9FFF7C6
:10119000D3FFB0EE480A01F0D5FCFFF7D7FFB62128
:1011A000142000F073F9FFF7C7FF9FED340A01F038
:1011B000C9FCFFF7CBFF2F49002000F049F9FFF7EA
:1011C000BBFFB0EE480A01F0BDFCFFF7BFFF2949A5
:1011D000002000F03DF9FFF7AFFFB0EE480A01F044
:1011E000B1FC244C20780F2803D0FF20BDEC028BEB
:1011F00070BD204D002084F80100CA35FFF7A6FF1E
:10120000607800EB40004119285C497800F03EF915
:10121000FFF792FFB0EE480A01F094FCFFF796FF4B
:101220006078144900EB4000285C00F011F9FFF7EA
:1012300083FFB0EE480A01F085FC6078217800EB6E
:1012400040022A4452788A420BD0401EC0B26070DD
:1012500000EB40010748B8300844A1788078084383
:10126000A0706078401CC0B260700628C6D3002011
:10127000BCE70000300100246F12833A0AD7A33D77
:101280000F4900220F4810B50CF050FC0C49002209
:101290000C4824310CF04AFC094C0020243CA0707E
:1012A000FFF792FCA1780843A070FFF759FFA178DF
:1012B0000843A07004F16C00FFF72CFDA07810BD6E
:1012C000540100240009002470B50446FFF774FCA3
:1012D000922000F0C9F854490622122000F0A6F826
:1012E000FFF762FC504DA5F11C06687829780002D2
:1012F00000B20843208700EE100A96ED031AD4EDE1
:10130000080AB8EEC00A20EE010A20EE200A84ED99
:10131000000AE878A978000200B20843608700EE6E
:10132000100A96ED031AB8EEC00A20EE010A20EE6C
:10133000200A84ED010A68792979000200B2084385
:10134000308100EE100AA087B8EEC00A20EE010A34
:1013500020EE200A84ED020AFFF7F8FE0822294653
:10136000002000F063F8FFF7E7FE28780F2834D15B
:10137000E878A978000200B20843E08700EE100A7E
:1013800094ED091AD6ED040AB8EEC00A10EE201A40
:1013900084ED031A68792979000200B20843A4F8A1
:1013A000400000EE100A94ED0A1AB8EEC00A10EEE2
:1013B000201A84ED041AE879A979000200B20843E2
:1013C000308100EE100AA4F8420094ED0B1AB8EE3A
:1013D000C00A10EE201A84ED051AFFF7EDFBA220DB
:1013E00000F042F810490222222000F01FF8FFF717
:1013F000DBFB28786978C00040EA51103081B0F5F5
:10140000806F02DBA0F500603081B6F90800B4EE11
:10141000001A00EE100AF3EE070AB8EEC00A40EE1A
:10142000010AC4ED070A70BD4C01002470B540F0FC
:10143000800014460D4600F017F806E0552000F035
:1014400013F8641E05F8010BE4B2002CF6D170BD50
:1014500010B540F080000C4600F006F8552000F072
:1014600003F8207010BD000001B582B04FF47A700F
:101470000123009001AA044802A9406806F0C0FBBD
:101480009DF804000EBD0000901A002410B50C4613
:10149000FFF7EAFF2046BDE81040FFF7E5BF000078
:1014A00030EE600A284A10EE101A80ED030A9142CD
:1014B00003DD9FED260A80ED030A10EE101A244A80
:1014C000914203D99FED230A80ED030AD0ED001A63
:1014D000224A43F69821DFED200A60EE211AC0ED82
:1014E000051A90ED062AD0ED012A00EE222A80EDA1
:1014F000062A92898A4201D2C0ED060A9FED182A77
:1015000080ED092AB4EEC20AF1EE10FA06DC9FED76
:10151000152AB4EEC20AF1EE10FA01D2C0ED060AA5
:1015200090ED020AD0ED060A20EE410A71EEA00A03
:1015300080ED070A70EE800AC0ED080ABDEEE00AF1
:1015400010EE100A70470000000070420000704268
:10155000000070C2000070C200000000601A002489
:1015600000007A4400007AC49FED062AC0ED091AF3
:1015700080ED052A80ED062A80ED072A80EC030A1B
:10158000704700000000000030EE600AD0ED001A45
:1015900090ED042AD0ED090A60EE211A32EE002AFD
:1015A0009FED211AB4EEE00A80ED030AF1EE10FA85
:1015B000C0ED051A80ED042A0ADC1C4991F8891057
:1015C00031B1F1EE600AB4EEE00AF1EE10FA01D2A8
:1015D00080ED041A164A0169914202DBDFED150A1B
:1015E00007E0154A914202D2D0ED040A03E0DFED94
:1015F000130AC0ED040AD0ED012A90ED0A2A90EDFD
:10160000021A80ED0A0A60EEA20A30EE420AC0ED2C
:10161000060A71EEA01A21EE401A80ED071A31EE8B
:10162000810A80ED080A7047000000001C1F00249A
:101630000000C8430000C8430000C8C30000C8C37E
:1016400030EE600A9FED201AD0ED061A90ED012AC7
:10165000D0ED002ADFED1D0AB4EEC10A80ED030AC9
:10166000F1EE10FA80ED091A40EE021A20EE221A6D
:1016700080ED051AC0ED061A0ADC154991F88910AB
:1016800031B1DFED141AB4EEE10AF1EE10FA01D235
:10169000C0ED060A90ED0A2AD0ED020AD0ED061A36
:1016A00080ED0A0A30EE420A31EE211A60EEC00ADD
:1016B000C0ED070A31EE200A80ED080AFDEEC00AEF
:1016C00010EE900A70470000000048420000000041
:1016D0001C1F0024000048C230EE600A90ED062A6C
:1016E000D0ED011AD0ED002A90ED091A00EE212A62
:1016F00060EE221ADFED0E0AB4EEC10A80ED030A95
:10170000F1EE10FAC0ED051A80ED062A06DCB1EE06
:10171000411AB4EEC10AF1EE10FA01D2C0ED060A88
:1017200090ED060A31EE800A80ED080A704700004D
:101730000000000030EE600A90EC022A00F1100177
:10174000D0ED041AD0ED090A9FED1D1A71EE801A32
:1017500020EE022AB4EEE00A80ED030AF1EE10FA60
:1017600061EEA22AC1EC031A15DC164991F8891022
:1017700089B1F5EEC00AF1EE10FA01D0012100E0C6
:101780000021494200EE901AF8EEE00AF4EEC00A99
:10179000F1EE10FA01DD80ED041AD0ED0A0A90EDA9
:1017A000021A80ED0A0A30EE600A72EE221A61EE29
:1017B000400AC0ED070A31EEA00A80ED080A704722
:1017C000000000001C1F002430EE600A90ED062A85
:1017D000D0ED011AD0ED002AD0ED090A00EE212A41
:1017E00060EE221A9FED191AB4EEE00A80ED030AAA
:1017F000F1EE10FAC0ED051A80ED062A0ADC144954
:1018000091F8891031B1F1EE600AB4EEE00AF1EE20
:1018100010FA01D280ED061A90ED0A2AD0ED020AE4
:1018200090ED061A80ED0A0A30EE420A31EE811A76
:1018300020EEC00A80ED070A71EE000AC0ED080A2A
:10184000BDEEE00A10EE100A704700000000000034
:101850001C1F0024B6EE000A92ED021AB0EE403AC8
:10186000D2ED030A01EE413A92ED012AD2ED002AAF
:10187000F0EE001A62EE013A90EC034A00EEE03A14
:1018800022EE202A42EEE03A02EE812A63EE040ABA
:1018900043EEA40A42EE050AB0EE402A60EEA10A29
:1018A000C1ED000A92ED011A92ED023AD2ED002A42
:1018B000D2ED030A61EE033A01EE412A90EC034AAD
:1018C00023EE203A42EEA03A00EEE02A02EEC13AC0
:1018D00063EE840A42EE240A43EE050A60EEA10A92
:1018E000C1ED010A92ED011AD2ED032AD2ED020AEE
:1018F00092ED002A21EE223A60EEA22AD0EC033AC1
:1019000001EE410A02EE603A42EE012A00EEE00AE0
:1019100023EE231A02EE841A00EE241A21EE210A85
:1019200081ED020A70470000F0B50A78AB2A7DD13C
:101930004A788271012A8A78C27177D14A7BDD2A7E
:1019400074D100224280012300F580669FED440A95
:101950000D7B541E00EB8505D5ED091AC0ED081A64
:101960000D7B00EB850505F5806595ED0A1A86ED82
:10197000091A0370CD780E7905F03F07AD0907EB22
:10198000C70C0CEB071706EB870500EE905AF8EE34
:10199000600A80EE802A1CD04FEA040500EE905ABF
:1019A000F8EEE00A62EE200AC0ED040A4D798E7965
:1019B00005F03F07AD0907EBC70C0CEB071706EB6B
:1019C000870502EE105AF8EE422A82EE802A02D0F3
:1019D00002E00125E2E7012400EE104AB8EEC00A59
:1019E00022EE000AB2EE042A80ED030ACC7900EE62
:1019F000104AB8EE400AC0EE022AC0ED052A0C7A61
:101A000080F82948C97A017616494276C97A0229AE
:101A100025D1154A92ED0E0A92ED112A30EE420AB6
:101A2000BDEEC00A10EE101A002900E017E000DA3F
:101A3000494200EE101A9FED0D2BB8EEC03BB4EEFC
:101A4000C23BF1EE10FA00D2437631EEA00A82EDED
:101A50000E0A90ED030A31EE000A82ED000AF0BD95
:101A60000000C8421C1F0024EC1F00249A99999979
:101A70009999D93F074B0021054A00B5D980518A71
:101A8000491C518201460448FFF74EFF002000BD6B
:101A9000C41F002404010024302D00242DE9F04748
:101AA000044608780D46AA287AD16878C0EBC001B0
:101AB00029448978DD2973D184F84C0820B98C2118
:101AC00004F64D00FEF75CFC94F844084FF0000863
:101AD000022801D084F844889FED440A4FF00109A0
:101AE000DFED430A002257E094F84408022805D0AD
:101AF000B4F84808401CA4F8480801E0A4F8488855
:101B0000C2EBC20028440927A318867804EB82019F
:101B100001F50061B6FBF7FC07FB1C6683F857680C
:101B2000C67883F84D68037A03EB83035B0001EE0C
:101B3000103AB8EE411A81ED2D1A03799E0931D081
:101B4000B9EB931F10D103F03F03477903EBC306B2
:101B500006EB031307EB830301EE103AB8EE411ACC
:101B6000C1EE201AC1ED231A83799E092CD0B9EB5E
:101B7000931F10D103F03F03C67903EBC30000EBC2
:101B8000031006EB800001EE100AB8EE411AC1EE18
:101B9000201AC1ED191A521C94F84C089042A3DC8B
:101BA000BDE8F08703F03F03467903EBC30707EB7B
:101BB000031306EB830301EE103AF8EE411A81EEAF
:101BC000801A81ED231ACFE703F03F03C07903EBBE
:101BD000C30606EB031300EB830001EE100AF8EED8
:101BE000411A81EE801A81ED191AD4E70000C8422B
:101BF0000000C8C2054A10B5518B491C51830146EB
:101C00000348FFF74BFF002010BD0000C41F002455
:101C1000302D002470B50A78AA2A7ED14A7880F83F
:101C20003228012A8A7880F833288A7880F82C288C
:101C300073D1CB784FF0FF320C7903F03F059B094D
:101C400005EBC50606EB05139FED340A04EB830391
:101C500000EE903AF8EE600A80EE802A4BD01346F0
:101C600000EE903A9FED2E1AF0EE081AF8EEE00A18
:101C700062EE200A60EE810A60EEA10AFDEEE00A43
:101C800010EE903AA0F838384B798C7903F03F0584
:101C90009B0905EBC50606EB051504EB850300EE75
:101CA000903AF8EE600A80EE802A27D013465B4215
:101CB00000EE903AF8EEE00A62EE200A60EE810A49
:101CC00060EEA10AFDEEE00A10EE903AA0F8363878
:101CD0008B7ACC7A03F03F059B0905EBC50606EB32
:101CE000051504EB850300EE903AB8EE601AC1EEDC
:101CF000000A05D005E00123B2E70EE00123D6E794
:101D0000012200EE102A074AB8EEC00A20EE800A2F
:101D100082ED020A497A80F8401870BD0000C8427E
:101D200000408F4464060024074B0021054A00B59B
:101D30005981918A491C918201460448FFF76AFF44
:101D4000002000BDC41F002404010024302D002405
:101D5000FEE7000000B58DB0014630226846FEF770
:101D6000E8FA03480FC80BF063F90DB0002000BD7E
:101D70001400002400B58DB0014630226846FEF7FD
:101D8000D8FA03480FC80BF053F90DB0002000BD7E
:101D90002400002410B588B0044601AB00200221C5
:101DA0000090012283E807000490694605902068AE
:101DB00002F0B3FC20680022012102F023FC20681D
:101DC00003F075F908B010BD50F8042F5160C1E957
:101DD00000200160704710B58AB00C68002308220B
:101DE0000493CDE90043CDE902320A1D0593069321
:101DF000694607930893006802F054FC10B1002074
:101E00000AB010BD0120FBE770B5214BDDE90F21C1
:101E10009842C2F30723A1F20125A1F20524D2B210
:101E200008D1032D01D81B480BE0032C2DD81948ED
:101E30000C3013E0184EB04227D1032D0AD81548B4
:101E4000243000EB4100A0F5805080F8023C80F87F
:101E5000032C1AE0032C0AD80E48303000EB410066
:101E6000A0F5805080F8FA3B80F8FB2B0DE0A1F242
:101E70000920022809D807483C3000EB4100A0F5B2
:101E8000805080F8F23B80F8F32B002070BD0000FA
:101E90001807002498000024B807002470B5194BD7
:101EA000DDE90F219842C2F30723A1F20524A1F234
:101EB0000925D2B208D1032C01D813480BE0022D1A
:101EC0001ED811480C3013E0104EB04218D1032C2C
:101ED0000AD80D48243000EB4100A0F5805080F86E
:101EE000FA3B80F8FB2B0BE0022D09D80648303076
:101EF00000EB4100A0F5805080F8F23B80F8F32B16
:101F0000002070BD18070024A4000024B807002496
:101F100070B50488DDE90B128BB20D0C160C8671BE
:101F2000448192B259BA01816BBA438052BA82801D
:101F30000180002070BD0000074B02689A4202D168
:101F4000064AD1601060064B02689A4203D1034AE8
:101F50001032D1601060704700A0004014000024CF
:101F600000A400402DE9F0410E4605462DED088BFA
:101F700000F0FCF82A1805EB800168481E2792F84B
:101F80004D38DFED670A01F50061664AC3EB0313C4
:101F9000654C91ED234A07EB830100EE101AB0EE79
:101FA0000C1BB0EE043BB8EE400AF1EE042AB0EE92
:101FB000002A30EE040A80ED000A96ED114A70EE18
:101FC000C40AC0ED010A30EE204A14EE100A904215
:101FD0002CDA9FED564A60EE222A10EE824AF4EE89
:101FE000C42AF1EE10FA16D230EE800A94ED072AD8
:101FF000B7EEC04A84EE010BB7EEC21A30EE011BF9
:10200000B7EEC11B84ED071A94ED0E1AB7EEC11A94
:1020100000EE031B31E0F3EE051ADFED450A30EE6A
:10202000210A94ED071A31EE000A35E09FED414A8E
:1020300020EE822A00EE622A32EE042AB5EEC02A91
:10204000F1EE10FA1ED2D4ED072A9FED3B2A72EE74
:10205000600AB7EEE22A30EEC00AB7EEC04A84EE5C
:10206000010B32EE401BB7EEC11B84ED071A94ED55
:102070000E1AB7EEC11A00EE431BB7EEC10B84ED8A
:102080000E0A0DE0DFED2D1A94ED071ADFED2C0A94
:1020900031EEC00A31EE400A84ED070AC4ED0E0AA3
:1020A00005F500659FED278B95ED2D0A9FED279B8C
:1020B000B7EEC00A80EE08BB95ED190AB1EE400AF2
:1020C000B7EEC01A81EE090B0EF042FA9FED21AB7C
:1020D00095ED2D1A1BEE00AB95ED190AB1EE400AF5
:1020E000B7EEC11A81EE08BBB7EEC01A81EE090B3C
:1020F0000EF02EF99FED191B0BEE001B8AEE010B63
:102100000DF01AFE9FED171B20EE010BB7EEC00B72
:1021100084ED000ABDEC088BBDE8F0810C020024C0
:102120000000B44200003443EC1F002400000C43C4
:1021300000008A42004021440000B44300004443B0
:10214000000094C20000000000408F406666666692
:1021500066A64C408FC2F5285C8FB23FB81E85EB57
:1021600051B8AE3F6666666666A64CC0F0B590F89C
:102170004C4800239FED2E1A012C06D02D4A002139
:10218000DFED2D1A4FF47A764EE00020F0BD00BF4F
:1021900000EB8105294FDFED2A0AD5F8B458BD427E
:1021A00001DDDFED280A92F87C500A2D00EB0105D5
:1021B00095F8575819D91DB102EB45052D8A18E03D
:1021C000D58B16E0354600E0002500EE105A451884
:1021D000B8EE400A95F85758052D30EEC00A18D2CF
:1021E000DFE805F0140F0C1919002DB102EB4505BD
:1021F000AD8C642DE8D2E5E7558EFAE7DFED120AE3
:1022000001E0DFED120A30EE600A04E030EE610A10
:1022100001E030EE210AB4EEC10AF1EE10FA02D26A
:10222000B0EE401ACBB2491C8C42B1DC1846F0BD6E
:1022300000401C46F81A00240000C84200409C459B
:10224000000000000000FA440000FA430000484388
:1022500090ED010AD1ED021AD0ED020A91ED011ABA
:1022600020EE210A00EEC10A82ED000A90ED020A7A
:10227000D1ED001AD0ED000A91ED021A20EE210AEC
:1022800000EEC10A82ED010A90ED000AD1ED011ABB
:10229000D0ED010A91ED001A20EE210A00EEC10AEC
:1022A00082ED020A70470000014801F06DBA00009B
:1022B00018130024014801F067BA00003811002407
:1022C000014801F061BA000090130024014801F0B8
:1022D0005BBA000008140024014801F055BA000060
:1022E00080140024014801F04FBA0000F8140024C3
:1022F000014801F049BA000070150024014801F0BE
:1023000043BA0000E8150024014801F03DBA00007E
:10231000580F0024014801F037BA0000D00F002404
:10232000014801F031BA0000B0110024014801F069
:102330002BBA000048100024014801F025BA000023
:10234000C0100024014801F01FBA00002812002428
:10235000014801F019BA0000A0120024264A0168C1
:1023600091422CD0254A914229D0254A914226D02B
:10237000244A914223D0244A914220D0234A9142B8
:102380001DD0234A91421AD0224A914217D0224AA4
:10239000914214D0214A914211D0214A91420ED04B
:1023A000204A91420BD0204A914208D01F4A9142C4
:1023B00005D01F4A914202D01E4A914217D11E4BAE
:1023C000CAB2103AA3FB02321209DFF870C002F061
:1023D00007031CF80330C365032A04D96FF309010E
:1023E000091D816506E06FF30901816502E021F0B6
:1023F000FF018165806D7047100002402800024097
:102400004000024058000240700002408800024034
:10241000A0000240B800024010040240280402401C
:102420004004024058040240700402408804024004
:10243000A0040240B8040240ABAAAAAA5C22010888
:1024400001680123DFF894C0CAB261451BD0DFF8F0
:1024500090C0614517D0DFF88CC0614513D0DFF81C
:1024600088C061450FD0DFF884C061450BD0DFF82C
:1024700080C0614507D0DFF87CC0614503D0DFF83C
:1024800078C0614511D1A2F108011C4AA2FB0121CB
:1024900009091B4A02EB810202661A4A426601F0F0
:1024A0001F0103FA01F181667047DFF85CC0103A42
:1024B000ACFB02C21209DFF854C06144A82900D85D
:1024C0000832134901EB820101661249416602F0AC
:1024D0001F0103FA01F18166704700000854025899
:1024E0001C5402583054025844540258585402584C
:1024F0006C5402588054025894540258CDCCCCCC21
:102500000058025880580258ABAAAAAAF0FBFDBF97
:10251000000802408008024001794A1E072A28D894
:10252000144B0168994214D0134B994211D0134BAC
:1025300099420ED0124B99420BD0124B994208D0BF
:10254000114B994205D0114B994202D0104B994240
:1025500006D1104901EB8201C1660F49016705E010
:102560000E4901EB8201C1660D49016701219140CD
:1025700041677047085402581C540258305402589E
:1025800044540258585402586C540258805402580B
:102590009454025800590258405902580009024008
:1025A00040090240014600208B698A6A002B0FD047
:1025B000B3F5005F1DD08AB3012A30D0022A2ED095
:1025C000032A04D1C96A11F0807F00D0012070472E
:1025D0001AB1012A07D0022AF9D1C96A11F0807F05
:1025E000F5D001207047C96AB1F1C07FFAD101204E
:1025F00070475AB1012A0BD0022A07D0032AF7D11B
:10260000C96AB1F1C07FF3D1012070470120704742
:10261000C96A11F0807FFAD001207047FFE70120DE
:10262000704700002DE9F04F846D794ED0F800C05E
:10263000784FDFF8E481B445DFF8E091DFF8E0A1FE
:10264000DFF8E0B1784D4FD0BC454DD0C4454BD0FC
:10265000CC4549D0D44547D0DC4545D0DFF8CCE166
:10266000F44541D0AC453FD0DFF8C4E1F4453BD060
:10267000DFF8C0E1F44537D0DFF8BCE1F44533D0F2
:10268000DFF8B8E1F4452FD0DFF8B4E1F4452BD002
:10269000DFF8B0E1F44527D0DFF8ACE1F44523D012
:1026A000DFF8A8E1F4451FD0DFF8A4E1F4451BD022
:1026B000DFF8A0E1F44517D0DFF89CE1F44513D032
:1026C000DFF898E1F4450FD0DFF894E1F4450BD042
:1026D000DFF890E1F44507D0DFF88CE1F44503D052
:1026E000DFF888E1F44510D1D0F864E0D0F868C094
:1026F000CEF804C0D0F86CC0BCF1000F05D0D0F803
:1027000070E0D0F874C0CEF804C0D0F800C0B44572
:1027100026D0BC4524D0C44522D0CC4520D0D445B9
:102720001ED0DC451CD0414EB44519D0AC4517D065
:102730003F4DAC4514D03F4DAC4511D03E4DAC455E
:102740000ED03E4DAC450BD03D4DAC4508D03D4D77
:10275000AC4505D03C4DAC4502D03C4DAC4523D1F9
:1027600090F85CC03F250CF01F0C05FA0CFCC4F877
:1027700008C0D0F800C0DCF8004024F48024CCF875
:102780000040D0F800C0CCF804308368402B05D05E
:10279000036899600068C260BDE8F08F03689A60C2
:1027A0000068C160BDE8F08F294DAC4514D0294DBB
:1027B000AC4511D0284DAC450ED0284DAC450BD0C2
:1027C000274DAC4508D0274DAC4505D0264DAC452E
:1027D00002D0264DAC45E5D190F85CC001250CF047
:1027E0001F0C05FA0CFCC4F804C0D0F800C0CCF8EB
:1027F00004308368402B05D0036899600068C2608C
:10280000BDE8F08F03689A600068C160BDE8F08F92
:1028100010000240280002404000024058000240E0
:102820007000024088000240B8000240A000024050
:1028300010040240280402404004024058040240B0
:102840007004024088040240A0040240B804024020
:10285000085402581C540258305402584454025828
:10286000585402586C5402588054025894540258D8
:102870004FF48062428082800323C2800021028163
:102880008372C37202800122C1810182418280F879
:10289000321080F8331080F8381080F8351080F846
:1028A000361080F83A1080F83B1080F8371080F826
:1028B00034109FED070A80F8391080F8311080ED50
:1028C000260A80ED270A80F8A02080F8A210704721
:1028D00000000000F0B504464FF4A5650123002078
:1028E00084F888300A88C2F30A02A2F5B672AA42B6
:1028F00000D801204E788A78F60846EA4216C6F3D8
:102900000A06A6F5B676AE4200D8401CCF780E79FE
:10291000920942EA870242EA8622C2F30A02A2F53B
:10292000B672AA4200D8401C4A79760846EAC21616
:10293000C6F30A06A6F5B676AE4200D8401CB3EB45
:10294000921F07D00223B3EB921F03D00323B3EBF4
:10295000921F00D1401CC2F30113012B05D0022BA2
:1029600003D06FEA1212920700D1401C4FF000050D
:1029700006287DD15F4A4FF480605D4B9580DA89EF
:10298000521CDA81A27A22730A88C2F30A02628098
:102990004B78A2F2FD328E78072A4FEAD30242EA40
:1029A0004612C2F30A06A6808A78CB780F794FEADE
:1029B000921242EA830242EA8722C2F30A03E380C8
:1029C0000A794F794FEA520242EAC712C2F30A0269
:1029D00022814F794FEA9717A7724F79C7F30117F2
:1029E000E7720F8AC7F30A07278000D26080A6F239
:1029F000FD36072E00D2A080A3F2FD33072B00D2B4
:102A0000E080A2F2FD32072A00D2208146F2A8120D
:102A1000B1F90600E081B1F908309042238248897B
:102A20006082087B2075487B607500DDE281B4F927
:102A30000E603148864200DAE081934200DD228256
:102A4000B4F91020824200DA2082C8892083887B72
:102A500000F00100A076887BC0F340002077887BDF
:102A6000C0F38000E076887BC0F3C000607700E0B0
:102A70003AE0C87BC00984F82700C87BC0F3801007
:102A800084F82200C87BC0F3401084F82500C87B7E
:102A9000C0F3001084F82900C87BC0F3C00084F89C
:102AA0002800C87BC0F3800084F82400C87BC0F3F2
:102AB000400084F82300C87B00F0010084F8260061
:102AC000887BC00984F82100887BC0F3801084F8DB
:102AD0002000887BC0F34010E077887BC0F30010B3
:102AE000A07720460AF0F2FA84F88850F0BD000082
:102AF000C41F002404010024589EFFFF0A4601461B
:102B0000024800B5FFF7E6FE002000BD1C1F0024B0
:102B10000A4808B5017800290ED10949012202703E
:102B20004A68009243699A4202D20269521C0261C9
:102B3000496800224161027008BD0000380000248D
:102B4000001000E00A4841680A4AD2ED010A4268D2
:102B5000B8EE601A521A60EE011A01EE102AB8EEB1
:102B6000411AB4EEE11AF1EE10FAF0D3704700000A
:102B7000001000E03800002400B50E492DED028B56
:102B800081B049680C4A00910168D2ED010A009AAF
:102B90000260511A00EE101AF8EE600AB8EE400A10
:102BA00080EE208AFFF7B4FF01B0B0EE480ABDEC1A
:102BB000028B00BD001000E03800002410B500F0CA
:102BC00045F80C48DFED0C1A90ED000A8188C088AA
:102BD00000EE901AB8EE400A01EE100AB8EE602A34
:102BE000DFED060AB8EE411A02EE210A01EE200AD4
:102BF00010BD0000680000246F12833ABD3786358F
:102C00000E490023F0B40E4A0C6850430D4A44F0BC
:102C100080740C60536011684FF47A74084DB0FBF7
:102C2000F4F4B0FBF5F541F00106074916600B61BD
:102C3000091D81E83100F0BCFFF76ABFFCED00E040
:102C400040420F00001000E03800002420482DE929
:102C5000F84340680090FFF75BFF1E4F0024611EA1
:102C60000098254623463A69E2FB010506462946B7
:102C7000C7E90E05D7F804804246FDF729FB424616
:102C800003463046A3FB026C01FB02C107F130088A
:102C900003FB0411C8F80030801BD7F8089065EBDF
:102CA0000105002306464A462946FDF711FB80B27E
:102CB000A8F80400FA6800FB09F3F01A002365EB9A
:102CC0000401FDF705FBA8F80600BDE8F883000045
:102CD000001000E038000024704790ED000AD1EDAC
:102CE000002AD0ED011A91ED012A20EE220AD0ED42
:102CF000020A91ED021A01EE820A00EE810A704783
:102D0000B6EE000A92ED021AB0EE403AD2ED030A96
:102D100001EE413A92ED012AD2ED002AF0EE001ABE
:102D200062EE013A90EC034A00EEE03A22EE202AED
:102D300042EEA03A02EEC12A63EE040A43EEA40A70
:102D400042EE050AB0EE402A60EEA10AC1ED000A8B
:102D500092ED011A92ED023AD2ED002AD2ED030A69
:102D600061EE033A01EE412A90EC034A23EE203A49
:102D700042EEE03A00EEE02A02EE813A63EE840A87
:102D800042EE240A43EE050A60EEA10AC1ED010AF3
:102D900092ED011AD2ED032AD2ED020A92ED002A39
:102DA00021EE223A60EEA22AD0EC033A01EE410A6B
:102DB00002EE203A42EE412A00EEE00A23EE231A08
:102DC00002EE841A00EE241A21EE210A81ED020A95
:102DD00070477047014801F0D9BD00001807002472
:102DE000014801F0D3BD0000B8070024416B026820
:102DF000D2F884306FF38F0343EA8103C2F8843042
:102E00000268D2F88430B0F838C023F47F0343EA74
:102E10000C43C2F88430826B11440268D2F88830C7
:102E20006FF38F0343EA8103C2F888300268D2F857
:102E30008830B0F83CC023F4FE0343EA0C43C2F8E8
:102E40008830C26B01EB42010268D2F8A0306FF308
:102E50008F0343EA8103C2F8A0300268D2F8A030A1
:102E6000B0F840C023F4FE0343EA0C43C2F8A0309C
:102E7000436C026C02FB03110268D2F8B0306FF3AE
:102E80008F0343EA8103C2F8B0300268D2F8B03051
:102E9000B0F848C023F4FE0343EA0C43C2F8B03054
:102EA000C36C826C02FB03110268D2F8AC306FF382
:102EB0008F0343EA8103C2F8AC30436D026D02FB1D
:102EC00003110268D2F8F0306FF38F0343EA8103F5
:102ED000C2F8F0300268D2F8F030B0F858C023F4ED
:102EE0007C1343EA0C43C2F8F030826D01EB4202DE
:102EF0000168D1F8C0306FF38F0343EA8202C1F852
:102F0000C0200168D1F8C020B0F85C3022F47C12F7
:102F100042EA0342C1F8C0200168D1F8C02090F80D
:102F2000603022F07C5242EA0362C1F8C020416B5B
:102F3000294A02EB8101C166826B01EB82020267C2
:102F4000C36B02EBC3024267D0F844C0036C03FBBF
:102F50000CF302EB83028267D0F84CC0836C03FB56
:102F60000CF302EB8302C267D0F854C0036D03FB7D
:102F70000CF302EB8302C0F88020836D02EBC303E5
:102F8000C0F88430D0F85CC0826E0CFB02FC03EB0E
:102F90008C03C0F88830D0F860C00CFB02F203EB61
:102FA0008202C0F890200D4B9A420AD9D0F89C10AA
:102FB00041F02001C0F89C10032180F898100120F6
:102FC00070478A4206D900220A60091DD0F8903065
:102FD0008B42F9D80020704700AC0040FCD3004081
:102FE00070B4D1F808C00C694D6844EA0C0C0C6848
:102FF000002D40D044F080444CEA040C8D69CC692B
:1030000091F820602C434D6945EA06652C438D8973
:1030100044EA0544D0F88450806E00FB03F005EBD1
:103020008000C0F800C0001D0460031D0020134C88
:10303000D1F80CC014F80CC0BCF1000F19D902EB88
:10304000000C155C9CF8036045EA06659CF802607C
:103050009CF801C0360446EA0C2C45EA0C0CC3F877
:1030600000C01B1D001DD1F80CC014F80CC0844515
:10307000E5D870BC70474CEA844CBFE700220108D9
:10308000F0B5C7890021068A458A848A028B438B62
:103090008780C68005804480428183818182C1818E
:1030A0000182418201834183F0BD000016498842BC
:1030B00001D1164870471649884202D11348703032
:1030C00070471449884202D11048E03070471249D5
:1030D000884201D1114870471149884202D10F48F6
:1030E000703070470F49884202D10C48E030704779
:1030F0000D49884201D10D4870470D498842FBD1E6
:103100000A48703070470000080D00246016002443
:103110009C0D0024300E0024B80A0024B0170024AF
:103120004C0B0024C40E0024E00B002400190024E2
:10313000740C002410B558B1084C491E0BD310F87C
:10314000013B5340DBB234F8133083EA1222F4E738
:103150004FF6FF7010BD104610BD0000341F01086F
:1031600010B5054C04E000BF10F8013B5340E25C91
:10317000491EF9D2104610BD341E01082DE9F84F42
:10318000044602F07FF900905CB194F83500022803
:103190000AD080206065002084F834000120BDE85A
:1031A000F88F0120BDE8F88FB6492068B64EB74FBA
:1031B0008842DFF8DC82DFF8DC92DFF8DCA2DFF89F
:1031C000DCB226D0B04224D0B84222D0404520D034
:1031D00048451ED050451CD058451AD0B04A9042A0
:1031E00017D0B04A904214D0AF4A904211D0AF4AA3
:1031F00090420ED0AE4A90420BD0AE4A904208D0D8
:10320000AD4A904205D0AD4A904202D0AC4A9042BD
:103210000AD1026822F01E0202602068426922F090
:1032200080024261256804E0026822F00E0202601A
:103230002568206888423ED0B0423CD0B8423AD09F
:10324000404538D0484536D0504534D0584532D026
:10325000934A90422FD0934A90422CD0924A904267
:1032600029D0924A904226D0914A904223D0914A46
:10327000904220D0904A90421DD0904A90421AD05D
:103280008F4A904217D08F4A904214D08E4A904273
:1032900011D08E4A90420ED08D4A90420BD08D4A6A
:1032A000904208D08C4A904205D08C4A904202D07D
:1032B0008B4A904204D1206E026822F48072026030
:1032C00070492068884226D0B04224D0B84222D02B
:1032D000404520D048451ED050451CD058451AD0F6
:1032E0006F49884217D06F49884214D06E4988428E
:1032F00011D06E4988420ED06D4988420BD06D497D
:10330000884208D06C49884205D06C49884202D076
:103310006B49884204D1016821F00101016003E09A
:10332000016821F001010160286810F0010F14D03C
:1033300002F0A8F80099401A05280AD920206065F3
:10334000032084F83500002084F834000120BDE813
:10335000F88F286810F0010FEAD14A4A012120684D
:10336000904226D0B04224D0B84222D0404520D04E
:1033700048451ED050451CD058451AD0484B98425D
:1033800017D0484B984214D0474B984211D0474B26
:1033900098420ED0464B98420BD0464B984208D0EC
:1033A000454B984205D0454B984202D0444B984239
:1033B0000AD1A06D4FF03F0C94F85C3003F01F036E
:1033C0000CFA03F3836007E0A06D94F85C3003F01F
:1033D0001F0301FA03F34360206890423ED0B042DD
:1033E0003CD0B8423AD0404538D0484536D0504518
:1033F00034D0584532D02A4A90422FD0294A9042A0
:103400002CD0294A904229D0284A904226D0284AD6
:10341000904223D0274A904220D0274A90421DD084
:10342000264A90421AD0264A904217D0254A904206
:1034300014D0254A904211D0244A90420ED0244AFA
:1034400090420BD0234A904208D0234A904205D0A4
:10345000224A904202D0224A90420BD1626EA06E64
:103460005060E06E30B1026822F480720260226F18
:10347000606F506084F83510002084F83400BDE897
:10348000F88F000010000240280002404000024077
:10349000580002407000024088000240A000024034
:1034A000B8000240100402402804024040040240D8
:1034B000580402407004024088040240A004024004
:1034C000B8040240085402581C54025830540258A0
:1034D00044540258585402586C54025880540258AC
:1034E000945402582DE9F05F002808D090F8351068
:1034F000022907D0802141650120BDE8F09F01200D
:10350000BDE8F09FDFF81CE20168874BDFF81CC2C2
:103510007145874C874D884E884FDFF82482DFF84D
:103520002492DFF824A2DFF824B2894A25D09942F8
:1035300023D0614521D0A1421FD0A9421DD0B14264
:103540001BD0B94219D0DFF80CE2714515D0DFF875
:1035500008E2714511D0DFF804E271450DD0414514
:103560000BD0494509D0DFF8F8E1714505D0514548
:1035700003D0594501D0914232D14FF0040E80F86A
:1035800035E06848814221D099421FD061451DD065
:10359000A1421BD0A94219D0B14217D0B94215D0CF
:1035A0006C48814212D06C4881420FD06B488142F6
:1035B0000CD041450AD0494508D06948814205D020
:1035C000514503D0594501D0914204D1086820F0FB
:1035D00001000860A3E0086820F0010008609EE098
:1035E000D1F800E02EF00E0EC1F800E0DFF834E173
:1035F0000168714525D0994223D0614521D0A1426F
:103600001FD0A9421DD0B1421BD0B94219D0DFF85A
:1036100044E1714515D0DFF840E1714511D0DFF884
:103620003CE171450DD041450BD0494509D0DFF84B
:1036300030E1714505D0514503D0594501D0914243
:1036400006D1D1F800E02EF0010EC1F800E005E04F
:10365000D1F800E02EF0010EC1F800E0DFF8C4E080
:103660000168714539D0994237D0614535D0A142C2
:1036700033D0A94231D0B1422FD0B9422DD0354BF1
:1036800099422AD0344B994227D0344B994224D0C6
:10369000414522D0494520D0314B99421DD051455A
:1036A0001BD0594519D0914217D02E4A914214D0BF
:1036B0002D4A914211D02D4A91420ED02C4A91426E
:1036C0000BD02C4A914208D02B4A914205D02B4A6C
:1036D000914202D02A4A914218D1016E0A6822F41E
:1036E00080720A60816D90F85C2002F01F03012255
:1036F0009A404A60426E816E5160C16E31B10A6873
:1037000022F480720A60026F416F5160012180F8DB
:103710003510002180F83410016D01B18847002078
:10372000BDE8F09F10000240280002404000024027
:10373000580002407000024088000240A000024091
:10374000400402405804024088040240A0040240A1
:10375000B8040240B80002401004024028040240AD
:1037600070040240085402581C5402583054025845
:1037700044540258585402586C5402588054025809
:1037800094540258406D70472DE9F04F83B00446C1
:10379000002002904FF41651FD480068B0FBF1F094
:1037A0000190A56D2E682968FA4F2068DFF8E8A31C
:1037B000DFF8E8B3B842DFF8E883DFF8E8932DD00C
:1037C000524690422AD05A46904227D0404525D0B2
:1037D000484523D0F44A904220D0F44A90421DD06C
:1037E000F34A90421AD0F34A904217D0DFF8C8C388
:1037F000604513D0F14A904210D0DFF8C4E3704521
:103800000CD0F04A904209D0EF4A904206D0EF4ADD
:10381000904203D0EE4B984240F0408294F85C1006
:10382000082201F01F0102FA01F1314241D0B842F1
:1038300028D0504526D0584524D0404522D0484570
:1038400020D0D94988421DD0D84988421AD0D849B9
:10385000884217D0D749884214D0D749884211D01E
:10386000D64988420ED0D64988420BD0D5498842E5
:1038700008D0D549884205D0D449884202D0D449DD
:10388000884203D1016801F0040102E0016801F0FF
:10389000080171B1016821F00401016094F85C0035
:1038A00000F01F0002FA00F0A860606D40F0010017
:1038B000606594F85C0000F01F01012000FA01F13E
:1038C000314234D02068B84228D0504526D05845DF
:1038D00024D0404522D0484520D0B34A90421DD044
:1038E000B24A90421AD0B24A904217D0B14A90429E
:1038F00014D0B14A904211D0B04A90420ED0B04A92
:1039000090420BD0AF4A904208D0AF4A904205D0C7
:10391000AE4A904202D0AE4A90427DD1406910F04A
:10392000800F04D0A960606D40F00200606594F8DB
:103930005C0000F01F01042000FA01F1314234D094
:103940002068B84228D0504526D0584524D040455C
:1039500022D0484520D0944A90421DD0934A9042AC
:103960001AD0934A904217D0924A904214D0924A69
:10397000904211D0914A90420ED0914A90420BD081
:10398000904A904208D0904A904205D08F4A904287
:1039900002D08F4A904245D1006810F0020F04D047
:1039A000A960606D40F00400606594F85C0000F070
:1039B0001F01102000FA01F1314259D02068B842AD
:1039C00028D0504526D0584524D0404522D04845DF
:1039D00020D0754A90421DD0744A90421AD0744A41
:1039E000904217D0734A904214D0734A904211D03B
:1039F000724A90420ED0724A90420BD0714A904265
:103A000008D0714A904205D0704A904202D0704A64
:103A1000904209D1006800E002E000F0080006E0F2
:103A2000006884E70068C0E7006800F00400F8B1AF
:103A3000A9602068016811F4802F0DD0006810F48F
:103A4000002F04D0A16C99B12046884710E0216C6A
:103A500071B1204688470BE0016811F4807F03D1E3
:103A6000016821F008010160216C09B120468847F6
:103A700094F85C0000F01F01202000FA01F13142AF
:103A80006FD02068B84228D0504526D0584524D061
:103A9000404522D0484520D0434A90421DD0434A59
:103AA00090421AD0424A904217D0424A904214D0D3
:103AB000414A904211D0414A90420ED0404A904231
:103AC0000BD0404A904208D03F4A904205D03F4A2E
:103AD000904202D03E4A904203D1006800F01000AC
:103AE00002E0006800F00200D8B3A96094F8350045
:103AF00004280DD02068016811F4802F37D00068A9
:103B000010F4002F2ED0E16B59B32046884764E0B3
:103B10002068016821F0160101602068416921F0E8
:103B200080014161206C08B9A06C20B12068016857
:103B300021F00801016094F85C003F2100F01F00B3
:103B400001FA00F0A860012084F83500002084F814
:103B50003400216D00297BD003B02046BDE8F04F32
:103B6000084737E0616CA9B32046884735E0016813
:103B700011F4807F09D1016821F01001016001205A
:103B800084F83500002084F83400E16B11B322E0A2
:103B90000C000024100002402800024040000240B7
:103BA000580002407000024088000240A00002401D
:103BB000B8000240100402402804024040040240C1
:103BC000580402407004024088040240A0040240ED
:103BD000B804024001E020468847606D002837D0D5
:103BE000606D10F0010F51D0042084F8350020687A
:103BF000B84228D0504526D0584524D0404522D040
:103C0000484520D0AB4988421DD0AB4988421AD0E4
:103C1000AA49884217D0AA49884214D0A9498842A3
:103C200011D0A94988420ED0A84988420BD0A84992
:103C3000884208D0A749884205D0A749884202D0C7
:103C4000A649884205D1016821F00101016004E024
:103C500096E0016821F00101016021680298019A53
:103C6000401C0290904203D8086810F0010FF5D173
:103C7000086810F0010F03D0032084F8350002E03B
:103C8000012084F83500002084F83400E16C00291C
:103C900076D003B02046BDE8F04F0847904B9842DD
:103CA00014D0904B984211D08F4B98420ED08F4B2E
:103CB00098420BD08E4B984208D08E4B984205D03C
:103CC0008D4B984202D08D4B984259D103684FF0EA
:103CD000040A94F85C6006F01F060AFA06FA1AEA6B
:103CE000010F5AD013F0040F57D0C5F804A013F4F5
:103CF000004F12D013F4803F07D0216C00293FD031
:103D000003B02046BDE8F04F0847A16C002937D02A
:103D100003B02046BDE8F04F084713F0200F34D120
:103D20002068B84227D07649884224D07549884215
:103D300021D040451FD048451DD05E4988421AD049
:103D40005D49884217D05D49884214D05C49884259
:103D500011D060450FD05C4988420CD070450AD024
:103D60005B49884207D05B49884204D0904202D028
:103D70005A49884205D1016821F00801016004E038
:103D800083E0016821F004010160216C00297CD0EE
:103D900003B02046BDE8F04F08474FF0020A0AFA88
:103DA00006FA1AEA010F5FD013F0020F5CD0C5F8D3
:103DB00004A013F4004F12D013F4803F07D0E16B3E
:103DC000002974D003B02046BDE8F04F0847616C6D
:103DD00000296CD003B02046BDE8F04F084713F02F
:103DE000200F39D12068B84227D04549884224D0D5
:103DF0004449884221D040451FD048451DD02D4917
:103E000088421AD02C49884217D02C49884214D0B5
:103E10002B49884211D060450FD02B4988420CD0E5
:103E200070450AD02A49884207D02A49884204D0DE
:103E3000904202D02949884204D1016821F014013E
:103E4000016003E0016821F00A010160012084F8AB
:103E50003500002084F83400E16B002927D003B03E
:103E60002046BDE8F04F08470822B2400A421ED063
:103E700013F0080F1BD0016821F00E01016094F8C7
:103E80005C0000F01F01012000E010E000FA01F1E9
:103E90006960606584F83500002084F83400E16CC6
:103EA000002904D003B02046BDE8F04F084703B016
:103EB000BDE8F08F88000240A0000240B800024038
:103EC000100402402804024040040240580402400A
:103ED0007004024088040240A0040240B80402407A
:103EE000085402581C540258305402584454025882
:103EF000585402586C540258805402589454025832
:103F000028000240400002402DE9F05F044601F025
:103F1000B9FA0646002C6AD0DC4F02222068002540
:103F2000DFF86C83DFF86C93B842DFF86CA3DFF83E
:103F30006CB328D0DA49884225D0404523D0484583
:103F400021D050451FD058451DD0D64988421AD09F
:103F5000D549884217D0D549884214D0D4498842DF
:103F600011D0D44988420ED0D34988420BD0D349CE
:103F7000884208D0D249884205D0D249884202D02E
:103F8000D14988427ED184F8352084F83450B84233
:103F900028D0C349884225D0404523D0484521D068
:103FA00050451FD058451DD0BE4988421AD0BE4941
:103FB000884217D0BD49884214D0BD49884211D0EB
:103FC000BC4988420ED0BC4988420BD0BB498842CC
:103FD00008D0BB49884205D0BA49884202D0BA49C4
:103FE000884207D1016821F00101016006E001204B
:103FF000BDE8F09F016821F00101016020680068C0
:1040000010F0010F11D001F03DFA801B052807D9EF
:1040100020206065032084F835000120BDE8F09F72
:104020002068006810F0010FEDD122681068A749E0
:104030000840E368A168D4F814C01943236943EA2F
:104040000C031943A3691943E3691943236A19430C
:104050000843616A042903D1236BE16A19430843C9
:104060009B4909686FF30F01B1F1005F11D36168DB
:10407000A1F12903052B0AD9163B032B07D9083BCD
:10408000012B00E02CE002D94F39032901D840F47C
:10409000801010602068406920F00701606A40EAE3
:1040A000010604280ED1A06A0643E06A50B12046FA
:1040B000FEF778FA30B140206065012084F83500C1
:1040C000BDE8F09F206846612046FEF747F994F866
:1040D0005C103F2201F01F0102FA01F181605BE0F8
:1040E0007C49884214D07C4B984211D07B4B98423B
:1040F0000ED07B4B98420BD07A4B984208D07A4B2B
:10410000984205D0794B984202D0794B98427DD1A4
:1041100088420CD07049884209D07049884206D044
:104120006F49884203D06F49884200D06E4984F8B5
:10413000352084F8345002686FF31012A1684029CA
:1041400079D0802979D00021E36841EAD30123693D
:1041500041EAD301636941EAD301A36941EAD3018A
:10416000E36941EAD301236A41EA13111143016073
:104170006049206801446048A0FB011000098000EC
:10418000E0652046FEF7EAF894F85C10012201F0A1
:104190001F0102FA01F141602068B84242D0404953
:1041A00088423FD040453DD048453BD0504539D06E
:1041B000584537D03B49884234D03B49884231D0BA
:1041C0003A4988422ED03A4988422BD03949884210
:1041D00028D03949884225D03849884222D03849E8
:1041E00088421FD0374988421CD03749884219D0AD
:1041F0003849884216D03849884213D03749884216
:1042000010D0374988420DD0364900E018E0884286
:1042100008D03549884205D03449884202D0344913
:1042200088422CD12046FEF70BF9A06880280FD0D9
:104230000FE000E001E0102186E74FF4804183E7C2
:1042400040206065032084F835000120BDE8F09F20
:104250006560216E20790860616EA06E48606068BC
:10426000401E072808D82046FEF756F9E06E056084
:10427000216F606F486002E0E566256765676565E8
:10428000012084F835000020BDE8F09F10000240B6
:104290004000024058000240700002408800024086
:1042A00028000240A0000240B80002401004024072
:1042B00028040240400402405804024070040240B6
:1042C00088040240A0040240B80402403F8010FE6F
:1042D0000010005C085402581C5402583054025814
:1042E00044540258585402586C540258805402588E
:1042F00094540258F8ABFDA7CDCCCCCC2DE9F84FA7
:10430000044600200090002C16D094F834000128B8
:1043100015D0012084F8340094F835C00020BCF199
:10432000010F0FD04FF40061616584F83400012063
:1043300000900098BDE8F88F0120BDE8F88F0220BA
:10434000BDE8F88F4FF0020C84F835C06065DFF8E7
:104350002CC220688A4D8B4E60458B4FDFF82C8233
:10436000DFF82C92DFF82CA2DFF82CB22DD0A84277
:104370002BD0B04229D0B84227D0404525D048455F
:1043800023D0504521D058451FD0DFF810C26045DA
:104390001BD0DFF80CC2604517D0DFF808C26045BB
:1043A00013D0DFF804C260450FD0DFF800C26045CB
:1043B0000BD0DFF8FCC1604507D0DFF8F8C16045DD
:1043C00003D0DFF8F4C1604506D1D0F800C02CF06E
:1043D000010CC0F800C005E0D0F800C02CF0010CC2
:1043E000C0F800C02046FEF71DF9644920688842E5
:1043F00025D0A84223D0B04221D0B8421FD040459A
:104400001DD048451BD0504519D0584517D0634A98
:10441000904214D0624A904211D0624A90420ED02B
:10442000614A90420BD0614A904208D0604A904263
:1044300005D0604A904202D05F4A90420DD1026896
:1044400022F01E0242F016020260206C90B1206839
:10445000026842F0080202600CE0026822F00E02DC
:1044600042F00A020260206C20B12068026842F02B
:1044700004020260206888423DD0A8423BD0B0428E
:1044800039D0B84237D0404535D0484533D0504573
:1044900031D058452FD0414A90422CD0404A9042CA
:1044A00029D0404A904226D03F4A904223D03F4AEA
:1044B000904220D03E4A90421DD03E4A90421AD0AF
:1044C0003D4A904217D03D4A904214D03C4A904217
:1044D00011D03C4A90420ED03B4A90420BD03B4A0E
:1044E000904208D03A4A904205D03A4A904202D0CF
:1044F000394A90420ED1206E026812F4803F03D0F8
:10450000026842F480720260E06E18B1026842F400
:10451000807202602068884225D0A84223D0B04231
:1045200021D0B8421FD040451DD048451BD0504532
:1045300019D0584517D01949884214D018498842D3
:1045400011D0184988420ED0174988420BD017491C
:10455000884208D01649884205D01649884202D0C0
:104560001549884204D1016841F001010160E0E68B
:10457000016841F001010160DBE60000100002402B
:1045800028000240400002405800024070000240F3
:1045900088000240A0000240B8000240100402401F
:1045A00028040240400402405804024070040240C3
:1045B00088040240A0040240B80402400854025893
:1045C0001C5402583054025844540258585402584B
:1045D0006C540258805402589454025870B50446E2
:1045E00000F050FF0546B4F1FF3F02D004480078C8
:1045F000044400F047FF401BA042FAD370BD000006
:104600000007002490F89830012B09D0022B07D026
:10461000D0F89C1041F00201C0F89C1001207047B6
:104620000368D3F858C01CEA010F06D1D3F85CC068
:104630004CF0010CC3F85CC008E0D3F858C031EA74
:104640000C0C26D04FF0030CC3F85CC011F4007FB3
:1046500006D00368D3F8E0C04CEA020CC3F8E0C00F
:1046600011F4806F06D00368D3F8E4C04CEA02026C
:10467000C3F8E4200068426D21F4401323F0404366
:104680001A4342650648026842EA917101600020BF
:104690007047D3F85CC04CF0020CC3F85CC0D5E79F
:1046A00014A8004070B5044694F89800022807D07A
:1046B000D4F89C0040F00800C4F89C00012070BDB4
:1046C0002068D0F8C03013F07C5F0CD0D0F8C43034
:1046D00013F4001F0FD0D4F89C0040F40070C4F80D
:1046E0009C00012070BDD4F89C0040F02000C4F86C
:1046F0009C00012070BDD0F8C400C0F304452046E2
:104700002B46FEF76DFC21680120A840C1F8D000BF
:10471000C4F89400002070BD704790F89820012ADA
:1047200009D0022A07D0D0F89C1041F00201C0F84D
:104730009C1001207047CA680B6893B1072A0B6967
:1047400043EA42732ED091F808C04A6942EA8C725B
:104750004968006F00EBC100036042604FF0000049
:104760007047072A12D091F808C04FEAC2624B691D
:1047700043EA8C73B1F810C042EA0C4243EA0202E9
:104780004968C06E00EB81000260E7E70B8A4FF0DA
:10479000605C8A6942EA0342CB694CEA032342EA3D
:1047A0000302EDE78A69D3E770477047F0B44FF032
:1047B000000C90F89840022C08D0D0F89C1041F0E2
:1047C0000801C0F89C10F0BC0120704740290DD0B2
:1047D000412940D0046D8C4273D8D0F89C1041F030
:1047E0002001C0F89C10F0BC012070470468D4F888
:1047F000A05015F4FE0F1CD0D4F8A45015F07F0F74
:1048000020D0D4F8A45015F0807F06D0D4F8A05062
:1048100015F0004F01D54FF0010CD4F8A440C4F3BB
:104820000524A444456C446F05FB0CF504EB85049A
:104830004DE0D0F89C1041F02001C0F89C10F0BC75
:1048400001207047D0F89C1041F48071C0F89C1092
:10485000F0BC012070470468D4F8B05015F4FE0F86
:104860001CD0D4F8B45015F07F0F20D0D4F8B45039
:1048700015F0807F06D0D4F8B05015F0004F01D568
:104880004FF0010CD4F8B440C4F30524A444C56C23
:10489000846F05FB0CF504EB850418E0D0F89C1040
:1048A00041F02001C0F89C10F0BC01207047D0F806
:1048B0009C1041F48071C0F89C10F0BC012070473E
:1048C000FFE7456DC46F05FB01F504EB8504256822
:1048D00005F080455560E5B3256825F06045156015
:1048E000256805F000559560256805F000451561BF
:1048F000241D2588ADB2D5612568C5F30347D7606F
:10490000256805F480155561256805F40015956145
:104910002568C5F3066515622568ED0F5562251DEE
:104920000024184EF75D002F06D92F5D1F55641C1B
:10493000D768F75DA742F8D8402910D0412912D096
:104940000122202913D2006802FA01F1C0F8981060
:1049500014E0FFE72568C5F38A451560C0E70068E5
:10496000C0F8A8C00AE00068C0F8B8C006E0006857
:1049700001F01F0102FA01F1C0F89C100020F0BC08
:104980007047000000220108704700002DE9F04F39
:1049900083B00446BC4F38688007391D096800EAB7
:1049A00081792068016D01F47041426D02EA010ACB
:1049B000016D01F00F01426D02EA010B016D01F082
:1049C000F001426D11400291016D01F07151426D93
:1049D00002EA0108016D01F06071426D1140019120
:1049E000456D066D15F4807F09D016F4807F06D0E2
:1049F000B9150165002038602046FFF7C5FF15F4A2
:104A0000806F10D016F4806F0DD02068D0F8DC10C5
:104A1000D0F8E42011404FF4806202650020386035
:104A2000204600F063FBB9F1000F0CD0216829F497
:104A3000401020F0404008654FEA997038604946C0
:104A40002046FFF769FEBAF1000F0CD021682AF466
:104A5000401020F0404008654FEA9A703860514697
:104A6000204600F045FBBBF1000F0CD021682BF471
:104A7000401020F0404008654FEA9B70386059466E
:104A8000204600F0E5FA029868B12168029820F407
:104A9000401020F0404008650298800F386002996D
:104AA000204600F003FB15F4006F0BD016F4006FE6
:104AB00008D021684FF40060086500203860204667
:104AC00000F017FB15F4007F10D016F4007F0DD016
:104AD0002068D0F8D810D0F8E02011404FF40072D0
:104AE000026500203860204600F001FB15F4002F1D
:104AF0000BD016F4002F08D021684FF40020086571
:104B000000203860204600F0A1FA15F4803F0BD059
:104B100016F4803F08D021684FF4803008650020EB
:104B20003860204600F0E1FA15F4802F0BD016F41F
:104B3000802F08D021684FF480200865002038605D
:104B4000204600F0D1FA15F4003F0ED016F4003FD5
:104B50000BD021684FF40030086500203860D4F88D
:104B60009C0040F08000C4F89C00019868B1216866
:104B7000019820F4401020F0404008650198800F13
:104B8000386001992046FFF710FEB8F1000F0ED0F3
:104B9000216828F4401020F0404008654FEA9870E2
:104BA0003860D4F89C0040EA0800C4F89C002068F3
:104BB000A0F18041B1F520415CD16068816811F0BD
:104BC000030F57D0016A01F00F01426A1140026AD7
:104BD00002F03002436A03EA0207026A02F4C0727A
:104BE000436A03EA0208026A02F4FC42436A03EAE7
:104BF0000205026A02F4F022436A03EA0206D0F8D0
:104C00002490D0F820A019B10162204600F069FA82
:104C10002FB1606807623946204600F064FA19F047
:104C2000400F0DD01AF0400F0AD06068C16B090C1C
:104C3000C26B02F03F0240230362204600F052FAAA
:104C4000B8F1000F06D06068C0F8208041462046C9
:104C500000F046FA35B160680562D4F89C0028433C
:104C6000C4F89C0036B160680662D4F89C003043FA
:104C7000C4F89C00D4F89C00002802D02046FFF71E
:104C800093FD03B0BDE8F08F10A800402DE9F0417E
:104C900094B004464C22A14901A8FBF74AFB5CB141
:104CA0009F4F2068B84202D100F58070606094F890
:104CB0009800002620B108E014B00120BDE8F08182
:104CC00084F89960204600F02DF92068816921F070
:104CD0001001816100F0D6FB0546206880694FF025
:104CE000030810F0080F15D000F0CCFB401B0A2879
:104CF0000BD9D4F89C0040F00100C4F89C0084F863
:104D0000988014B00120BDE8F0812068806910F01F
:104D1000080FE9D12068816941F00101816100F04B
:104D2000B1FB05462068806910F0010F15D100F035
:104D3000A9FB401B0A280BD9D4F89C0040F00100C5
:104D4000C4F89C0084F8988014B00120BDE8F0817C
:104D50002068806910F0010FE9D02068816941F076
:104D600002018161207C012839D02068816941F0ED
:104D700040018161607C012837D02068816921F47D
:104D800080418161A07C012835D02068816941F48F
:104D90008051816120688169A26821F440711143CA
:104DA00081612068816921F0A40181612068016925
:104DB00021F010010161E068012822D030B30228FF
:104DC0002BD02068816941F08001816120680169F0
:104DD00041F010010161E068032818D022E020684A
:104DE000816921F040018161C4E72068816941F453
:104DF00080418161C6E72068816921F48051816129
:104E0000C8E72068816941F0040181610AE02068F7
:104E1000816941F02001816104E02068816941F0ED
:104E200020018161207EE169401E491E400640EA62
:104E30000120216A491E0843A18A491E40EA014017
:104E40002168C861A068B0F5407F0FD1E16AA06A0F
:104E5000491E401E40EA0120216B491E40EA011014
:104E6000A18C491E40EA01402168C860206E30B123
:104E70002068D0F8C010626E1143C0F8C010216ED7
:104E8000E06DC84201A90AD02068D0F8C820A36EFE
:104E900022F0070251F823301A43C0F8C820206CD2
:104EA00050B12068D0F8BC20636C22F0070251F8A2
:104EB00023301A43C0F8BC20A06C58B12068D0F849
:104EC000BC20E36C22F0700251F8233042EA031256
:104ED000C0F8BC20206D58B12068D0F8BC20636DAC
:104EE00022F4E06251F8231042EA0121C0F8BC101C
:104EF0002068B84204D16068816821F003018160B4
:104F0000C4F89460C4F89C60012084F8980020469E
:104F1000FDF76CFF14B0BDE8F0810000102201081D
:104F200000A000402DE9F043B7B08046142130A81E
:104F3000FBF726FAC0216846FBF722FA3E4D002611
:104F4000D8F800004FF080513C4A0C3D394F4FF0EB
:104F50000208394C90424FF0090931D100201C91D0
:104F60004A13CDE90020684601F0BEF908B1FDF70B
:104F700030FF3868401C3860012807D1206840F4B1
:104F800080702060206800F480703590286840F0C0
:104F90000100286028684FF4C052309230A900F018
:104FA0000100CDE931863396CDE93490244800F0F4
:104FB00061F901220221132000F03CFF132033E0AD
:104FC000204A904232D100201C914FF40042CDE99A
:104FD0000020684601F088F908B1FDF7FAFE38684C
:104FE000401C3860012807D1206840F480702060A0
:104FF000206800F480703590286840F00200286036
:1050000028686022309230A900F00200CDE9318694
:105010003396CDE934900C4800F02CF9012214208D
:10502000114600F007FF142000F0F6FE37B0BDE88F
:10503000F083000008000024EC44025800A0004067
:105040000000025800A4004000040258704700000D
:1050500030B51349044600688DB00AAD88420BD1C3
:1050600040212B466A462046FFF7A0FB012803D0CB
:105070000C48C168684688470B49206888420CD1B3
:1050800040212B466A462046FFF790FB012804D0BA
:1050900004481030C168684688470DB030BD000034
:1050A00000A000401400002400A40040704790F8C5
:1050B0009810012907D0D0F89C1041F00401C0F8E5
:1050C0009C1001207047022180F8981001688A69BD
:1050D00022F001028A610021C0F89C100020704774
:1050E0007047704770477047704770477047704708
:1050F000704770472DE9F04F00235D4C00297DD0AB
:105100004FF0B04A4FF0010E4FF00F090EFA03F7BF
:1051100007EA010CBCF1000F71D023F0030202F189
:10512000B045D5F808249E074FEA167809FA08F624
:1051300006EA020BA0F1B042B2F500327BD0A0F13A
:10514000B042B2F501327ED0A0F1B042B2F50232E7
:105150007BD0A0F1B042B2F5033278D0A0F1B042DA
:10516000B2F5043275D0A0F1B042B2F5053272D07A
:10517000A0F1B042B2F5063272D0A0F1B042B2F561
:1051800007326FD0A0F1B042B2F508326CD0A0F176
:10519000B042B2F5093269D00A2202FA08F25A4541
:1051A00018D1226822EA0C022260626822EA0C020C
:1051B0006260DAF8042022EA0C02CAF80420DAF865
:1051C000002022EA0C02CAF80020D5F80824B243D5
:1051D000C5F80824D0F800C05D000322AA404CEABC
:1051E000020CC0F800C04FEAD30C00EB8C0CDCF8CA
:1051F00020505E07F60E09FA06F601E019E013E00A
:10520000B543CCF82050D0F80CC02CEA020CC0F802
:105210000CC0D0F804C02CEA070CC0F804C0D0F8C9
:1052200008C02CEA020282605B1C31FA03F27FF4B0
:105230006DAFBDE8F08F04E005E006E007E008E0B0
:1052400009E00022A9E70122A7E70222A5E703223D
:10525000A3E70422A1E705229FE701E002E003E0C3
:1052600006229AE7072298E7082296E7092294E7A0
:10527000800000582DE9F84F0022DFF8E4C10B68E8
:10528000002B7DD0DFF8DCB14FF0B04A4FF0010EBB
:105290004FF003084FF00F090B680EFA02F52B4090
:1052A000002B6ED00C7904F00304012C01D0022CE9
:1052B00011D18668540008FA04F7BE43CF6807FA94
:1052C00004F4344384604468AC430D79C5F300159D
:1052D00095402C4344604C6838EA040409D0C56802
:1052E000540008FA04F6B5438E6806FA04F42C4319
:1052F000C4600C7904F00304022C0DD1D40800EB37
:1053000084052E6A5407E40E09FA04F7BE430F69B8
:1053100007FA04F434432C620568540008FA04F6D2
:10532000B5430E7906F0030606FA04F42C43046034
:105330004C6814F4403F78D0DBF8004044F002049D
:10534000CBF80040DBF8004004F00204009422F0A7
:10535000030404F1B046D6F8084495072D0F09FA66
:1053600005F724EA0707A0F1B044B4F5003463D090
:10537000A0F1B044B4F5013460D0A0F1B04401E034
:1053800058E052E0B4F502345AD0A0F1B044B4F57C
:10539000033457D0A0F1B044B4F5043454D0A0F194
:1053A000B044B4F5053451D0A0F1B044B4F506349E
:1053B0004ED0A0F1B044B4F507344BD0A0F1B044C6
:1053C000B4F5083448D0A0F1B044B4F5093445D060
:1053D0000A24AC403C43C6F80844DAF800409C4339
:1053E0004D6815F4801F00D01C43CAF80040DAF85D
:1053F00004409C434D6815F4001F00D01C43CAF8BC
:105400000440DCF804409C434D6815F4003F00D094
:105410001C43CCF80440DCF800409C434D6815F474
:10542000803F00D01C43CCF80040521C0B68D34096
:105430007FF432AFBDE8F88F0024CAE70124C8E743
:105440000224C6E70324C4E70424C2E70524C0E716
:105450000624BEE70724BCE70824BAE70924B8E716
:1054600080000058F4440258002A01D0816170473E
:10547000090481617047000001480068000C704712
:105480000010005C0148806870470000000700249D
:1054900090F84120202A01D00220704790F8402047
:1054A000012A20D0012280F84020242280F84120C7
:1054B0000268136823F0010313600268136823F481
:1054C00080531360026813681943116001680A6809
:1054D00042F001020A60202180F84110002180F88A
:1054E0004010002070470220704790F84120202A89
:1054F00001D00220704790F84020012A1ED00122DE
:1055000080F84020242280F841200268136823F0AC
:10551000010313600268136823F4706343EA0121F6
:10552000116001680A6842F001020A60202180F8D7
:105530004110002180F84010002070470220704781
:1055400010B50446002C14D0242084F841002068B3
:10555000016821F001010160204600F0D5FA002029
:10556000606484F84100206384F8420084F84000BD
:1055700010BD012010BD026891691268436B002BB9
:1055800000D01847704790F84100704770B5044646
:10559000002C04D094F84100002510B106E0012051
:1055A00070BD84F84050204600F0EAFA242084F8C8
:1055B00041002068016821F001010160606820F06D
:1055C0007061206801612068816821F40041816078
:1055D000E068012833D02168A06840F40440886066
:1055E000E068022831D02068416821F40061416000
:1055F0002068416841F4004141F000714160206839
:10560000C16821F40041C160616920690843A16952
:1056100040EA01202168C860216AE06908432168E6
:1056200008602068016841F0010101606564202084
:1056300084F84100256384F84250002070BD216841
:10564000A06840F400408860CAE72068416841F4DF
:1056500000614160CCE72DE9F04F83B004469246EB
:105660001D464FF0000BCDF808B094F841002028FB
:1056700003D003B00220BDE8F08F2068806910F4E9
:10568000004F03D003B00220BDE8F08F94F8400033
:1056900001282AD0012084F84000242084F8410009
:1056A000C4F844B0C1F3090020F480614FF0200930
:1056B00020F4806041F4005740F4205847F0007710
:1056C00048F00078E068012813D04046216848601F
:1056D000FFF7D8FE064620688169C1F34011806952
:1056E000C0F30010084306D017E003B00220BDE865
:1056F000F08F3846EAE7B5F1FF3F05D0FFF7C2FE6D
:10570000801BA8421AD8CDB120688169C1F340112D
:105710008069C0F300100843EDD02068806910F064
:10572000100F17D000222B4620212046009604F0AF
:1057300055FE30B303B00120BDE8F08F84F84190EE
:10574000606C40F02000606484F840B003B0012039
:10575000BDE8F08F00222B4620212046009604F061
:105760003DFE18B103B00120BDE8F08F2068C0F8FD
:105770001C9084F8419084F840B003B00020BDE84C
:10578000F08F21681020C8612068C0F81C90029832
:10579000401C02900298504594D384F84190606C6C
:1057A00040F02000606484F840B003B00120BDE800
:1057B000F08F00002DE9FF4F83B0044692469B46D0
:1057C000DDF84490DDF84080129F94F841002028D5
:1057D00003D007B00220BDE8F08FB8F1000F18D059
:1057E000B9F1000F15D094F84000012818D001201D
:1057F00084F84000FFF746FE05462046012200954A
:105800001923D10304F0EAFD70B107B00120BDE80F
:10581000F08F4FF40070606407B00120BDE8F08F96
:1058200007B00220BDE8F08F222084F8410040201C
:1058300084F8420000266664C4F82480A4F82A9004
:1058400066635B460499524620460097019504F032
:105850002DFD28B184F8406007B00120BDE8F08F2D
:10586000618D4FF0FF083D48FF290AD94246A4F850
:10587000288004994FF080730090204604F092FD38
:105880000AE0618D21854FF000730090204694F866
:105890002820049904F086FD00223B46042120467E
:1058A000009504F09BFD18B107B00120BDE8F08F12
:1058B0002068406A616A0870606A401C6062208DDE
:1058C000401E80B22085618D491E6185618D29B39E
:1058D00020BB00223B4680212046009504F07EFD3F
:1058E00018B107B00120BDE8F08F608DFF280AD9FC
:1058F0004246A4F8288004994FF080732046009611
:1059000004F050FD0AE0608D20854FF00073009692
:10591000204694F82820049904F044FD608D002866
:10592000BAD12A463946204604F0A3FD18B107B083
:105930000120BDE8F08F20682021C1612068426805
:10594000074B1A40426084F8411084F8426084F8A2
:10595000406007B00020BDE8F08F00000024008008
:1059600000E800FE2DE9FF4F83B0044692469B46B7
:10597000DDF84490DDF84080129F94F84100202823
:1059800003D007B00220BDE8F08FB8F1000F18D0A7
:10599000B9F1000F15D094F84000012818D001206B
:1059A00084F84000FFF76EFD054620460122009571
:1059B0001923D10304F012FD70B107B00120BDE836
:1059C000F08F4FF40070606407B00120BDE8F08FE5
:1059D00007B00220BDE8F08F212084F8410040206C
:1059E00084F8420000266664C4F82480A4F82A9053
:1059F00066635B460499524620460097019504F081
:105A000093FC28B184F8406007B00120BDE8F08F16
:105A1000608D4FF0FF08FF280AD94246A4F828807D
:105A200004994FF080732046009604F0BBFC0AE016
:105A3000608D20854FF000730096204694F8282052
:105A4000049904F0AFFC2A463946204604F042FD92
:105A500018B107B00120BDE8F08F606A21680078B6
:105A60008862606A401C6062608D401E6085208D87
:105A7000401E80B22085618D29B320BB00223B46A9
:105A800080212046009504F0A9FC18B107B0012040
:105A9000BDE8F08F608DFF280AD94246A4F828801F
:105AA00004994FF080732046009604F07BFC0AE0D6
:105AB000608D20854FF000730096204694F82820D2
:105AC000049904F06FFC608D0028BCD12A46394649
:105AD000204604F0CEFC18B107B00120BDE8F08FDD
