:020000040800F2
:10000000A03E0024AD02000841DC0008A1A00008C9
:10001000D9D70008111C00081905010800000000CC
:1000200000000000000000000000000041E900089E
:10003000192F00080000000049E0000801ED000849
:10004000C7020008C7020008C7020008C70200086C
:10005000C7020008C7020008C7020008C70200085C
:10006000C7020008C7020008C7020008F122000802
:100070000123000811230008212300083123000870
:100080004123000851230008C7020008413000083E
:1000900051300008C7020008C7020008C702000864
:1000A000C7020008C7020008C7020008C70200080C
:1000B000C7020008C7020008C7020008C7020008FC
:1000C000C7020008A9A80008C7020008C702000864
:1000D000C7020008A9040108C9040108E9040108CD
:1000E000C7020008C702000800000000C70200089D
:1000F000F9F10008E9F10008C702000861230008CF
:10010000C7020008C7020008C7020008C7020008AB
:10011000D1F70008F1F70008C7020008C70200087D
:10012000712300088123000891230008A1230008FF
:10013000B1230008C7020008C7020008C702000870
:1001400000000000000000000000000000000000AF
:10015000C1230008D1230008C702000809050108CF
:10016000C7020008C7020008C7020008C70200084B
:10017000C7020008C7020008C7020008C70200083B
:10018000C7020008C702000811F8000831F800088B
:10019000C7020008C7020008C7020008C70200081B
:1001A000C7020008C7020008C7020008C70200080B
:1001B000C7020008C7020008C7020008C7020008FB
:1001C000C7020008C7020008C7020008C7020008EB
:1001D000C7020008C7020008C7020008C7020008DB
:1001E000C7020008C7020008C7020008C7020008CB
:1001F000C7020008C7020008C7020008C7020008BB
:10020000C7020008C7020008C7020008C7020008AA
:10021000C7020008C7020008C7020008C70200089A
:10022000C7020008C7020008C7020008000000005B
:10023000C7020008C702000800000000C70200084B
:10024000C7020008C7020008C7020008C70200086A
:10025000C7020008C7020008C7020008C70200085A
:10026000C7020008C7020008C7020008C70200084A
:10027000C7020008C7020008C7020008000000000B
:10028000C7020008C7020008C702000800000000FB
:1002900000000000C7020008DFF80CD000F068FA88
:1002A00000480047810F0108A03E0024064880470F
:1002B00006480047FEE7FEE7FEE7FEE7FEE7FEE74B
:1002C000FEE7FEE7FEE7FEE709EE000899020008F8
:1002D0002DE9F05F0546002092469B46884606467B
:1002E000814640241BE0284641464746224600F00E
:1002F00077F853465A46C01A914110D31146184612
:10030000224600F05EF82D1A67EB01084F462246A0
:100310000120002100F055F817EB00094E41201E86
:10032000A4F10104DFDC484631462A464346BDE8D5
:10033000F09F10B5431A934209D28318881803E03E
:1003400010F8011D03F8011D521EF9D210BD40EA3C
:1003500001039B0703D009E008C9121F08C0042A43
:10036000FAD203E011F8013B00F8013B521EF9D22A
:1003700010BDD2B201E000F8012B491EFBD270473C
:100380000022F6E710B513460A4604461946FFF761
:10039000F0FF204610BD30B50B460146002020225C
:1003A000012409E021FA02F59D4205D303FA02F582
:1003B000491B04FA02F52844151EA2F10102F1DCE2
:1003C00030BD202A04DB203A00FA02F100207047F9
:1003D0009140C2F1200320FA03F319439040704783
:1003E000202A04DB203A21FA02F00021704721FA8A
:1003F00002F3D040C2F120029140084319467047F1
:100400002DE9FE4F804681EA0300C00F0C460090A4
:1004100021F0004123F00045B8EB0200A94105D2CC
:100420004046214690461C460B46024623F00040BB
:10043000104347D0270DC7F30A00C3F30A510290B7
:10044000401A019040286BDAC3F3130040F4801B7C
:100450000098924620B10023D2EB030A63EB0B0B0A
:1004600001985946C0F140025046FFF7AAFF0646E0
:100470000D4650465946019A00F08CF910EB0800E1
:100480006141002487EA115284EAE7731A4340D09D
:10049000009A62B3019A012A4FEA075215DC001B49
:1004A00061EB02014FF0004202EA0752CDE900423F
:1004B000001C41F5801132462B4600F08CF903B048
:1004C000BDE8F08F40462146F9E7001B61EB0201D1
:1004D000001C41F5801300185B412018A2F500179D
:1004E00047EB030140EAD570B6196D4111E06D0884
:1004F0004FEA360645EAC0754FEA0752001B61EB2A
:100500000201001C41F5801149084FEA3000001932
:10051000514132462B4603B0BDE8F04F00F04CB9D4
:100520000098012240000023D0EB020263EBE0734D
:10053000009821464FEAE074B8EB000061EB04013B
:10054000E9E783F000435BE781F0004158E72DE9DC
:10055000FE4F81EA030404F0004421F000410094BE
:100560004FF0000B23F0004350EA01045ED052EA42
:1005700003045BD0C3F30A54C1F30A552C44A4F21C
:10058000F3340194A0FB0254C1F3130141F4801130
:10059000C3F3130343F4801301FB024400FB034E37
:1005A000840A970A44EA815447EA8357A4FB076800
:1005B00002958D0A05FB07854FEA932C04FB0C542A
:1005C0002705029D4FEA065847EA1637B5EB08059E
:1005D0006EEB070C870E920E47EA811742EA8312F0
:1005E000A7FB0201B6EB0B0164EB00042B0D43EA01
:1005F0000C335E1844EB1C50DA465146E7FB02010F
:10060000C5F313044FEA0B3343EA14534FEA0432A1
:10061000019C43EA0603A4F10C040294009CCDE97A
:1006200000B400F0D8F803B0BDE8F08F0020014618
:10063000F9E72DE9F04D81EA030404F0004B21F0C5
:10064000004514464FF0000A23F0004150EA05022D
:1006500020D054EA01021DD0C5F30A570246C5F363
:100660001303C1F31300C1F30A5640F4801543F499
:100670008013A7EB0608101BD64608F2FD3873EB73
:10068000050002D308F1010801E092185B41B8F1BE
:10069000000F03DA00200146BDE8F08D00204FF482
:1006A0008011064684460EE0171B73EB050705D341
:1006B000121B63EB050306434CEA010C49084FEAA1
:1006C000300092185B4150EA0107EDD152EA030075
:1006D00012D082EA040083EA0501084305D0101B0A
:1006E000AB4106D20122002306E000224FF0004376
:1006F00002E06FF0010253101AEB06004CEB0851B8
:1007000010EB0A0041EB0B01BDE8F04D00F054B8CE
:10071000C1F30A52C1F3130140F2FF3341F48011D7
:100720009A4202DA00200146704740F233439A426F
:10073000A2F2334202DC5242FFF752BEFFF741BE43
:1007400030B5041E71F1000404DB4FF00044404258
:1007500064EB0101141E73F1000405DB1C464FF02D
:100760000043524263EB0403994208BF904230BDFC
:10077000064C074D06E0E06840F0010394E80700EE
:1007800098471034AC42F6D3FFF78AFDC838010809
:10079000E8380108202A06DBCB17203A41FA02F09C
:1007A00043EAE07306E041FA02F3D040C2F12002CE
:1007B000914008431946704710B5141E73F10004A8
:1007C00008DA401C41F1000192185B411A4301D143
:1007D00020F0010010BD2DE9F04D92469B4611B16D
:1007E000B1FA81F202E0B0FA80F220329046FFF7CF
:1007F000E8FD04460F4640EA0A0041EA0B01534671
:100800005A46084313D0114653EA010019D0C8F1E3
:1008100040025046FFF7E4FD05460E465046594655
:100820004246FFF7CEFD084305D0012004E02046F4
:100830003946BDE8F08D0020054346EAE0762C43BA
:1008400037430A986305E40AA0EB08000022FD0A7A
:1008500044EA47540A3002D500200146E9E7010581
:1008600010196941DDE9084500196941BDE8F04DFD
:10087000A2E770B58C1810F8015B15F0070301D1E1
:1008800010F8013B2A1106D110F8012B03E010F8F3
:10089000016B01F8016B5B1EF9D12B0705D4002316
:1008A000521E0DD401F8013BFAE710F8013BCB1AB8
:1008B000921C03E013F8015B01F8015B521EF9D5AD
:1008C000A142D8D3002070BDF0B581B02DED0E8BC4
:1008D000B0EE408A044640F21870C2F2004000F6C2
:1008E0003C0741F22C00C2F2004097ED000AB0F93B
:1008F000766094EDA29AB1EE400AB7EEC00A11F00C
:1009000057F997ED001A94EDA32AB1EE411AB7EE0C
:10091000C93AB7EEC11A20EE039BB7EEC2AAB0EEF9
:10092000410B11F051FA00EE4A9B42F66815C2F2F3
:100930000045B7EEC90B85ED000A97ED000A94ED6E
:10094000A2AAB1EE400AB7EEC00A11F03DFAB0EE2D
:10095000409B97ED000A94EDA31AB1EE400A9FED7B
:1009600048BAB7EEC00AB7EEC1CAB7EECAAA11F0CC
:100970001FF920EE0C0B28EE0B1A9FED3F2B03EE18
:10098000106A09EE0A0BB7EEC11AB8EEC33B42F685
:100990006C16C2F20046B7EEC00B03EE021B86EDEA
:1009A000000AB7EEC10B95ED00BAB7EEC08AB0EE03
:1009B000480B11F009FAB0EE409B96ED00CAB0EE7C
:1009C000480B11F0F5F8B0EE40AB95ED00DAB0EE63
:1009D000480B11F0EDF896ED00EAB7EECD1A20EED7
:1009E00001DBB0EE480B11F0EFF9B7EECE1AB7EE1F
:1009F000CC2A00EE41DBB7EECB0A2AEE021B43F213
:100A00009420C2F20040B7EECD2B09EE001B80ED22
:100A1000002AB7EEC10B94EDA41A32EE403AB1EEC3
:100A2000424A31EE033A34EE404ABDEEC33A31EE6B
:100A3000044A84ED203A30EE423ABDEEC44A31EE2B
:100A4000031A84ED334ABDEEC11A84ED461A94EDC3
:100A5000A41A30EE020A30EE010ABDEEC00A84ED9F
:100A6000590A2046BDEC0E8B01B0BDE8F0400DF0F8
:100A7000CBBF00BF00BF00BF94F6065F984C65BFB8
:100A800003FA8EBC000000002DE9F04F81B09846BB
:100A900091460F4682460AF5C07B4FF6D064CFF6EA
:100AA000FF7440F201265D46B0B200900BEB0400EB
:100AB0000021002202230DF037F897EC030AD7ED4E
:100AC000081A284600F0D8FD01362C354C34EBD1FD
:100AD00099EC030AD9ED081A0AF50C7000F0CCFD68
:100AE00098EC030AD8ED081A0AF5177000F0C4FD57
:100AF0004FF07E50CAE9A700CAF8A40201B0BDE8D1
:100B0000F08F0000000000002DE9F04182B01F4688
:100B100015460E46044640F20120009004F198006C
:100B20004FF000080021002201230CF0FDFF40F2ED
:100B30000220009004F1E4000021002201230CF0C7
:100B4000F3FF40F2032000902046002102220123FF
:100B50000CF0EAFF97EC030AD7ED081A04F14C00F9
:100B600000F08AFD96EC030AD6ED081A04F5987099
:100B700000F082FD95EC030AD5ED081A04F5AE707D
:100B800000F07AFD4FF4FA50A4F89000282084F881
:100B900093004FF21F40C3F62C60C4F88400A4F801
:100BA0009C814EF6BC10A4F898014EF6BC10CFF60E
:100BB000FF700A30A4F89A0102B0BDE8F08100008D
:100BC00040F2C030C2F20040818B8069012205F002
:100BD000FFBA00000000000040F2C030C2F2004046
:100BE000818B8069002205F0F3BA0000000000004C
:100BF000F0B581B02DED028BFFF7EEFF802000F005
:100C0000D7FC552000F0D4FC552000F0D1FC42F672
:100C10003C64C2F200442070FFF7D2FF9FED4E8A81
:100C2000B0EE480A02F068F8FFF7D6FF802000F027
:100C3000BFFC552000F0BCFC552000F0B9FC207032
:100C4000FFF7BEFFB0EE480A02F056F8FFF7C4FF08
:100C50007E20B62100F0C4FCFFF7B2FF9FED3F0AF3
:100C600002F04AF8FFF7B8FF802000F0A1FC552001
:100C700000F09EFC552000F09BFC2070FFF7A0FFC9
:100C8000B0EE480A02F038F8FFF7A6FF802000F027
:100C90008FFC552000F08CFC552000F089FC207062
:100CA000FFF78EFFB0EE480A02F026F820781E28E3
:100CB0004CD143F29825C2F200450020287043F23F
:100CC0006046C0F601069FED248A41F2DC77C2F24D
:100CD000004700BFFFF780FF287800EB4001705C01
:100CE0003144497800F07CFCFFF76AFFB0EE480A17
:100CF00002F002F8FFF770FF287800EB4000305C4C
:100D000040F0800000F054FC552000F051FC5520CC
:100D100000F04EFC2070FFF753FFB0EE480A01F0E0
:100D2000EBFF287800EB40003044417822788A427B
:100D30001FBF8078397808433870287800F10100A7
:100D40002870C0B20628C5D3002000E0FF20BDEC0B
:100D5000028B01B0F0BD00BF6F12833A0AD7A33DEA
:100D60002DE9F04F81B02DED108B88B00020CDE93A
:100D7000060002F005F840F20874C2F2004484ED67
:100D8000000A01F0FDFF94ED001AB2EE08CA30EE41
:100D9000410AB4EECC0AF1EE10FA00F30F829FED97
:100DA0008CEA9FED8C8A40F2C037C2F200470DF109
:100DB000180B40F21005C2F2004540F2F866C2F28C
:100DC000004603ACE84640F2FC69C2F20049B6EEC8
:100DD00000DA9FED81FAF4EE008AF3EE079ADFED78
:100DE0007FAADFED7FBADFED7FCADFED7FDADFEDCF
:100DF0007FFA9FED7F9AF0EE4EEA00BFB0EE480A10
:100E000001F07AFF4FF0000AC7E91BAAC7E91DAA43
:100E1000FFF7E2FE922000F0CBFB1220594606229B
:100E200000F0A2FBFFF7CCFE9DF818009DF819100A
:100E300040EA012000B295ED000A01EE100AB8EE7A
:100E4000C11A20EE010A87ED120A9DF81A009DF8DA
:100E50001B1040EA012095ED000A00B201EE100AD5
:100E6000B8EEC11A20EE010A87ED130A9DF81C00A6
:100E70009DF81D1040EA012095ED000A00B201EE38
:100E8000100AB8EEC11A20EE010A87ED140A97ED98
:100E9000121A97ED132A22EE02BA01EE01BA00EE01
:100EA00000BAB0EE4B0A11F0E2F8B0EE40AAB4EE90
:100EB0004AAAF1EE10FA05D0B0EE4B0A11F0D7F8BD
:100EC000B0EE40AA97ED1E0A3AEE000A87ED1E0A20
:100ED00000F0B2F900205946082200F045FB00F06E
:100EE0009FF99DF818000F2844D19DF81A009DF82D
:100EF0001B1040EA012000B240F21401C2F200418E
:100F000091ED000A01EE100AB8EEC11A20EE011AA6
:100F100087ED151A97ED1B2A32EE011A87ED1B1A81
:100F20009DF81C009DF81D1040EA012000B201EE62
:100F3000100AB8EEC11A20EE011A87ED161A97EDC5
:100F40001C2A32EE011A87ED1C1A9DF81E009DF82E
:100F50001F1040EA012000B201EE100AB8EEC11ADB
:100F600020EE010A87ED170A97ED1D1A31EE000AEF
:100F700087ED1D0A5FEA0A403CD0002021183A188C
:100F800092ED150A91ED001AB4EEC10AF1EE10FAD5
:100F9000C8BF81ED000A08EB000191ED001AB4EE24
:100FA000C10AF1EE10FAB8BF81ED000A00F10400A9
:100FB0000C28E3D1B4EECEAAF1EE10FAB8BFB0EE31
:100FC0004AEAB4EEEEAAF1EE10FA7AFE2EEA1FE03B
:100FD000000000000AD7A33B00001644CDCC4C3FD4
:100FE000CDCC1CC16666663F9A99993E9A99193E86
:100FF0006F12033A07F1540207CA03AB07C307F1A4
:10100000540207CA8DE80700F0EE4AEAB0EE4AEA59
:101010003EEECE0A86ED000A002000BF211808EB44
:10102000000292ED000A91ED001A09EB000131EE89
:10103000400A81ED000A04300C28EFD196ED000A39
:10104000B4EECD0AF1EE10FADEBF99ED000AB4EE6F
:10105000EF0AF1EE10FA19DC99ED010AB4EEEF0A8D
:10106000F1EE10FADEBF99ED020AB4EEEF0AF1EEEE
:1010700010FA0BDCB0EE490A01F03EFE0AF1010A5B
:101080001FFA8AF0B0F5167FFFF4C2AE97ED1E0A84
:1010900080EE0F0A87ED1E0A002000BF391891ED7F
:1010A0001B0A80EE0F0A81ED1B0A04300C28F5D1D3
:1010B000FFF792FDA22000F07BFA2220594602227F
:1010C00000F052FAFFF77CFD9DF818009DF819100A
:1010D000490941EAC0000021B1EB902F4FF6000111
:1010E000CFF6FF7118BF084300EE100AB8EEC00A31
:1010F000B0EE691A00EE281A87ED181A41F2D47082
:10110000C2F20040014608880130088096ED000ACE
:10111000B4EEEA0AF1EE10FA40DC97ED1E0A30EE6A
:101120002B0A0FF0F1FEB4EEEC0AF1EE10FADEBF7E
:1011300099ED000AB4EEED0AF1EE10FA2EDC99ED0D
:10114000010AB4EEED0AF1EE10FADEBF99ED020AE3
:10115000B4EEED0AF1EE10FA20DC97ED1B0A0FF069
:10116000D3FE9FED2D1AB4EEC10AF1EE10FA15DC94
:1011700097ED1C0A0FF0C8FE9FED271AB4EEC10AC6
:10118000F1EE10FA0ADC97ED1D0A0FF0BDFE9FED9F
:10119000221AB4EEC10AF1EE10FA2BDD01F0F0FDD7
:1011A00040F20870C2F2004090ED001A30EE410AA1
:1011B000B4EECC0AF1EE10FA7FF720AE40F2C03068
:1011C000C2F200404FF6F221CBF6883147F6771293
:1011D000CBF6AB324CF6E133CBF6961340F62C1738
:1011E000C4F2241700F16C0C8CE88E000021C4F2CC
:1011F0008C21016640F2C030C2F200409FED070A28
:1012000090ED1E1A80EE010A80ED1A0A08B0BDECBE
:10121000108B01B0BDE8F08F8FC2F53CC3F51C41C7
:1012200040F2C030C2F20040B0F84010C06B012262
:1012300004F0CEBF0000000040F2C030C2F2004017
:10124000B0F84010C06B002204F0C2BF00000000E4
:101250002DE9F0412DED028BFFF7EEFF0024002079
:1012600000F096F9FFF7DCFF9FED468AB0EE480AE2
:1012700001F042FDFFF7E0FF002000F089F9FFF7E1
:10128000CFFFB0EE480A01F037FDFFF7D5FF14207D
:10129000B62100F0A5F9FFF7C3FF9FED3B0A01F06F
:1012A0002BFDFFF7C9FF002000F072F9FFF7B8FF30
:1012B000B0EE480A01F020FDFFF7BEFF002000F06D
:1012C00067F9FFF7ADFFB0EE480A01F015FD42F6F1
:1012D0003C65C2F2004528780F281EBFFF20BDECF8
:1012E000028BBDE8F08143F29826C2F200463470CA
:1012F00043F27244C0F601049FED228A43F2604833
:10130000C0F6010841F2DC77C2F20047FFF794FF14
:10131000307800EB4001605C2144497800F060F9CE
:10132000FFF77EFFB0EE480A01F0E6FCFFF784FF0E
:10133000307800EB4000205C00F02AF9FFF770FFE6
:10134000B0EE480A01F0D8FC307800EB40012144AF
:1013500049782A788A420AD001383070C1B24900EF
:1013600051FA80F0404480783978084338703078FA
:1013700001303070C0B20628C8D30020BDEC028B0B
:10138000BDE8F0816F12833A0AD7A33D0000000048
:1013900070B542F28404C2F2004440F2C035C2F299
:1013A000004500262046294600220DF075FA05F179
:1013B0002401204600220DF06FFA41F2DC74C2F2E3
:1013C00000442670FFF714FC217808432070FFF7D3
:1013D0003FFF217808432070FFF7C2FC207870BDE2
:1013E000F0B581B00446FFF7F7FB922000F0E0F87B
:1013F00040F20E75C2F2004512202946062200F086
:10140000B3F8FFF7DDFB2878697840EA01202087F0
:1014100000B240F21001C2F2004191ED000A94EDD9
:10142000081A02EE100AB8EEC22A20EE020A21EED5
:10143000000A84ED000AA878EA7840EA0220608772
:1014400000B291ED000A94ED081A02EE100AB8EE0F
:10145000C22A20EE020A21EE000A84ED010A287950
:101460006A7940EA022040F20C76C2F200463080EF
:10147000A08700B291ED000A94ED081A02EE100A5E
:10148000B8EEC22A20EE020A21EE000A84ED020A1A
:10149000FFF7D2FE002700202946082200F064F85A
:1014A000FFF7BEFE28780F2838D1A878E97840EAFF
:1014B0000120E08700B240F21401C2F2004191ED38
:1014C000000A94ED091A02EE100AB8EEC22A10EED4
:1014D000021A84ED031A2879697940EA0120A4F8F8
:1014E000400000B294ED0A1A02EE100AB8EEC22AC9
:1014F00010EE021A84ED041AA879E97940EA012075
:101500003080A4F8420000B294ED0B1A02EE100AEB
:10151000B8EEC22A10EE021A84ED051AFFF75CFB42
:10152000A22000F045F822202946022200F01CF8F3
:10153000FFF746FB28786978490941EAC000B7EB14
:10154000902F18BF40F4784001B200EE101AB4EEAC
:10155000001AB3EE072AB8EEC00A308000EE012A66
:1015600084ED072A01B0F0BDB0B514460D4640F039
:10157000800000F01DF8002C08BFB0BD552000F021
:1015800017F805F8010B013C14F0FF0FF6D1B0BDC0
:1015900080B540F0800000F00BF8552000F008F80E
:1015A00042F63C61C2F20041087080BD00000000BC
:1015B00080B582B08DF8070042F67C60C2F2004030
:1015C00040684FF47A7100910DF107010DF10602A8
:1015D000012306F035FF9DF8060002B080BD000033
:1015E00010B50C46FFF7E4FF2046BDE81040FFF7BA
:1015F000DFBF00000000000010B52DED028B044697
:1016000030EE608A84ED038A94ED000A28EE000A29
:1016100084ED050A94ED010A94ED061A08EE001A0D
:1016200084ED061AB7EEC80A10F0C2FB94ED081A52
:10163000B7EEC11AB4EEC10BF1EE10FAC4BF002030
:10164000A06194ED020A94ED091A38EE411A20EED9
:10165000412A84ED072A94ED052A94ED063A20EEFE
:10166000010A32EE031A31EE400A84ED098A84ED54
:101670000A0ABDEC028B10BDC0ED081A80EC030A0B
:101680000021C0E90511C1617047000000000000A1
:1016900010B52DED028B044630EE608A84ED038A8E
:1016A00094ED000A28EE000A84ED050A94ED010A83
:1016B00094ED061A08EE001A84ED061AB7EEC80A71
:1016C00010F076FB94ED081AB7EEC11AB4EEC10B18
:1016D000F1EE10FAC4BF0020A06194ED020A94ED6F
:1016E000091A38EE411A20EE412A84ED072A94EDBA
:1016F000052A94ED063A20EE010A32EE031A31EE85
:10170000400A84ED0A0ABDEEC00A84ED098A10EE93
:10171000100ABDEC028B10BD92ED001A92ED012A69
:1017200092ED023A92ED034AB6EE000A23EE025A17
:1017300090ED006A90ED017AD0ED020AF0EE401AC9
:1017400043EE431A04EE415A23EE011A44EE441AC2
:1017500027EE053A04EE021A06EE213A01EE203A8F
:1017600033EE031A81ED001A92ED001A92ED012A70
:1017700092ED023A92ED034AB0EE405A02EE425A1E
:1017800090ED006A90ED017AD0ED020A61EE041A44
:1017900004EE445A23EE044A42EE031A25EE073AB9
:1017A00002EE414A06EE213A04EE203A33EE031AE5
:1017B00081ED011A92ED001A92ED012A92ED023AA2
:1017C00092ED034A24EE035A90ED006A90ED017AFF
:1017D000D0ED020A22EE044A02EE015A02EE420A5B
:1017E00001EE434A25EE071A03EE430A06EE041AF9
:1017F00000EE201A31EE010A81ED020A7047000066
:10180000F0B581B004460878AB2840F08B8048786A
:10181000A0718A78E271012804BF487BDD2840F07E
:10182000818000256580087B04EB8000406A20628F
:10183000087B04EB8000D0F82804C4F824040120BD
:101840002070C8780A7900F03F034FF0640C13FB56
:101850000C229FED370ABFEE001AB7EE002A03EE06
:10186000102AB8EEC33A10F0C00F02FE014A83EE10
:10187000003A24EE033A84ED043A48798A7900F07C
:101880003F0313FB0C2203EE102AB8EEC33A10F00C
:10189000C00F02FE011A83EE000A21EE000A84ED59
:1018A000030AC879B2EE040A01EE100AB8EE411A32
:1018B00081EE000A84ED050A087A84F82908C87ABE
:1018C0002076657642F67010C2F20040C07A022897
:1018D00028D104F2244641F22C07C2F2004797EDCA
:1018E000120A97ED151A30EE410AB7EEC00A10F051
:1018F0005FFA9FED0D1BB4EEC10BF1EE10FAB8BF0D
:101900000125657694ED040A94ED081A31EE000A7B
:1019100087ED120A94ED030A96ED001A31EE000AE3
:1019200087ED000A01B0F0BD9A9999999999D93F2C
:101930000000C8420000000080B5014640F274403B
:10194000C2F200400022C28042F6F460C2F20040BF
:10195000428A0132428240F21870C2F20040FFF720
:101960004FFF002080BD00002DE9F04381B00D46FF
:1019700004462878AA2840F09B806878C0EBC00114
:1019800029448978DD2940F0938084F84C0820B9F7
:1019900004F64D008C21FEF7F3FC94F8440802286D
:1019A0001CBF002084F8440894F84C08002800F07C
:1019B0007F8004F64D09291D04F6B402002348F681
:1019C000396CC3F6E30C4FF001084FF0640E9FED45
:1019D0003A0A9FED3A1A00BF94F84468022E1ABFE3
:1019E000B4F8486801360026A4F8486809EB0306F5
:1019F00011F8027CA7FB0C504FEA500000EBC0002E
:101A0000A7EB0000B07211F8010C09F80300087987
:101A100000EB80004FEA400002EE100AB8EEC22A46
:101A200082ED002A0E78B8EB961F0DD0B00918D1C0
:101A3000487806F03F0515FB0E0002EE100AB8EEDE
:101A4000C22A82EE012A0AE0487806F03F0515FB1B
:101A50000E0002EE100AB8EEC22A82EE002A02ED53
:101A60000A2A8E78B8EB961F0ED0B00919D1C87823
:101A700006F03F0515FB0E0002EE100AB8EEC22A72
:101A800082EE012A0BE000BFC87806F03F0515FB87
:101A90000E0002EE100AB8EEC22A82EE002A02ED13
:101AA000142A07310432013394F84C08834293DB43
:101AB00001B0BDE8F08300BF0000C8C20000C8420A
:101AC00080B5014642F6F460C2F20040428B01321A
:101AD000428340F21870C2F20040FFF745FF002039
:101AE00080BD0000000000000A78AA2A70D14A7860
:101AF00080F832288A7880F833288A7880F82C2871
:101B000090F83228012A18BF704780B5CB7891F839
:101B100004E003F03F024FF0640C12FB0CE29FED77
:101B20002D0A01EE102ABFEE002AB7EE003AB8EEF9
:101B3000C11A9FED294A13F0C00F03FE025A81EE2D
:101B4000001A25EE011AB0EE085A21EE041A21EE11
:101B5000051ABDEEC11A11EE102AA0F838284A79EC
:101B600091F806E002F03F0313FB0CE301EE103A9C
:101B7000B8EEC11A12F0C00F02FE036A81EE001A1D
:101B800026EE011A21EE041A21EE051ABDEEC11A45
:101B900011EE102AA0F83628CA7991F808E002F070
:101BA0003F0313FB0CE301EE103AB8EEC11A12F03A
:101BB000C00F03FE022A81EE000A00F63C0222EE6C
:101BC000000A82ED000A497A80F84018BDE880409A
:101BD000704700BF0000C84200408F440000000072
:101BE00080B5014640F27440C2F2004000224281BA
:101BF00042F6F460C2F20040828A0132828240F2F0
:101C00001870C2F20040FFF76FFF002080BD000097
:101C1000FEE70000000000002DE9F04F8FB040F219
:101C20005443C2F20043D3E900C10E9199680D916B
:101C3000DB68D0E900EB00F1080A9AE8E007D0E998
:101C40000841D0E90A20CDE90841CDE90A20CDE9D3
:101C500000EB02A880E8E0076046DDE90D210BF00B
:101C6000B3FF00200FB0BDE8F08F000000000000BF
:101C70002DE9F04F8FB040F26443C2F20043D3E944
:101C800000C10E9199680D91DB68D0E900EB00F17D
:101C9000080A9AE8E007D0E90841D0E90A20CDE92E
:101CA0000841CDE90A20CDE900EB02A880E8E00771
:101CB0006046DDE90D210BF087FF00200FB0BDE885
:101CC000F08F00000000000010B588B0044600202E
:101CD000CDE90000022102910121CDE90310059018
:101CE0002068694603F024FC20680121002203F0EB
:101CF00093FB206804F0C0F808B010BD000000009D
:101D0000021D084611460FF037B900000000000020
:101D100080B58AB00A4652F8041B01910021CDE932
:101D200002110823CDE90811CDE90611CDE90431EE
:101D3000006801A903F0C4FBB0FA80F040090AB0C2
:101D400080BD000000000000DDE90B1241F6F063E9
:101D5000C2F20043984207D041F69073C2F20043AA
:101D600098420BD000207047A2F2012080B20328D5
:101D700018D840F21C50C2F2004008E0A2F2012044
:101D800080B2032818D840F22850C2F2004000EB7D
:101D900042000A0A4FF60243CFF6FF73C2546FF4B3
:101DA0007F721EE0A2F2052080B20328DAD840F24A
:101DB0000450C2F2004008E0A2F2052080B20328DD
:101DC00012D840F21050C2F2004000EB42000A0A62
:101DD0004FF6FA33CFF6FF73C2544FF6FB32CFF60D
:101DE000FF72815400207047A2F2092080B20228BD
:101DF000B8D840F24050C2F2004000EB42000A0A5C
:101E00004FF6F233CFF6FF73C2544FF6F332CFF6EC
:101E1000FF72815400207047DDE90B1241F6F06338
:101E2000C2F20043984207D041F69073C2F20043D9
:101E300098420BD000207047A2F2052080B2032800
:101E400018D840F20450C2F2004008E0A2F2052087
:101E500080B2032826D840F21050C2F2004000EBB6
:101E600042000A0A4FF6FA33CFF6FF73C2544FF618
:101E7000FB3212E0A2F2092080B20228DAD840F246
:101E80003450C2F2004000EB42000A0A4FF6F2332F
:101E9000CFF6FF73C2544FF6F332CFF6FF72815480
:101EA00000207047A2F2092080B20228C2D840F276
:101EB0004050C2F2004000EB42000A0A4FF6F233F3
:101EC000CFF6FF73C2544FF6F332CFF6FF72815450
:101ED00000207047000000000188418107990ABA7C
:101EE000120C02814FF47F4202EA112242EA116190
:101EF000418008990ABA120C8280090C817101890B
:101F0000018000207047000002684AF20043C4F2DA
:101F100000039A420BD04AF20003C4F200039A4233
:101F200018BF704740F25442C2F2004203E040F250
:101F30006442C2F2004202F10C0310601960704763
:101F400070B52DED068B0D46044600F019F904F628
:101F500044010A18527AC2EB02121E2303EB8202DA
:101F600001EB800090ED120A01EE102AB8EEC11AC2
:101F700041F21C70C2F2004030EE010A80ED000A0E
:101F80009FED771A95ED152A43F29C21C2F200418C
:101F900031EE422AB1EE041A81ED002A41F22C05FD
:101FA000C2F2004520EE014A32EE025A32EE003A09
:101FB00095ED091A9FED6B6AB4EEC63AF1EE10FA90
:101FC0002BDA9FED6D2A35EE022AB4EEC24AF1EE0D
:101FD00010FA58DAB0EE0C0BB7EEC32AB7EEC11AFE
:101FE00082EE002B32EE011BB7EEC11B85ED091A04
:101FF00090ED001A91ED002A95ED123A32EE011A99
:10200000B7EEC11AB0EE042BB7EEC33A81EE000B67
:1020100000EE023BB7EEC30B4AE09FED533A35EEBC
:10202000444A34EE033AB5EEC03AF1EE10FA35DA2E
:102030009FED503A32EE432A30EE020AB0EE0C2BFE
:10204000B7EEC00AB7EEC11A80EE020B31EE000BFC
:10205000B7EEC00B85ED090A91ED000A90ED001A6C
:1020600030EE430A95ED123A31EE000AB7EEC00A9F
:10207000B0EE041BB7EEC33A80EE020B00EE013B5C
:10208000B7EEC30B14E0B3EE052A30EE022A9FED43
:102090003B0A31EE021A85ED091A09E09FED332A59
:1020A00030EE022A9FED320A31EE021A85ED091A4E
:1020B00085ED120A04F6640696ED000A04F6B404EF
:1020C000B1EE400A9FED1C8B94ED009AB7EEC00A6A
:1020D00080EE080B0FF078FE96ED001A94ED002AC2
:1020E000B1EE411A9FED163BB7EEC94A9FED169B24
:1020F000B7EEC11AB7EEC22A9FED15AB84EE034BC3
:1021000081EE081B82EE038B04EE009BB0EE410BC8
:102110000FF04EFD08EE00AB89EE0A0B0FF054FAFB
:102120009FED0D1B20EE010BB7EEC00B85ED000AF5
:10213000BDEC068B70BD00BF6666666666A64C4049
:102140000000000000408F408FC2F5285C8FB2BFB6
:10215000B81E85EB51B8AE3F6666666666A64CC093
:102160000000B4420000344300402144000044C356
:10217000000094C20000B44300000CC300008A4277
:102180002DE9F04390F84C1801291CBF90F84C1829
:10219000002903D10024E0B2BDE8F0839FED346A4A
:1021A00000F6570C00F6B40290F84C9842F608532B
:1021B000C2F2004393F87C1000270FF2B80E9FED97
:1021C0002F0A0FF2BC089FED331A9FED2F2A9FEDC7
:1021D0002F3A9FED2F4A0024B0EE465A3E461CF897
:1021E000067003EB470505F11000002F08BF03F14F
:1021F0001E0005F1240508BF03F132050A2988BF36
:102200000546288892ED006A6428704638BF04307D
:10221000B4EEC06AF1EE10FA4546C8BF043595ED3C
:10222000006A90ED007A36EE477A042F17D8DFE87F
:1022300007F013191C030300771C87FE456AB4EEF0
:10224000C57AF1EE10FAB8BF344604324F45A4BF48
:10225000E0B2BDE8F083BFE737EE027AECE737EE95
:10226000017AE9E737EE037AE6E737EE047AE3E747
:1022700000401C460000000000007A4400409C45DD
:10228000000000000000FA440000C8C2000048C37B
:102290000000FAC30000C84291ED010A91ED021A54
:1022A00090ED012A90ED023A22EE011A03EE401A57
:1022B00082ED001A91ED000A91ED021A90ED002ACC
:1022C00090ED023A23EE000A02EE410A82ED010A85
:1022D00091ED000A91ED011A90ED002A90ED013A7E
:1022E00022EE011A03EE401A82ED021A7047000036
:1022F00041F6A830C2F2004001F086BD00000000A7
:1023000041F6C810C2F2004001F07EBD000000009E
:1023100041F62040C2F2004001F076BD000000000E
:1023200041F69840C2F2004001F06EBD000000008E
:1023300041F61050C2F2004001F066BD00000000FE
:1023400041F68850C2F2004001F05EBD000000007E
:1023500041F60060C2F2004001F056BD00000000EE
:1023600041F67860C2F2004001F04EBD000000006E
:1023700041F2E870C2F2004001F046BD00000000EA
:1023800041F66000C2F2004001F03EBD00000000D6
:1023900041F64020C2F2004001F036BD00000000CE
:1023A00041F6D800C2F2004001F02EBD000000004E
:1023B00041F65010C2F2004001F026BD00000000BE
:1023C00041F6B820C2F2004001F01EBD000000003E
:1023D00041F63030C2F2004001F016BD00000000AE
:1023E0000168B722C4F20202914213DD40F2574263
:1023F000C4F2020291421EDC40F22742C4F2020201
:10240000914233DCB822C4F2020291424AD040F237
:10241000104243E05722C4F2020291421ADD8722A1
:10242000C4F2020291422ADC5822C4F20202914212
:1024300038D0702232E040F28742C4F20202914268
:1024400024DC40F25842C4F2020291422AD040F207
:10245000704223E01022C4F2020291421EBF2822E1
:10246000C4F2020291421DD0402217E040F22842FD
:10247000C4F20202914215D040F240420EE088229E
:10248000C4F2020291420DD0A02207E040F2A04225
:10249000C4F20202914205D040F28842C4F2020224
:1024A00091421BD1D0F800C06FF00F0151FA8CF3AC
:1024B0004AF6AB21CAF6AA21A3FB0112C2F302110C
:1024C0000CA2515CC16540F2FF312CEA01015F2B87
:1024D00088BF41F00401816508467047D0F800C00C
:1024E00040F2B843C4F202039942DDD02CF0FF0160
:1024F000F1E700BF000610160006101600000000ED
:1025000010B5026845F29441C5F6020145F2434315
:10251000C5F602039A420EDD45F26B43C5F602038F
:102520009A4217DC45F24443C5F602039A421DD095
:1025300045F2584316E045F20843C5F602039A42B5
:102540001EBF45F21C43C5F602039A420ED045F267
:10255000304307E045F28043C5F602039A4205D0B6
:1025600045F26C43C5F602039A4217D10378A3F1F2
:1025700008024CF6CD43CCF6CC43A2FB03231B0947
:1025800001F57B7201F55B7101EB830103F01F0321
:10259000012404FA03F360300EC010BD03788A42B0
:1025A000E5D0A3F110014AF6AB23CAF6AA23A1FB9A
:1025B000031C4FF0080E4FEA1C1140F20F44C4F206
:1025C0000204A2420B4688BF0EEB1C13AA34A2429F
:1025D00028BF0B4640F60001C4F2020101F180025F
:1025E000D2E700000000000001790139072988BF07
:1025F000704710B502684FF0010E45F6001CC5F695
:10260000020C40F60013C4F2020345F24344C5F63F
:102610000204A2420EDD45F26B44C5F60204A2425A
:1026200017DC45F24444C5F60204A24226D045F226
:10263000584416E045F20844C5F60204A2421EBF03
:1026400045F21C44C5F60204A24217D045F23044BC
:1026500007E045F26C44C5F60204A2420ED045F2F2
:102660008044C5F60204A24208D04AF66C34CAF28D
:10267000FD742244B2FA82F24FEA521EBEF1000FFC
:1026800003F1400218BF634603EB8103BEF1000F64
:1026900018BF0CF14002012404FA01F1C0E91B3219
:1026A0004167BDE8104070478269816AB2F5005FFA
:1026B00006D06AB9022912D0012915D0D9B90EE085
:1026C000032918D8DFE801F0020B0210012070473F
:1026D00003293CBF012070471CBF0020704790F8C1
:1026E0002F0000F001007047C06AA0F1C070B0FA7E
:1026F00080F0400970470020704700000000000093
:10270000B0B50468D0F858C040F26F4EC4F2020E63
:10271000744516DC9F25C4F20205AC422CDC57251B
:10272000C4F20205AC424FDC1025C4F20205AC42F3
:102730001EBF2825C4F20205AC4200F0858040256A
:102740006BE045F22F45C5F60205AC4227DC40F2AE
:10275000B745C4F20205AC4242DC40F27045C4F217
:102760000205AC421EBF40F28845C4F20205AC42ED
:102770006AD040F2A04550E040F22745C4F202057D
:10278000AC423CDCA025C4F20205AC421EBFB82519
:10279000C4F20205AC4257D040F210453DE045F28C
:1027A0006B45C5F60205AC423CDC45F23045C5F64A
:1027B0000205AC421EBF45F24445C5F60205AC42D7
:1027C00042D045F258453BE05825C4F20205AC42E0
:1027D0001EBF7025C4F20205AC4235D088251CE02E
:1027E00040F2B845C4F20205AC421EBF45F20845AE
:1027F000C5F60205AC4227D045F21C4520E040F268
:102800002845C4F20205AC421EBF40F24045C4F266
:102810000205AC4218D040F25845C4F20205AC4261
:1028200012D01AE045F26C45C5F60205AC421EBF57
:1028300045F29445C5F60205AC4205D045F2804507
:10284000C5F60205AC4208D1D0E919456560C46EF1
:10285000002C1CBFD0E91C4565600468744515DC7C
:102860009F25C4F20205AC422BDC5725C4F20205B9
:10287000AC424EDC1025C4F20205AC421EBF282536
:10288000C4F20205AC4271D040256BE045F22F4501
:10289000C5F60205AC4227DC40F2B745C4F202059A
:1028A000AC4242DC40F27045C4F20205AC421EBFAD
:1028B00040F28845C4F20205AC4257D040F2A04530
:1028C00050E040F22745C4F20205AC423CDCA025B2
:1028D000C4F20205AC421EBFB825C4F20205AC42E8
:1028E00044D040F210453DE045F26B45C5F6020587
:1028F000AC4256DC45F23045C5F60205AC421EBF7F
:1029000045F24445C5F60205AC425DD045F2584556
:1029100055E05825C4F20205AC421EBF7025C4F232
:102920000205AC4222D088251CE040F2B845C4F232
:102930000205AC421AD045F20845C5F60205AC4284
:1029400042D045F21C453AE040F22845C4F2020567
:10295000AC421EBF40F24045C4F20205AC4205D075
:1029600040F25845C4F20205AC4242D1C56D05F0B3
:102970001F053F2404FA05F5CCF8085005682C68BB
:1029800024F480242C6005686B6003688568402D02
:102990000D4608BF15469D6008BF0A460068C26024
:1029A000B0BD45F26C45C5F60205AC421EBF45F20E
:1029B0008045C5F60205AC4206D045F29445C5F601
:1029C0000205AC4218BFB0BDC56D05F01F0501245E
:1029D00004FA05F5CCF8045005686B600368856857
:1029E000402D0D4608BF15469D6008BF0A46006889
:1029F000C260B0BD000000004FF480614180818062
:102A0000C180018103228272C27201800021C181D2
:102A100001824182C0E9261180F83B10A0F83910EC
:102A2000C0F83510C0F83110012280F8A02080F8DD
:102A3000A2107047000000002DE9F041044601207B
:102A400084F888000A784B788D78CE7863F30A2270
:102A5000A2F5B672B2F5A56F98BF02204FF000083C
:102A60004FF0000298BF0122DB0865F34A13A3F57B
:102A7000B673B3F5A56F98BF02464B794FF0FF30A0
:102A800000EB9310032838BF01320F794FF4806CAC
:102A90000CEA8720B60046EA95163043A0F5B670DA
:102AA000B0F5A56F98BF0132C3F3011001380328B8
:102AB00038BF0132780863F3CA10A0F5B670B0F5DC
:102AC000A56F98BF0132D0B2062840F0D98040F2FD
:102AD0007440C2F20040A0F8048042F6F460C2F2F2
:102AE0000040C2890132C281A07A207308784A78F6
:102AF00062F30A20608048788A78C00862F34A103E
:102B0000A0808878CA780B790CEA8323920042EA85
:102B100090101843E08008794A79400862F3CA109F
:102B2000208148798009A0724879C0F30110E072D1
:102B3000087C4A7C62F30A2020806088A0F2FD3085
:102B400080B206289CBF4FF480606080A088A0F20D
:102B5000FD3080B206289CBF4FF48060A080E088E2
:102B6000A0F2FD3080B206289CBF4FF48060E08068
:102B70002089A0F2FD3080B206289CBF4FF480600F
:102B800020818879CA7940EA0220E081087A4A7A6D
:102B900040EA02202082887ACA7A40EA02206082D3
:102BA000087B2075487B6075B4F90E3046F2A81298
:102BB00049F65860CFF6FF70934201DDE28103E0F1
:102BC00083420246B8BFE281B4F9103046F2A8123F
:102BD000934201DD228203E083420246B8BF228293
:102BE000887BCA7B40EA02202083887B00F00100BA
:102BF000A076887BC0F340002077887BC0F38000FC
:102C0000E076887BC0F3C0006077C87BC00984F899
:102C10002700C87BC0F3801084F82200C87BC0F373
:102C2000401084F82500C87BC0F3001084F8290008
:102C3000C87BC0F3C00084F82800C87BC0F38000C4
:102C400084F82400C87BC0F3400084F82300C87BCC
:102C500000F0010084F82600887BC00984F8210078
:102C6000887BC0F3801084F82000887BC0F340107C
:102C7000E077887BC0F30010A07720460BF028F89F
:102C800084F88880BDE8F08180B5014642F6701076
:102C9000C2F200400022FFF7CFFE002080BD0000FE
:102CA00041F21000C2F200400178002918BF7047BD
:102CB00081B04FF00101017041F2040CCEF2000C22
:102CC000DCF800200092009B41F20802C2F20042B0
:102CD00011688B4201B006D241F20C01C2F20041F0
:102CE0000B6801330B60DCF80010116000210170EB
:102CF000704700000000000041F20400CEF2000026
:102D0000016840F6F472C2F2004292ED001AB8EE89
:102D1000411A21EE000A00BF0268521A01EE102A81
:102D2000B8EE411AB4EEC10AF1EE10FAF4DC7047C5
:102D300080B52DED028B82B041F20401CEF200018C
:102D400009680191019940F6F472C2F2004292EDD5
:102D5000000A0268B8EE400A891A019A01EE101AB8
:102D60000260B8EE411A81EE008AFFF799FFB0EEDB
:102D7000480A02B0BDEC028B80BD000000000000DC
:102D800080B500F065F841F21870C2F2004041F2DF
:102D90001071C2F2004191ED000A008841F21471F5
:102DA000C2F20041098801EE101A9FED082A9FED3A
:102DB000083AB8EE411AB8EE400A04EE100AB8EE2E
:102DC000444A01EE020A04EE030A80BD6F12833A00
:102DD000BD378635000000004EF6FC51CEF20001F2
:102DE0000A6842F080720A6041F20001CEF20001EE
:102DF00000224A600B6843F001030B6044F240215B
:102E0000C0F20F01484340F6F471C2F2004108607D
:102E100044F6D351C1F26201A0FB0113990940F6B7
:102E2000F873C2F2004319604DF68361C4F21B319E
:102E3000A0FB0101880C40F6FC71C2F20041086061
:102E400041F20C00C2F200400260FFF729BF00000F
:102E5000F0B581B041F20400CEF2000000680090AD
:102E6000FFF71EFF41F20C00C2F200400068009C18
:102E70004FF0FF310025E0FB014541F20000C2F2B6
:102E80000040C0E9004540F6F470C2F20040066818
:102E90002046294632460023FDF71AFA41F218026D
:102EA000C2F20042C2E90001A0FB062C41F2200759
:102EB000C2F20047A31A01FB06C165EB0101C7E995
:102EC000003141F21072C2F20042106040F6F87414
:102ED000C2F20044226818460023FDF7F9F941F2D6
:102EE0001471C2F20041088080B221684843D7E9DA
:102EF0000012081A62F1000140F6FC72C2F20042B0
:102F000012680023FDF7E4F941F21871C2F20041A2
:102F1000088001B0F0BD0000704700000000000014
:102F200091ED001A91ED010A91ED022A90ED003A1F
:102F300090ED014A90ED025A24EE000A03EE010AD8
:102F400005EE020A70470000C0E900127047000059
:102F500092ED001A92ED012A92ED023A92ED034AA7
:102F6000B6EE000A24EE015A90ED006A90ED017A67
:102F7000D0ED020AF0EE401A43EE431A03EE025A75
:102F800024EE022A44EE441A27EE054A03EE412AB3
:102F900006EE214A02EE204A34EE041A81ED001AB0
:102FA00092ED001A92ED012A92ED023A92ED034A57
:102FB000B0EE405A02EE425A90ED006A90ED017A6E
:102FC000D0ED020A62EE031A04EE445A23EE043AEC
:102FD00041EE441A25EE074A02EE013A06EE214A76
:102FE00003EE204A34EE041A81ED011A92ED001A24
:102FF00092ED012A92ED023A92ED034A24EE035A31
:1030000090ED006A90ED017AD0ED020A61EE031AAC
:1030100002EE415A02EE420A42EE041A25EE071A67
:1030200003EE430A06EE211A00EE201A31EE010AE1
:1030300081ED020A704700007047000000000000A8
:1030400041F6F060C2F2004002F08ABB00000000CE
:1030500041F69070C2F2004002F082BB0000000016
:103060000168426BD1F884C04FF6FC732CEA03036D
:1030700043EA8203C1F884300168D1F88430D0F883
:1030800038C023F47F0343EA0C43C1F8843001685D
:10309000836B1A44D1F888306FF38F0343EA8203BD
:1030A000C1F888300168D1F88830D0F83CC023F4EA
:1030B000FE0343EA0C43C1F888300168C36B02EB9E
:1030C0004302D1F8A0306FF38F0343EA8203C1F8C3
:1030D000A0300168D1F8A030D0F840C023F4FE033E
:1030E00043EA0C43C1F8A0300168D0E910C303FBE8
:1030F0000C22D1F8B0306FF38F0343EA8203C1F89A
:10310000B0300168D1F8B030D0F848C023F4FE03E5
:1031100043EA0C43C1F8B030D0F800C0D0E9123116
:1031200001FB0321DCF8AC206FF38F0242EA81023D
:103130000368C3F8AC20D0F800C0D0E9143202FB19
:103140000311DCF8F0206FF38F0242EA810203687A
:10315000C3F8F0200268D2F8F020D0F800C0836DE8
:1031600022F47C1242EA0342CCF8F0200268836D1C
:1031700001EB4301D2F8C0206FF38F0242EA8101D4
:103180000268C2F8C0100168D1F8C0100268C36DAF
:1031900021F47C1141EA0341C2F8C0100168D1F862
:1031A000C0100268036E21F07C5141EA0361C2F84D
:1031B000C010416B4AF60042C4F2000202EB8101EA
:1031C000C166826B01EB82010167C26B01EBC20138
:1031D0004167D0E910235A4301EB82018167D0E9AE
:1031E00012235A4301EB8201C167D0E914235A43E9
:1031F00001EB8201C0F88010826D01EBC201C0F8C2
:103200008410C26D836E5A4301EB8201C0F88810AE
:10321000026E836E5A4301EB8201C0F890104DF2AA
:10322000FD32C4F2000291420BD3D0F89C1041F061
:103230002001C0F89C10032180F898100121084655
:103240007047C26ED0F890108A4222BF0021084613
:1032500070474FF0000100BF42F8041BD0F89030D7
:103260009A42F9D3084670472DE9F043D1E900CEE0
:10327000D1E90248D1E90469D1E9065734434CEA5F
:10328000040646F08046BEF1000F08BF44EA8C46B3
:10329000846ED0F8840063430C6A40F8236000EB2E
:1032A000830047EA04632B4343EA090343EA0843E4
:1032B0004360CB68002B08BFBDE8F08300F1080035
:1032C0004FF0000343F2946CC0F6010CD758C7507E
:1032D000CF681CF807700433BB42F7D3BDE8F08316
:1032E000C1898180018AC180418A0180818A4180AF
:1032F000018B4181418B8181002101834183C0F891
:103300001210C0F80E10704742F23C21C2F2004188
:10331000884202BF42F61070C2F20040704742F28B
:10332000D021C2F20041884202BF42F68070C2F250
:103330000040704742F26431C2F20041884202BF4D
:1033400042F6F070C2F20040704742F2F831C2F229
:10335000004188421FD042F28C41C2F200418842B3
:1033600002BF43F2D000C2F20040704742F2205147
:10337000C2F20041884213D042F2B451C2F200417D
:10338000884219BF43F22020C2F2004043F2B0103D
:10339000C2F20040704743F26000C2F20040704742
:1033A00043F24010C2F200407047000000000000ED
:1033B00080B5002802BF4FF6FF72104680BD81B174
:1033C00043F2A46CC0F6010C10F801EBD3B283EA0F
:1033D0000E033CF8133002F47F4283EA12220139D3
:1033E000F2D1104680BD000061B143F2844CC0F6BA
:1033F000010C00BF10F8013B5A40D2B21CF8022069
:103400000139F7D1104670472DE9F04381B00446E9
:1034100002F0EEFE0546002C02BF012001B0BDE81F
:10342000F08394F8350002281ED1206840F2B84895
:10343000C4F2020840F2B709C4F20209484517DD98
:1034400040F25741C4F20201884222DC40F2274197
:10345000C4F20201884237DCB821C4F2020188427A
:103460004FD040F2104147E08020606501208AE2A1
:103470005721C4F2020188421ADD8721C4F20201F9
:1034800088422ADC5821C4F20201884239D07021D6
:1034900032E040F28741C4F20201884224DC40F26B
:1034A0005841C4F2020188422BD040F2704123E01F
:1034B0001021C4F2020188421EBF2821C4F2020179
:1034C00088421ED0402117E040F22841C4F2020198
:1034D000884216D040F240410EE08821C4F2020139
:1034E00088420ED0A02107E040F2A041C4F20201C0
:1034F000884206D040F28841C4F20201884240F07E
:10350000EB8121680A6822F01E000860206841698A
:1035100021F0800141612768206840F26F46C4F2C3
:103520000206B04216DC9F21C4F2020188422CDC64
:103530005721C4F2020188424FDC1021C4F202017B
:1035400088421EBF2821C4F20201884200F0818017
:10355000402167E045F22F41C5F60201884227DC91
:1035600040F2B741C4F20201884242DC40F27041AD
:10357000C4F2020188421EBF40F28841C4F2020137
:10358000884266D040F2A0414CE040F22741C4F2AC
:103590000201884238DCA021C4F2020188421EBF29
:1035A000B821C4F20201884253D040F2104139E000
:1035B00045F26B41C5F60201884238DC45F23041E4
:1035C000C5F6020188421EBF45F24441C5F602011C
:1035D00088423ED045F2584137E05821C4F20201FA
:1035E00088421EBF7021C4F20201884231D0882176
:1035F00018E040451EBF45F20841C5F60201884269
:1036000027D045F21C4120E040F22841C4F20201DB
:1036100088421EBF40F24041C4F20201884218D0E5
:1036200040F25841C4F20201884212D016E045F23D
:103630006C41C5F6020188421EBF45F29441C5F6B1
:103640000201884205D045F28041C5F60201884258
:1036500004D1206E016821F480710160206840F27D
:103660000F41C4F20201884210DC6F21C4F2020152
:1036700088421CDC3F21C4F20201884232DC102166
:10368000C4F2020188424ED0282146E0B0421ADC42
:1036900040F23F41C4F2020188422ADC40F210416C
:1036A000C4F2020188423ED040F2284135E09F2119
:1036B000C4F20201884225DC7021C4F20201884272
:1036C00031D0882129E040F29F41C4F202018842B2
:1036D0001FDC40F27041C4F20201884223D040F264
:1036E00088411AE04021C4F2020188421BD05821CF
:1036F00013E040F24041C4F20201884213D040F28C
:1037000058410AE0A021C4F2020188420BD0B8213E
:1037100003E0404507D040F2A041C4F202018842D4
:1037200008BF206800E02068016821F00101016005
:10373000386810F0010F0BD002F05AFD401B06282C
:10374000F6D320206065032084F8350001201AE1BB
:103750002068484513DD40F25741C4F20201884217
:103760001EDC40F22741C4F20201884233DCB8215A
:10377000C4F2020188424BD040F2104143E057218D
:10378000C4F2020188421ADD8721C4F20201884294
:103790002ADC5821C4F20201884239D0702132E07B
:1037A00040F28741C4F20201884224DC40F25841D1
:1037B000C4F2020188422BD040F2704123E0102174
:1037C000C4F2020188421EBF2821C4F202018842CD
:1037D0001ED0402117E040F22841C4F20201884285
:1037E00016D040F240410EE08821C4F20201884226
:1037F0000ED0A02107E040F2A041C4F202018842AD
:1038000006D040F28841C4F20201884240F0C180F3
:10381000D4E9161000F01F023F2090408860206815
:10382000B04216DC9F21C4F2020188422CDC5721F1
:10383000C4F20201884258DC1021C4F2020188421D
:103840001EBF2821C4F20201884200F08A80402174
:1038500070E045F22F41C5F60201884227DC40F2B4
:10386000B741C4F2020188424BDC40F27041C4F21D
:10387000020188421EBF40F28841C4F20201884220
:103880006FD040F2A04155E040F22741C4F202015E
:10389000884241DCA021C4F2020188421EBFB82147
:1038A000C4F2020188425CD040F2104142E045F28D
:1038B0006B41C5F60201884241DC45F23041C5F654
:1038C000020188421EBF45F24441C5F6020188420A
:1038D00047D045F2584140E021680A6840453FF42E
:1038E00012AE22F00E00086015E65821C4F2020163
:1038F00088421EBF7021C4F20201884231D0882163
:1039000018E040451EBF45F20841C5F60201884255
:1039100027D045F21C4120E040F22841C4F20201C8
:1039200088421EBF40F24041C4F20201884218D0D2
:1039300040F25841C4F20201884212D01FE045F221
:103940006C41C5F6020188421EBF45F29441C5F69E
:103950000201884205D045F28041C5F60201884245
:103960000DD1D4E919014160E06E00281FBF016844
:1039700021F480710160D4E91C0118BF416001206D
:1039800084F835000020002184F8341001B0BDE82F
:10399000F083D4E9161202F01F0240453FF43CAF19
:1039A0000120904048603AE7E8B190F835100229CC
:1039B00017D1016840F20F42C4F20202914215DCB5
:1039C0006F23C4F20203994225DC3F23C4F20203B1
:1039D00099423BDC1023C4F20203994259D02823B8
:1039E00053E08021416501210846704740F26F4352
:1039F000C4F2020399421ADC40F23F43C4F20203CC
:103A000099422ADC40F21043C4F20203994240D0AA
:103A100040F2284339E09F23C4F20203994225DC97
:103A20007023C4F20203994233D088232DE040F280
:103A30009F43C4F2020399421FDC40F27043C4F278
:103A40000203994225D040F288431EE04023C4F28D
:103A5000020399421DD0582317E040F24043C4F2BC
:103A60000203994215D040F258430EE0A023C4F25D
:103A7000020399420DD0B82307E040F2B843C4F2E4
:103A80000203994205D040F2A043C4F202039942D6
:103A900071D1042180F835100168914210DC6F2249
:103AA000C4F20202914220DC3F22C4F2020291429F
:103AB00036DC1022C4F20202914254D028224EE099
:103AC00040F26F42C4F2020291421ADC40F23F42DD
:103AD000C4F2020291422ADC40F21042C4F2020215
:103AE000914240D040F2284239E09F22C4F20202C3
:103AF000914225DC7022C4F20202914233D0882226
:103B00002DE040F29F42C4F2020291421FDC40F2DB
:103B10007042C4F20202914225D040F288421EE077
:103B20004022C4F2020291421DD0582217E040F216
:103B30004042C4F20202914215D040F258420EE0D7
:103B4000A022C4F2020291420DD0B82207E040F256
:103B5000B842C4F20202914205D040F2A042C4F23F
:103B60000202914220D10068016821F00101016048
:103B700000210846704701680B6823F00E030B60B4
:103B80000168914215DC6F22C4F20202914225DCE9
:103B90003F22C4F2020291423BDC1022C4F2020234
:103BA00091425BD0282253E0086820F001000860B1
:103BB000DEE740F26F42C4F2020291421ADC40F2A8
:103BC0003F42C4F2020291422ADC40F21042C4F2A7
:103BD0000202914242D040F2284239E09F22C4F2D0
:103BE0000202914225DC7022C4F20202914235D0D9
:103BF00088222DE040F29F42C4F2020291421FDC73
:103C000040F27042C4F20202914227D040F2884250
:103C10001EE04022C4F2020291421FD0582217E057
:103C200040F24042C4F20202914217D040F25842A0
:103C30000EE0A022C4F2020291420FD0B82207E0A7
:103C400040F2B842C4F20202914207D040F2A042D0
:103C5000C4F20202914208BF016800E001680A68EC
:103C600022F001020A60016840F26F42C4F20202CF
:103C7000914216DC9F22C4F2020291422CDC5722B0
:103C8000C4F2020291424FDC1022C4F202029142BD
:103C90001EBF2822C4F20202914200F08580402219
:103CA0006BE045F22F42C5F60202914227DC40F25A
:103CB000B742C4F20202914242DC40F27042C4F2C6
:103CC000020291421EBF40F28842C4F202029142B7
:103CD0006AD040F2A04250E040F22742C4F2020211
:103CE00091423CDCA022C4F2020291421EBFB822E3
:103CF000C4F20202914257D040F210423DE045F238
:103D00006B42C5F6020291423CDC45F23042C5F6F8
:103D1000020291421EBF45F24442C5F602029142A0
:103D200042D045F258423BE05822C4F2020291428E
:103D30001EBF7022C4F20202914235D088221CE0DC
:103D400040F2B842C4F2020291421EBF45F208425C
:103D5000C5F60202914227D045F21C4220E040F213
:103D60002842C4F2020291421EBF40F24042C4F215
:103D70000202914218D040F25842C4F2020291422B
:103D800012D02CE045F26C42C5F6020291421EBFF1
:103D900045F29442C5F60202914205D045F28042B6
:103DA000C5F6020291421AD1016E0A6822F48072AD
:103DB0000A60D0E9161202F01F02012303FA02F290
:103DC0004A60D0E919124A60C16E00291FBF0A6813
:103DD00022F480720A60D0E91C1218BF4A600121E7
:103DE00080F83510002180F83410026D22B180B5C2
:103DF00090470021BDE88040084670470000000061
:103E0000406D7047000000002DE9F04182B004468B
:103E10000020019040F2B400C2F20040006848F275
:103E2000B511C1F64E31A0FB0108A56D2E682968B9
:103E3000206840F26F47C4F20207B84215DC9F21A8
:103E4000C4F2020188422BDC5721C4F202018842ED
:103E50004EDC1021C4F2020188421EBF2821C4F2A8
:103E60000201884272D040216BE045F22F42C5F634
:103E70000202904227DC40F2B742C4F202029042B2
:103E800042DC40F27041C4F2020188421EBF40F29F
:103E90008841C4F20201884258D040F2A04150E06B
:103EA00040F22741C4F2020188423CDCA021C4F266
:103EB000020188421EBFB821C4F20201884245D0E7
:103EC00040F210413DE045F26B42C5F602029042DD
:103ED00074DC45F23042C5F6020290421EBF45F244
:103EE0004442C5F6020290427BD045F2584273E04C
:103EF0005821C4F2020188421EBF7021C4F202019F
:103F0000884223D088211CE040F2B842C4F2020269
:103F100090421BD045F20842C5F60202904260D0A2
:103F200045F21C4258E040F22841C4F202018842A6
:103F30001EBF40F24041C4F20201884206D040F266
:103F40005841C4F20201884240F0D283E06D00F093
:103F50001F00082101FA00F0304200F01E812068A5
:103F600040F20F41C4F20201884213DC6F21C4F217
:103F70000201884200F390803F21C4F2020188428E
:103F800000F3D2801021C4F20201884200F0F080D8
:103F90002821E8E0B84200F38B8040F23F41C4F2B0
:103FA0000201884200F3C78040F21041C4F20201CE
:103FB000884200F0DD8040F22841D4E045F26C42B6
:103FC000C5F6020290421EBF45F28042C5F60202CB
:103FD000904206D045F29442C5F60202904240F06B
:103FE000878320680068E26D02F01F0210F0040F62
:103FF0001EBF0423934013EA01062AD1830766D526
:104000000223934013EA010661D06B60010400F1C2
:104010006983800600F1E984206840F20F41C4F210
:104020000201884200F316846F21C4F20201884223
:1040300000F391843F21C4F20201884200F3A68478
:104040001021C4F20201884200F0C384282100F04C
:10405000BCBC6B6001045FD4800600F15084206812
:1040600040F20F41C4F20201884200F398836F21AD
:10407000C4F20201884200F3B6833F21C4F2020178
:10408000884200F3FB831021C4F20201884200F051
:104090003084282100F028BC9F21C4F2020188420C
:1040A00052DC7021C4F20201884261D088215AE0BA
:1040B00040F29F41C4F2020188424CDC40F2704160
:1040C000C4F20201884253D040F288414BE000071D
:1040D00040F10E8308209040084000F009832068DA
:1040E00040F20F41C4F20201884200F36A836F215B
:1040F000C4F20201884200F382833F21C4F202012C
:10410000884200F3C2831021C4F20201884200F009
:104110000784282100F000BCC0034CBF216CA16CB7
:10412000002940F03783E3E24021C4F202018842D3
:104130001ED0582117E040F24041C4F202018842EB
:1041400016D040F258410EE0A021C4F2020188428C
:104150000ED0B82107E040F2B841C4F20201884213
:1041600006D040F2A041C4F20201884240F0C3826E
:1041700020680421006808420FD02068016821F0FF
:1041800004010160E06D00F01F00082101FA00F059
:10419000A860606D40F001006065E06D00F01F00F8
:1041A000012101FA00F0304278D0206840F20F413E
:1041B000C4F20201884210DC6F21C4F2020188427D
:1041C0001CDC3F21C4F20201884232DC1021C4F21F
:1041D0000201884251D028214AE0B8421ADC40F25C
:1041E0003F41C4F2020188422ADC40F21041C4F28D
:1041F0000201884241D040F2284139E09F21C4F2B7
:104200000201884225DC7021C4F20201884234D0C8
:1042100088212DE040F29F41C4F2020188421FDC58
:1042200040F27041C4F20201884226D040F2884137
:104230001EE04021C4F2020188421ED0582117E03E
:1042400040F24041C4F20201884216D040F2584187
:104250000EE0A021C4F2020188420ED0B82107E08E
:1042600040F2B841C4F20201884206D040F2A041B7
:10427000C4F20201884240F040822068143080215C
:10428000006808420AD0E06D00F01F00012101FA29
:1042900000F0A860606D40F002006065E06D00F025
:1042A0001F00042101FA00F0304277D0206840F26C
:1042B0000F41C4F20201884210DC6F21C4F20201F6
:1042C00088421CDC3F21C4F20201884232DC10210A
:1042D000C4F20201884251D028214AE0B8421ADCD7
:1042E00040F23F41C4F2020188422ADC40F2104110
:1042F000C4F20201884241D040F2284139E09F21B6
:10430000C4F20201884225DC7021C4F20201884215
:1043100034D088212DE040F29F41C4F2020188424E
:104320001FDC40F27041C4F20201884226D040F204
:1043300088411EE04021C4F2020188421ED058216B
:1043400017E040F24041C4F20201884216D040F228
:1043500058410EE0A021C4F2020188420ED0B821DB
:1043600007E040F2B841C4F20201884206D040F2B0
:10437000A041C4F20201884240F0C18120680221BC
:10438000006808420AD0E06D00F01F00042101FA25
:1043900000F0A860606D40F004006065E06D00F022
:1043A0001F00102101FA00F0304200F08B802068DD
:1043B00040F20F41C4F20201884210DC6F21C4F2C6
:1043C000020188421CDC3F21C4F20201884232DC37
:1043D0001021C4F20201884251D028214AE0B8429B
:1043E0001ADC40F23F41C4F2020188422ADC40F26A
:1043F0001041C4F20201884241D040F2284139E024
:104400009F21C4F20201884225DC7021C4F202011E
:10441000884234D088212DE040F29F41C4F202014D
:1044200088421FDC40F27041C4F20201884226D06B
:1044300040F288411EE04021C4F2020188421ED0B1
:10444000582117E040F24041C4F20201884216D0E0
:1044500040F258410EE0A021C4F2020188420ED081
:10446000B82107E040F2B841C4F20201884206D008
:1044700040F2A041C4F20201884240F0428120682B
:104480000821006808421DD0E06D00F01F001021D7
:1044900001FA00F0A86020680168006811F4802F1C
:1044A00007D1C0055FBF2068016821F008010160E5
:1044B00001E0000301D4216C00E0A16C00291CBFC5
:1044C00020468847E06D00F01F00202101FA00F02F
:1044D000304200F0B880206840F20F41C4F202017F
:1044E000884210DC6F21C4F2020188421CDC3F21AB
:1044F000C4F20201884232DC1021C4F20201884277
:1045000051D028214AE0B8421ADC40F23F41C4F2BF
:10451000020188422ADC40F21041C4F202018842C2
:1045200041D040F2284139E09F21C4F20201884283
:1045300025DC7021C4F20201884234D088212DE0AC
:1045400040F29F41C4F2020188421FDC40F27041F8
:10455000C4F20201884226D040F288411EE0402188
:10456000C4F2020188421ED0582117E040F24041B7
:10457000C4F20201884216D040F258410EE0A02158
:10458000C4F2020188420ED0B82107E040F2B841DF
:10459000C4F20201884206D040F2A041C4F20201F6
:1045A000884240F0B08020681021006808424AD05C
:1045B000E06D00F01F00202101FA00F0A86094F8DF
:1045C000352021680868042A22D120F016000860EE
:1045D0002068416921F080014161206C08B9A06C1C
:1045E00020B12068016821F008010160E06D00F051
:1045F0001F003F2101FA00F0A860012084F8350077
:10460000002084F83400216D002940F0C3806FE061
:104610002168096840030DD4C8050FD420680168DB
:1046200021F010010160012084F83500002084F899
:10463000340003E0080301D4616C00E0E16B002961
:104640001CBF20468847606D002851D0606D10F077
:10465000010F00F09C80042084F83500206840F2AF
:104660000F41C4F20201884210DC6F21C4F2020142
:1046700088421CDC3F21C4F20201884245DC102143
:10468000C4F20201884265D028215DE0B8421ADCFC
:1046900040F23F41C4F2020188423DDC40F2104149
:1046A000C4F20201884255D040F228414CE09F21DB
:1046B000C4F20201884238DC7021C4F2020188424F
:1046C00048D0882140E040F29F41C4F20201884274
:1046D00032DC40F27041C4F2020188423AD040F22A
:1046E000884131E0C00354BF616CE16B002951D1B6
:1046F00002B0BDE8F08108213CE50021C0E50021C1
:104700003EE60421BDE602214FE74021C4F202014A
:1047100088421FD0582117E040F24041C4F2020104
:10472000884217D040F258410EE0A021C4F20201A5
:1047300088420FD0B82107E040F2B841C4F202012C
:10474000884207D040F2A041C4F20201884208BF6B
:10475000206800E020684FEA9821026822F00102F8
:10476000026000BF0198421C019220688A4203D86F
:10477000026812F0010FF5D1006800F0010001217C
:1047800041EA400084F83500002084F83400E16CF0
:104790000029ADD02046884702B0BDE8F081B8427C
:1047A0003ADC40F23F41C4F20201884274DC40F23C
:1047B0001041C4F20201884200F09B8040F228417F
:1047C00092E0B84237DC40F23F41C4F20201884235
:1047D0006BDC40F21041C4F20201884200F0A0807C
:1047E00040F2284198E09F21C4F20201884265DC32
:1047F0007021C4F2020188427BD0882174E09F219D
:10480000C4F20201884260DC7021C4F202018842D5
:1048100000F0868088217FE040F29F41C4F20201CF
:10482000884259DC40F27041C4F20201884260D0F3
:1048300040F2884158E040F29F41C4F202018842B0
:1048400062DC40F27041C4F20201884268D040F25A
:10485000884161E0B84200F38A8040F23F41C4F2EF
:104860000201884200F3998040F21041C4F2020133
:10487000884200F0AE8040F22841A6E04021C4F218
:104880000201884235D058212EE04021C4F20201B5
:10489000884245D058213FE040F24041C4F2020135
:1048A000884226D040F258411EE040F24041C4F216
:1048B0000201884234D040F258412DE0A021C4F2D8
:1048C0000201884215D0B8210EE0A021C4F20201F5
:1048D000884225D0B8211FE040F2B841C4F202015D
:1048E000884206D040F2A041C4F20201884240F062
:1048F000818020686FF00801026811400160216C1E
:1049000000297FF447AFF3E640F2B841C4F2020158
:10491000884205D040F2A041C4F2020188426CD125
:1049200020686FF01C01026811400160E06D00F02A
:104930001F00012101FA00F06860616584F83510FC
:10494000002084F83400E16C00291CBF2046884711
:1049500002B0BDE8F0819F21C4F20201884225DC4B
:104960007021C4F20201884233D088212DE040F248
:104970009F41C4F2020188421FDC40F27041C4F240
:104980000201884225D040F288411EE04021C4F255
:10499000020188421DD0582117E040F24041C4F284
:1049A0000201884215D040F258410EE0A021C4F225
:1049B000020188420DD0B82107E040F2B841C4F2AC
:1049C0000201884205D040F2A041C4F202018842AF
:1049D00016D120686FF014010268114001600120B7
:1049E00084F83500002084F83400E16B00297FF45E
:1049F000D1AE7DE66FF004017EE76FF00E0192E725
:104A00006FF00A01E8E700002DE9F04381B00446A9
:104A100001F0EEFB0546002C00F07381206840F2A7
:104A20006F48C4F20208404515DC9F21C4F2020120
:104A300088422BDC5721C4F20201884250DC10214D
:104A4000C4F2020188421EBF2821C4F2020188423A
:104A500074D040216DE045F22F41C5F60201884235
:104A600027DC40F2B741C4F20201884244DC40F244
:104A70007041C4F2020188421EBF40F28841C4F274
:104A8000020188425AD040F2A04152E040F2274150
:104A9000C4F2020188423EDCA021C4F20201884235
:104AA0001EBFB821C4F20201884247D040F2104133
:104AB0003FE045F26B41C5F60201884200F38F806A
:104AC00045F23041C5F6020188421EBF45F244411D
:104AD000C5F60201884200F0958045F258418CE00D
:104AE0005821C4F2020188421EBF7021C4F20201A3
:104AF000884223D088211CE040F2B841C4F2020170
:104B000088421BD045F20841C5F60201884279D09F
:104B100045F21C4171E040F22841C4F20201884292
:104B20001EBF40F24041C4F20201884206D040F26A
:104B30005841C4F20201884240F01482022084F8F5
:104B40003500002084F83400206840F20F41C4F2A0
:104B50000201884212DC6F21C4F20201884220DC8B
:104B60003F21C4F20201884200F391801021C4F277
:104B70000201884200F0B0802821A7E040451EDCF9
:104B800040F23F41C4F20201884200F3878040F2C4
:104B90001041C4F20201884200F09E8040F2284198
:104BA00094E09F21C4F20201884200F380807021CA
:104BB000C4F20201884200F08F80882186E040F232
:104BC0009F41C4F20201884278DC40F27041C4F295
:104BD0000201884200F0808040F2884176E045F290
:104BE0006C41C5F6020188421EBF45F28041C5F600
:104BF0000201884206D045F29441C5F6020188427E
:104C000040F0B081022084F83500002084F83400A0
:104C100021680A68D4E90237D4E90465D4E906CEEC
:104C2000D4F820906FF3101242EAD702802B08BF0D
:104C30004FF48040402B08BF1020104340EAD600BC
:104C400040EAD50040EADC0040EADE0040EA191004
:104C5000086020684AF6F831CAF2FD7108444CF643
:104C6000CD41CCF6CC41A0FB01014FF6FC70C3F660
:104C7000FF7000EA9100E0652046FDF7B1FBE16DB1
:104C800001F01F01012202FA01F14160A4E040217C
:104C9000C4F2020188421FD0582117E040F240417F
:104CA000C4F20201884217D040F258410EE0A02120
:104CB000C4F2020188420FD0B82107E040F2B841A7
:104CC000C4F20201884207D040F2A041C4F20201BE
:104CD000884208BF206800E02068016821F00101D7
:104CE000016000BF2068016811F0010F0DD001F0D4
:104CF0007FFA401B0628F5D320206065032084F846
:104D00003500012001B0BDE8F083006848F23F01A2
:104D1000CFF6106100EA010C04F10807EECFD4E9E8
:104D2000080E41EA0C011143194329433143394329
:104D30000843BEF1040F02BFD4E90B12084310432D
:104D400041F20001C5F600410968B1F1005F1CD3D2
:104D500061682939292918D8DFE801F015151515DA
:104D600015151717171717171717171717171717D7
:104D700017171515151517171717151517171717CF
:104D800017171515151540F4801021680860206864
:104D90004069616A20F0070040EA010504290FD14B
:104DA000D4E90A01054359B12046FDF77DFC38B12D
:104DB00040206065012084F8350001B0BDE8F08333
:104DC000206845612046FDF70BFBE16D01F01F01F6
:104DD0003F2202FA01F181602068404516DC9F21E4
:104DE000C4F2020188422CDC5721C4F2020188423D
:104DF0004FDC1021C4F2020188421EBF2821C4F2F8
:104E00000201884200F0858040216BE045F22F418D
:104E1000C5F60201884227DC40F2B741C4F2020124
:104E2000884242DC40F27041C4F2020188421EBF57
:104E300040F28841C4F2020188426AD040F2A041A7
:104E400050E040F22741C4F2020188423CDCA0213C
:104E5000C4F2020188421EBFB821C4F20201884296
:104E600057D040F210413DE045F26B41C5F60201DA
:104E700088423CDC45F23041C5F6020188421EBF43
:104E800045F24441C5F60201884242D045F25841FC
:104E90003BE05821C4F2020188421EBF7021C4F2D7
:104EA0000201884235D088211CE040F2B841C4F2AA
:104EB000020188421EBF45F20841C5F60201884240
:104EC00027D045F21C4120E040F22841C4F2020103
:104ED00088421EBF40F24041C4F20201884218D00D
:104EE00040F25841C4F20201884212D032E045F249
:104EF0006C41C5F6020188421EBF45F29441C5F6D9
:104F00000201884205D045F28041C5F6020188427F
:104F100020D12046FDF7F4FAA068802804BF0020C5
:104F20006060206E21790160D4E9190141606068F8
:104F3000A0F10100072809D82046FDF755FBE06ED7
:104F400000210160D4E91C01416003E00020C4E9B4
:104F50001B00606700206065012184F8351001B0F6
:104F6000BDE8F0834020C8E670B504468CB394F8E1
:104F70003400012802BF0220C0B270BD4FF0010012
:104F800084F8340094F8350001281CD1022084F8FC
:104F9000350000206065206840F20F46C4F202062A
:104FA000B04219DC6F25C4F20205A84229DC3F2576
:104FB000C4F20205A8423FDC1025C4F20205A84253
:104FC0005FD0282557E04FF400606065002084F82A
:104FD00034000120C0B270BD40F26F45C4F202053A
:104FE000A8421ADC40F23F45C4F20205A8422ADC7E
:104FF00040F21045C4F20205A84242D040F22845D2
:1050000039E09F25C4F20205A84225DC7025C4F2D0
:105010000205A84235D088252DE040F29F45C4F214
:105020000205A8421FDC40F27045C4F20205A84206
:1050300027D040F288451EE04025C4F20205A84270
:105040001FD0582517E040F24045C4F20205A8429F
:1050500017D040F258450EE0A025C4F20205A84240
:105060000FD0B82507E040F2B845C4F20205A842C7
:1050700007D040F2A045C4F20205A84208BF20684C
:1050800000E02068056825F0010505602046FDF771
:1050900037FB2068B721C4F20201884213DD40F2D9
:1050A0005741C4F2020188421EDC40F22741C4F29B
:1050B0000201884233DCB821C4F2020188424BD09D
:1050C00040F2104143E05721C4F2020188421ADD48
:1050D0008721C4F2020188422ADC5821C4F202016D
:1050E000884239D0702132E040F28741C4F2020197
:1050F000884224DC40F25841C4F2020188422BD09D
:1051000040F2704123E01021C4F2020188421EBF28
:105110002821C4F2020188421ED0402117E040F24B
:105120002841C4F20201884216D040F240410EE00C
:105130008821C4F2020188420ED0A02107E040F28B
:10514000A041C4F20201884206D040F28841C4F274
:105150000201884240F02981226811680B2060F327
:1051600044011160206C20B12068016841F0080101
:105170000160216840F26F40C4F20200814216DCF7
:105180009F22C4F2020291422CDC5722C4F2020296
:1051900091424FDC1022C4F2020291421EBF28222B
:1051A000C4F20202914200F0858040226BE045F299
:1051B0002F42C5F60202914227DC40F2B742C4F208
:1051C0000202914242DC40F27042C4F20202914279
:1051D0001EBF40F28842C4F2020291426AD040F2FD
:1051E000A04250E040F22742C4F2020291423CDC6D
:1051F000A022C4F2020291421EBFB822C4F20202EF
:10520000914257D040F210423DE045F26B42C5F664
:10521000020291423CDC45F23042C5F60202914264
:105220001EBF45F24442C5F60202914242D045F209
:1052300058423BE05822C4F2020291421EBF702243
:10524000C4F20202914235D088221CE040F2B842FA
:10525000C4F2020291421EBF45F20842C5F60202A4
:10526000914227D045F21C4220E040F22842C4F28D
:10527000020291421EBF40F24042C4F20202914239
:1052800018D040F25842C4F20202914212D021E0FA
:1052900045F26C42C5F6020291421EBF45F29442AD
:1052A000C5F60202914205D045F28042C5F60202DF
:1052B00091420FD1216E0A6812F4803F1EBF0A6826
:1052C00042F480720A60E16E00291EBF0A6842F44F
:1052D00080720A602168B14210DC6F20C4F20200C3
:1052E00081421CDC3F20C4F20200814232DC1020EB
:1052F000C4F20200814250D028204AE081421ADCE8
:1053000040F23F40C4F2020081422ADC40F21040E9
:10531000C4F20200814240D040F2284039E09F2090
:10532000C4F20200814225DC7020C4F202008142F6
:1053300033D088202DE040F29F40C4F20200814229
:105340001FDC40F27040C4F20200814225D040F2DE
:1053500088401EE04020C4F2020081421DD0582047
:1053600017E040F24040C4F20200814215D040F202
:1053700058400EE0A020C4F2020081420DD0B820B7
:1053800007E040F2B840C4F20200814205D040F28A
:10539000A040C4F2020081421ED12068016841F0A1
:1053A000010101600020C0B270BD2268116840F2A6
:1053B000B843C4F2020398423FF4D0AE052060F334
:1053C000430120680160206C00283FF4D2AE2068C1
:1053D000016841F00401CBE6086840F00100086074
:1053E000E0E700000000000070B505466E1C00F00C
:1053F000FFFE044636B140F24C50C2F20040007845
:10540000054401E04FF0FF3500F0F2FE001BA8421A
:10541000FAD370BD0000000090F89830013BDBB279
:10542000012B18D8D0F800C0DCF858300B4217D048
:1054300080B5D0F800E0DEF858300B408B4206BF54
:10544000DEF85C3043F0020C4FF0030CCEF85CC089
:10545000BDE880400AE000F19C01012002222AE020
:10546000DCF85C3043F00103CCF85C308B0541BFC5
:10547000D0F800C0DCF8E0301343CCF8E0304B0546
:1054800041BFD0F800C0DCF8E4301A43CCF8E42087
:105490004FF6FF72C3F6CF7202EA01020068436D55
:1054A00042EA030242654FEA91724FF000004AF669
:1054B0001401C4F200010B681A430A60704700002F
:1054C000B0B5044694F8980002281BD12068D0F8A3
:1054D000C03013F07C5F1AD0D0F8C43013F4001F32
:1054E0001AD1D0F8C400C0F3044520462B46FDF77E
:1054F000BBFE0120A8402168C1F8D000C4F8940088
:105500000020B0BDD4F89C0040F0080008E0D4F8BA
:105510009C0040F0200003E0D4F89C0040F40070B0
:10552000C4F89C000120B0BD7047000000000000DE
:1055300090F89820013AD2B2012A09D80A68D1E934
:10554000033C6AB14CEA4372072B15D18B6918E012
:10555000D0F89C1041F00201C0F89C100120704767
:1055600080B54FEA0C4C072B14D101F1180ECA6913
:1055700013024FF0605212E0D1F808C04B6943EAC1
:105580008C734968006F40F8312000EBC100436024
:105590000020704701F1140EDA068B689B0742EA7F
:1055A0000C021A43DEF800301A434968C06E40F816
:1055B0002120002080BD0000704700000000000096
:1055C000704700000000000070B590F89850022D60
:1055D00022D1402925D10468D4F8A05015F4FE0F3B
:1055E00000F0A280D4F8A45015F07F0F00F0AA803C
:1055F000D4F8A45015F0807F1ABFD4F8A050ED0F56
:105600000025D4F8A440C4F3052404EB050E00F1F2
:105610007404456CF44630E0D0F89C1041F0080169
:1056200094E041291FD10468D4F8B05015F4FE0F5E
:105630007AD0D4F8B45015F07F0F00F08380D4F8FE
:10564000B45015F0807F1ABFD4F8B050ED0F00258C
:10565000D4F8B440C4F3052404EB050E00F178043B
:10566000C56CF44609E0056D8D425DD900F17C04FE
:10567000D0F854E04FF0000C0D4605FB0EFE2468F8
:1056800054F82E5015F08045556054F82E50C5F34F
:105690008A4618BF25F06046166054F82E5005F073
:1056A0000055956054F82E5005F00045156104EB47
:1056B0008E05AE88D661EE8806F00F06D6606E685D
:1056C00006F4801656616E6806F400169661EE794F
:1056D00006F07F0616626E68F60F5662D6686EB1E7
:1056E0000835002443F2946EC0F6010E2E5D1E555F
:1056F000D6681EF806600134B442F7D3006840292A
:1057000002BFC0F8A8C0002070BD412902BFC0F888
:10571000B8C0002070BD1F290BD8012202FA01F188
:10572000C0F89810002070BDD0F89C1041F0200106
:105730000CE001F01F01012202FA01F1C0F89C10F7
:10574000002070BDD0F89C1041F48071C0F89C100E
:10575000012070BD00000000704700000000000044
:105760002DE9F04F87B004464AF61007C4F200074F
:1057700039684AF61400C4F2000002682068056D1A
:10578000D0F85490036D0093D0F85480036D0293C9
:10579000436D0193036D0693436D0593036D04936D
:1057A000436D0393436D066D03EA060B5FEACB532B
:1057B00002EA010A07D54FF48071016500203860C4
:1057C0002046FFF7C9FF05EA09064FEA8A755FEA36
:1057D0004B50B9460ED52068D0F8DC10D0F8E42044
:1057E0004FF4806303650020C9F800001140204693
:1057F00000F076FB009808EA000806F4704655B100
:105800002068002101650AF00300C9F80000204665
:105810002946FFF789FEDDE9011000EA010708F0DB
:105820000F0546B1206806650020C9F80000204633
:10583000314600F05DFB07F0F00645B120680565D4
:105840000020C9F800002046294600F0DDFA46B1E4
:10585000206806650020C9F800002046314600F0A7
:1058600007FB5FEA0B5009D520684FF40061016522
:105870000020C9F80000204600F03EFB5FEA8B5094
:105880000ED52068D0F8D810D0F8E0204FF400737F
:1058900003650020C9F800001140204600F024FBF9
:1058A0005FEA0B3009D520684FF400210165002024
:1058B000C9F80000204600F0A3FA5FEACB3009D512
:1058C00020684FF4803101650020C9F800002046AF
:1058D00000F002FBDDE9031000EA01055FEA4B304E
:1058E00009D520684FF4802101650020C9F8000027
:1058F000204600F0EDFADDE90510084005F0607182
:105900005FEA8B320CD522684FF400331365002216
:10591000C9F80020D4F89C2042F08002C4F89C20F2
:1059200000F0715539B1206801650020C9F8000008
:105930002046FFF745FE4DB1206805650020C9F8F7
:105940000000D4F89C002843C4F89C002068A9F506
:105950000161884263D16068816811F0030F5ED0F5
:10596000016A426A114011F00F01026A436A02EAB9
:10597000030202F03005066AD0F82490026A04920D
:10598000D0F824B0026A0692426A0592D0F82480C8
:10599000D0F820A003D00162204600F08DFA06EA7C
:1059A00009072DB1606805622046294600F08CFA8F
:1059B000049800EA0B0607F4C07508EA0A004006DE
:1059C0000AD56068C16BC26B40230362090C02F008
:1059D0003F02204600F074FADDE9051000EA0107F5
:1059E00006F4FC462DB1606805622046294600F0A9
:1059F0005FFA07F4F020002E1FBF61680E62D4F832
:105A00009C10314318BFC4F89C1000281FBF616868
:105A10000862D4F89C10084318BFC4F89C00D4F85E
:105A20009C00002804BF07B0BDE8F08F204607B0F7
:105A3000BDE8F04FFFF7C0BD2DE9F041044674B357
:105A400020684AF20008C4F20008404504BF00F58F
:105A50008070606094F8980028B9002084F899005C
:105A6000204600F025F92068816921F0100181614C
:105A700000F0BEFB054600BF2068816911F0080FE9
:105A800010D000F0B5FB401B0B28F5D3D4F89C00D8
:105A900040F00100C4F89C00032084F89800012025
:105AA000BDE8F081816941F00101816100F0A0FB56
:105AB000054600BF2068816911F0010F10D100F088
:105AC00097FB401B0B28F5D3D4F89C0040F0010055
:105AD000C4F89C00032084F898000120BDE8F08100
