:020000040800F2
:10000000D0560024AD020008D1D00008A599000800
:1000100045CD0008191B000871F50008000000001C
:10002000000000000000000000000000F5D90008FA
:100030003D2B00080000000053D1000865DF0008D8
:10004000C7020008C7020008C7020008C70200086C
:10005000C7020008C7020008C7020008C70200085C
:10006000C7020008C7020008C7020008C122000832
:10007000CD220008D9220008E5220008F12200085C
:10008000FD22000809230008C70200089D2D000872
:10009000A92D0008C7020008C7020008C70200080F
:1000A000C7020008C7020008C7020008C70200080C
:1000B000C7020008C7020008C7020008C7020008FC
:1000C000C702000801A30008C7020008C702000811
:1000D000C70200081DF5000835F500084DF50008B9
:1000E000C7020008C702000800000000C70200089D
:1000F00071E6000865E60008C7020008152300083D
:10010000C7020008C7020008C7020008C7020008AB
:1001100089E80008A1E80008C7020008C702000833
:10012000212300082D230008392300084523000857
:1001300051230008C7020008C7020008C7020008D0
:1001400000000000000000000000000000000000AF
:100150005D23000869230008C702000865F5000850
:10016000C7020008C7020008C7020008C70200084B
:10017000C7020008C7020008C7020008C70200083B
:10018000C7020008C7020008B9E80008D1E8000863
:10019000C7020008C7020008C7020008C70200081B
:1001A000C7020008C7020008C7020008C70200080B
:1001B000C7020008C7020008C7020008C7020008FB
:1001C000C7020008C7020008C7020008C7020008EB
:1001D000C7020008C7020008C7020008C7020008DB
:1001E000C7020008C7020008C7020008C7020008CB
:1001F000C7020008C7020008C7020008C7020008BB
:10020000C7020008C7020008C7020008C7020008AA
:10021000C7020008C7020008C7020008C70200089A
:10022000C7020008C7020008C7020008000000005B
:10023000C7020008C702000800000000C70200084B
:10024000C7020008C7020008C7020008C70200086A
:10025000C7020008C7020008C7020008C70200085A
:10026000C7020008C7020008C7020008C70200084A
:10027000C7020008C7020008C7020008000000000B
:10028000C7020008C7020008C702000800000000FB
:1002900000000000C7020008DFF80CD000F080FA70
:1002A0000048004785FE0008D056002406488047D5
:1002B00006480047FEE7FEE7FEE7FEE7FEE7FEE74B
:1002C000FEE7FEE7FEE7FEE759E0000899020008B6
:1002D0002DE9F05F0546002092469B46884606467B
:1002E000814640241BE0284641464746224600F00E
:1002F00077F853465A46C01A914110D31146184612
:10030000224600F05EF82D1A67EB01084F462246A0
:100310000120002100F055F817EB00094E41201E86
:10032000A4F10104DFDC484631462A464346BDE8D5
:10033000F09F10B5431A934209D28318881803E03E
:1003400010F8011D03F8011D521EF9D210BD40EA3C
:1003500001039B0703D009E008C9121F08C0042A43
:10036000FAD203E011F8013B00F8013B521EF9D22A
:1003700010BDD2B201E000F8012B491EFBD270473C
:100380000022F6E710B513460A4604461946FFF761
:10039000F0FF204610BD30B50B460146002020225C
:1003A000012409E021FA02F59D4205D303FA02F582
:1003B000491B04FA02F52844151EA2F10102F1DCE2
:1003C00030BD202A04DB203A00FA02F100207047F9
:1003D0009140C2F1200320FA03F319439040704783
:1003E000202A04DB203A21FA02F00021704721FA8A
:1003F00002F3D040C2F120029140084319467047F1
:100400002DE9FE4F804681EA0300C00F0C460090A4
:1004100021F0004123F00045B8EB0200A94105D2CC
:100420004046214690461C460B46024623F00040BB
:10043000104347D0270DC7F30A00C3F30A510290B7
:10044000401A019040286BDAC3F3130040F4801B7C
:100450000098924620B10023D2EB030A63EB0B0B0A
:1004600001985946C0F140025046FFF7AAFF0646E0
:100470000D4650465946019A00F0A4F910EB0800C9
:100480006141002487EA115284EAE7731A4340D09D
:10049000009A62B3019A012A4FEA075215DC001B49
:1004A00061EB02014FF0004202EA0752CDE900423F
:1004B000001C41F5801132462B4600F0A4F903B030
:1004C000BDE8F08F40462146F9E7001B61EB0201D1
:1004D000001C41F5801300185B412018A2F500179D
:1004E00047EB030140EAD570B6196D4111E06D0884
:1004F0004FEA360645EAC0754FEA0752001B61EB2A
:100500000201001C41F5801149084FEA3000001932
:10051000514132462B4603B0BDE8F04F00F064B9BC
:100520000098012240000023D0EB020263EBE0734D
:10053000009821464FEAE074B8EB000061EB04013B
:10054000E9E783F000435BE781F0004158E72DE9DC
:10055000FE4F81EA030404F0004421F000410094BE
:100560004FF0000B23F0004350EA01045ED052EA42
:1005700003045BD0C3F30A54C1F30A552C44A4F21C
:10058000F3340194A0FB0254C1F3130141F4801130
:10059000C3F3130343F4801301FB024400FB034E37
:1005A000840A970A44EA815447EA8357A4FB076800
:1005B00002958D0A05FB07854FEA932C04FB0C542A
:1005C0002705029D4FEA065847EA1637B5EB08059E
:1005D0006EEB070C870E920E47EA811742EA8312F0
:1005E000A7FB0201B6EB0B0164EB00042B0D43EA01
:1005F0000C335E1844EB1C50DA465146E7FB02010F
:10060000C5F313044FEA0B3343EA14534FEA0432A1
:10061000019C43EA0603A4F10C040294009CCDE97A
:1006200000B400F0F0F803B0BDE8F08F0020014600
:10063000F9E72DE9F04D81EA030404F0004B21F0C5
:10064000004514464FF0000A23F0004150EA05022D
:1006500020D054EA01021DD0C5F30A570246C5F363
:100660001303C1F31300C1F30A5640F4801543F499
:100670008013A7EB0608101BD64608F2FD3873EB73
:10068000050002D308F1010801E092185B41B8F1BE
:10069000000F03DA00200146BDE8F08D00204FF482
:1006A0008011064684460EE0171B73EB050705D341
:1006B000121B63EB050306434CEA010C49084FEAA1
:1006C000300092185B4150EA0107EDD152EA030075
:1006D00012D082EA040083EA0501084305D0101B0A
:1006E000AB4106D20122002306E000224FF0004376
:1006F00002E06FF0010253101AEB06004CEB0851B8
:1007000010EB0A0041EB0B01BDE8F04D00F06CB8B6
:1007100070B521F0004303430CD0C1F30A55002407
:10072000D5EB040564EB0403D617AD1AB34102DB25
:100730000020014670BD201841EB025170BDC1F38D
:100740000A52C1F3130140F2FF3341F480119A427F
:1007500002DA00200146704740F233439A42A2F287
:10076000334202DC5242FFF73BBEFFF72ABE0000D5
:1007700030B5041E71F1000404DB4FF00044404228
:1007800064EB0101141E73F1000405DB1C464FF0FD
:100790000043524263EB0403994208BF904230BDCC
:1007A000064C074D06E0E06840F0010394E80700BE
:1007B00098471034AC42F6D3FFF772FDE8320108D7
:1007C00008330108202A06DBCB17203A41FA02F051
:1007D00043EAE07306E041FA02F3D040C2F120029E
:1007E000914008431946704710B5141E73F1000478
:1007F00008DA401C41F1000192185B411A4301D113
:1008000020F0010010BD2DE9F04D92469B4611B13C
:10081000B1FA81F202E0B0FA80F220329046FFF79E
:10082000D0FD04460F4640EA0A0041EA0B01534658
:100830005A46084313D0114653EA010019D0C8F1B3
:1008400040025046FFF7CCFD05460E46504659463D
:100850004246FFF7B6FD084305D0012004E02046DC
:100860003946BDE8F08D0020054346EAE0762C438A
:1008700037430A986305E40AA0EB08000022FD0A4A
:1008800044EA47540A3002D500200146E9E7010551
:1008900010196941DDE9084500196941BDE8F04DCD
:1008A000A2E770B58C1810F8015B15F0070301D1B1
:1008B00010F8013B2A1106D110F8012B03E010F8C3
:1008C000016B01F8016B5B1EF9D12B0705D40023E6
:1008D000521E0DD401F8013BFAE710F8013BCB1A88
:1008E000921C03E013F8015B01F8015B521EF9D57D
:1008F000A142D8D3002070BD70B52DED0E8B0446FB
:100900007F48814A9FED7F1A9FED7B2B0029B0F92C
:10091000760002F6440520EE010A95ED001AB7EEC6
:10092000C04A03EE100AB8EEC30B94EDA0AAB1EED4
:10093000411A00EE024BB7EEC10AB7EEC49B3BD0A2
:1009400010F086F9B0EE408B95ED000A94EDA11AF7
:100950006E4EB7EECAAAB1EE400AB7EEC1BAB7EE14
:10096000C00A10F0E5FE20EE0B0B08EE4A0BB7EEC6
:10097000C00B86ED050A95ED000A94EDA08AB1EE54
:10098000400AB7EEC00A10F0D3FE95ED001A94EDC0
:10099000A13AB1EE482AB7EEC22A20EE02ABB1EE80
:1009A000411AB7EEC38AB7EEC11AB0EE410B10F090
:1009B0004FF900EE48AB38E010F04AF995ED001A17
:1009C00094EDA12A514EB7EECA3A20EE038BB1EE58
:1009D000411AB7EEC2AAB7EEC11AB0EE410B10F041
:1009E000A7FE00EE4A8BB7EEC80B86ED050A95ED23
:1009F000000A94EDA0AAB1EE400AB7EEC00A10F0CA
:100A000097FEB0EE408B95ED000A94EDA11AB7EE7B
:100A1000CACAB1EE400AB7EEC1BAB7EEC00A10F0CA
:100A200017F920EE0BAB08EE0CAB384DB7EECA0B46
:100A3000B7EEC98A85ED060AB0EE480B95ED05BA0A
:100A400010F076FE95ED06CAB0EE409BB0EE480B76
:100A500010F0FEF895ED05DAB0EE40ABB0EE480BC5
:100A600010F0F6F895ED061AB7EECD2AB7EECCCA1F
:100A700020EE02DBB0EE480BB7EEC1EA10F058FEF4
:100A800000EE4EDBB7EECB0A2AEE0C1B2046B7EE8B
:100A9000CD2B09EE001B85ED072AB7EEC10BB1EE99
:100AA000424A94EDA21A32EE403A34EE404A31EE18
:100AB000033A31EE044ABDEEC33A84ED1E3A30EEFD
:100AC000423ABDEEC44A30EE020A31EE033A84EDFA
:100AD000314A30EE010ABDEEC32A84ED442ABDEE50
:100AE000C00A84ED570ABDEC0E8BBDE870400DF0D6
:100AF000F1B800BF00BF00BF94F6065F984C65BF19
:100B0000601D002403FA8EBC50010024E010002474
:100B10002DE9F84F1B4E8246984691460F4640F20B
:100B200001240AF5BC7B5D4612E0A0B20021002240
:100B3000022300900BEB06000CF092F997EC030AED
:100B4000D7ED081A284600F063FD2C3501344C36E9
:100B5000002EEAD199EC030AD9ED081A0AF50A70B9
:100B600000F056FD98EC030AD8ED081A0AF5157046
:100B700000F04EFD4FF07E50CAE9A500CAF89C0275
:100B8000BDE8F88FD0FEFFFF2DE9F843DFF898901D
:100B9000044640F201201F4615460E460021002261
:100BA00001234FF00008009004F19800C84740F27C
:100BB0000220002100220123009004F1E400C84734
:100BC00040F2032000210222012300902046C84762
:100BD00097EC030AD7ED081A144F04F14C00B847FC
:100BE00096EC030AD6ED081A04F59870B84795EC10
:100BF000030AD5ED081A04F5AE70B8474FF4FA5061
:100C0000A4F89000282084F893000948C4F88400D0
:100C10004EF62020A4F89C81A4F8980105480A30DB
:100C2000A4F89A01BDE8F18361CE0008111600080E
:100C30001FF42C3E20EAFFFF194A9189CB086FF080
:100C40005F012C2B88BF6FF05B0180F8281892F8A9
:100C50007130022B04BF41F0020180F8281892F88D
:100C60007230022B04BF41F0040180F8281892F87A
:100C70007330022B04BF41F0080180F8281892F865
:100C80007430022B04BF41F0100180F8281892F84C
:100C90007720022A04BF41F0010180F8281870472C
:100CA0007C2E002459480122818B806905F05CB9B3
:100CB00056480022818B806905F056B92DE9F04134
:100CC0002DED028BDFF80881C047424C8020A04701
:100CD0005520A0475520A0473F4D404F6870B8476A
:100CE0009FED3F8A3F4EB0EE480AB047C047802094
:100CF000A0475520A0475520A0476870B847B0EEE0
:100D0000480AB047C0477E20B62100F039FCB847FA
:100D10009FED350AB047C0478020A0475520A04727
:100D20005520A0476870B847B0EE480AB047C047A2
:100D30008020A0475520A0475520A0476870B8479D
:100D4000B0EE480AB04768781E283BD1734E9FED3D
:100D5000248A002030E0FFF7ABFFA87800EB4001C9
:100D6000705C3144497800F00BFCFFF79BFFB0EE5C
:100D7000480A01F023FEFFF79BFFA87800EB400034
:100D8000305C40F08000A0475520A0475520A04788
:100D90006870FFF787FFB0EE480A01F00FFEA878F1
:100DA0006A7800EB4001013031444B789A421FBF12
:100DB00089782A7811432970A870C0B20528CAD949
:100DC000002000E0FF20BDEC028BBDE8F08100BFF9
:100DD000B10C000855150008C0120024A50C00082D
:100DE0006F12833ABD2900080AD7A33D07480122A4
:100DF000B0F84010C06B05F0B7B800BF0348002240
:100E0000B0F84010C06B05F0AFB800BF740D0024FF
:100E1000F8B52DED028B394CA047394D0020A8477D
:100E2000384EB0479FED388A384FB0EE480AB84781
:100E3000A0470020A847B047B0EE480AB847A047EF
:100E40001420B62100F09CFBB0479FED310AB84753
:100E5000A0470020A847B047B0EE480AB847A047CF
:100E60000020A847B047B0EE480AB847294C607840
:100E70000F283DD1284D9FED248A284E002031E0D7
:100E8000FFF7BCFFA07800EB4001685C294449787B
:100E900000F076FBFFF7AAFFB0EE480A01F08EFDE6
:100EA000FFF7ACFFA07800EB4000285C00F044FBAB
:100EB000FFF79CFFB0EE480A01F080FDA078617852
:100EC00000EB40022A44527891420AD00138C1B264
:100ED000A0704900227851FA80F131448978114399
:100EE00021700130A070C0B20528C9D9002000E0EF
:100EF000FF20BDEC028B01B0F0BD00BFFD0D00086E
:100F000039150008ED0D00086F12833ABD2900085D
:100F10000AD7A33DC0120024922E0108802E01089A
:100F20002DE9F84F2DED184BDFF84C54DFF84C4409
:100F300000224FF00008284621460CF0EBFC04F19B
:100F40002401284600220CF0E5FCDFF8346486F822
:100F50000080FFF7B3FE317808433070FFF758FF89
:100F6000317808433070CDE9068801F05BFDDFED94
:100F7000ED8A9FEDED8ADFF80C949FEDECEA9FED92
:100F8000EC9A9FEDECFADFEDECBADFEDECCADFEDA9
:100F9000ECDADFEDECEAB2EE08CA0DF1180A03AFA5
:100FA0006D46B6EE00DAF4EE009AF3EE07AA86ED8F
:100FB000030AF0EE68FA01F035FD96ED031A30EE03
:100FC000410AB4EECC0AF1EE10FA00F3BD81B0EEA6
:100FD000480A01F0F3FC4FF0000BC4E91BBBC4E965
:100FE0001DBB05E0B0EE490A01F0E8FC0BF1010B76
:100FF000CBF3CC004A2800F20D81FFF759FE922076
:1010000000F0A8FA12205146062200F083FAFFF7FA
:1010100049FE9DF818009DF8191099ED010A40EA63
:10102000012000B201EE100AB8EEC11A9DF81A00B4
:101030009DF81B1020EE011A84ED121A40EA0120DF
:1010400000B202EE100AB8EEC22A9DF81C009DF80C
:101050001D1020EE022A22EE02BA84ED132A01EEC0
:1010600001BA40EA012000B203EE100AB8EEC33A1A
:1010700020EE030A00EE00BA84ED140AB0EE4B0A2B
:1010800010F0A9FCB0EE40AAB4EE4AAAF1EE10FAB4
:1010900005D0B0EE4B0A10F09EFCB0EE40AA94EDE5
:1010A0001E0A3AEE000A84ED1E0AFFF7A7FE002092
:1010B0005146082200F02EFAFFF798FE9DF818001E
:1010C0000F2840D19DF81A009DF81B1099ED020AD7
:1010D00040EA012000B201EE100AB8EEC11A9DF8F4
:1010E0001C009DF81D1020EE011A84ED151A94EDD8
:1010F0001B2A40EA012000B232EE011A84ED1B1ACD
:1011000001EE100AB8EEC11A9DF81E009DF81F10DE
:1011100020EE011A84ED161A94ED1C2A40EA0120F3
:1011200000B232EE011A84ED1C1A01EE100AB8EE7C
:10113000C11A20EE010A84ED170A94ED1D1A31EE52
:10114000000A84ED1D0A5FEA0B4024D0002017E05E
:101150003918221892ED150A91ED001AB4EEC10A61
:10116000F1EE10FAC8BF81ED000A2918043091EDA4
:10117000001AB4EEC10AF1EE10FAB8BF81ED000A10
:101180000C28E5D1B4EEE8AACAFE6FFAF1EE10FA27
:101190007AFE288A0FE0002007E004EB8001496D09
:1011A00047F8201045F8201001300328F5D1F0EE63
:1011B0004A8AF0EE4AFA38EEEF0A002086ED040A79
:1011C0000BE039182A1891ED002A92ED001A311817
:1011D000043032EE411A81ED071A0C28F1D1B4EE39
:1011E000CD0AF1EE10FADEBF96ED070AB4EECE0A94
:1011F000F1EE10FA0EDC96ED080AB4EECE0AF1EE2E
:1012000010FADEBF96ED090AB4EECE0AF1EE10FA3E
:101210007FF7E8AE94ED1E0A002080EE0F0A84ED01
:101220001E0A07E02118043091ED1B0A80EE0F0A18
:1012300081ED1B0A0C28F5D1FFF73AFDA22000F042
:1012400089F922205146022200F064F9FFF72AFDB5
:101250009DF819109DF81800B0EE6A1A490941EA84
:10126000C0004949B8EB902F18BF084300EE100AA0
:10127000B8EEC00AB9F8000000EE291A96ED040A8B
:1012800084ED181A0130B4EEEB0AA9F80000F1EE73
:1012900010FA3FF790AE94ED1EAA3AEE2C0A0EF02B
:1012A000BFFFB4EEED0AF1EE10FADEBF96ED070ACD
:1012B000B4EEEE0AF1EE10FA3FF77DAE96ED080AB5
:1012C000B4EEEE0AF1EE10FADEBF96ED090AB4EEC6
:1012D000EE0AF1EE10FA3FF76EAE94ED1B0A0EF037
:1012E0009FFF9FED2A1AB4EEC10AF1EE10FA3FF704
:1012F00062AE94ED1C0A0EF093FF9FED241AB4EE3B
:10130000C10AF1EE10FA3FF756AE94ED1D0A0EF049
:1013100087FF9FED1E1AB4EEC10AF1EE10FA3FF7F7
:101320004AAE1DE0000000000AD7A33B9A99193E7F
:101330006F12033A00001644CDCC4C3FCDCC1CC1FB
:101340006666663F9A99993E11489FED15AAE06638
:10135000104820671048606710481149A16720664F
:101360009FED100A307880EE0A0A84ED1A0ABDEC6F
:10137000184B01B0BDE8F08FE0240024740D002468
:10138000C01200244000002400F8FFFF8FC2F53C8B
:10139000F2FA88BB7779ABBBE1CB96B900008C42FF
:1013A0002C092441C3F51C412DE9F0410446FFF707
:1013B0007FFC922000F0CEF8654E1220062206F146
:1013C0001405294600F0A6F8FFF76CFC307D717D0E
:1013D0004F4F40EA0120208700B297ED010A94EDBB
:1013E000081A02EE100AB8EEC22A20EE020A21EE16
:1013F000000A84ED000AB07DF17D40EA012060879B
:1014000000B297ED010A02EE100AB8EEC22A20EEF1
:10141000022A21EE022A84ED012A307E717E40EA02
:10142000012001B202EE101AB8EEC22AF080A087A5
:1014300020EE020A21EE000A84ED020AFFF7DEFC2C
:101440000020294608224FF0000800F063F8FFF75B
:10145000CDFC307D0F2834D1B07DF17D40EA0120F4
:10146000E08700B297ED020A94ED091A02EE100A25
:10147000B8EEC22A10EE021A84ED031A307E717E95
:1014800040EA0120A4F8400000B294ED0A1A02EEEE
:10149000100AB8EEC22A10EE021A84ED041AB07EC9
:1014A000F17E40EA0120F080A4F8420000B294ED01
:1014B0000B1A02EE100AB8EEC22A10EE021A84EDE0
:1014C000051AFFF7F5FBA22000F044F82220294678
:1014D000022200F01FF8FFF7E5FB717D307DB4EECE
:1014E000001AB3EE072A490941EAC000B8EB902F71
:1014F00018BF40F4784001B200EE101AB8EEC00AEE
:10150000F08000EE012A84ED072ABDE8F08100BFDB
:1015100040000024B0B540F0800014460D4600F0B5
:1015200019F8200608BFB0BD552000F013F805F8E3
:10153000010B013CF5E7000080B540F0800000F0B1
:1015400009F8552000F006F80149487080BD00BF39
:10155000C0120024E0B58DF8070008484FF47A71F6
:101560000DF10602012300910DF10701406806F01C
:1015700017FE9DF8060002B080BD00BFC82F0024F2
:1015800010B50C46FFF7E6FF2046BDE81040FFF718
:10159000E1BF000010B52DED068B044630EE608AE9
:1015A00084ED038A94ED000A28EE009A84ED059AF2
:1015B00094ED010A94ED06AA08EE00AAB7EEC80A57
:1015C00084ED06AA0FF044FC94ED081AB7EEC11A98
:1015D000B4EEC10BF1EE10FAC2BF9FED0CAA0020D1
:1015E000A06194ED090A94ED021A38EE402A39EE12
:1015F0000A0A21EE423A01EE420A84ED073A84EDEE
:10160000098A84ED0A0ABDEC068B10BD00000000BB
:101610000021C0ED081A80EC030AC0E90511C16180
:101620007047000010B52DED068B044630EE608A41
:1016300084ED038A94ED000A28EE009A84ED059A61
:1016400094ED010A94ED06AA08EE00AAB7EEC80AC6
:1016500084ED06AA0FF0FCFB94ED081AB7EEC11A50
:10166000B4EEC10BF1EE10FAC2BF9FED0EAA00203E
:10167000A06194ED091A94ED020A39EE0A2A38EEB7
:10168000411A20EE413A00EE412A84ED073A84EDFA
:101690000A2ABDEEC20A84ED098A10EE100ABDECDA
:1016A000068B10BD0000000092ED012A92ED023A77
:1016B00092ED001A92ED034A90ED017AB6EE000A1F
:1016C00090ED006AD0ED020AF0EE401A23EE025AC5
:1016D00043EE431A04EE415A44EE441A23EE011A33
:1016E00027EE053AB0EE405A04EE021A06EE213A11
:1016F00001EE203A33EE031A81ED001A92ED012A31
:1017000092ED001A92ED034A92ED023A90ED017AC1
:1017100090ED006AD0ED020A02EE425A61EE041A20
:1017200004EE445A42EE031A23EE044A25EE073A29
:1017300002EE414A06EE213A04EE203A33EE031A55
:1017400081ED011A92ED023A92ED034A92ED012ADF
:1017500092ED001A90ED017A90ED006AD0ED020A48
:1017600024EE035A22EE044A02EE420A02EE015A25
:1017700001EE434A03EE430A25EE071A06EE041A69
:1017800000EE201A31EE010A81ED020A70470000D6
:1017900070B52DED088B04460878AB2840F0998091
:1017A0004878207201288A78627204BF487BDD285D
:1017B00040F08F802078022800F08B804FF0000CE2
:1017C000012564269FED480ABFEE001AB7EE002AF5
:1017D000A4F802C0087B04EB8000D0F824E0C4F831
:1017E00020E00B7B04EB8303D3F82834C4F82434C3
:1017F0002570CD780A7905F03F0015F0C00F10FB79
:10180000062002FE014A03EE100AB8EEC33A83EE48
:10181000003A24EE038A84ED048A48798A7900F03C
:101820003F0510F0C00F15FB062202FE011A03EE61
:10183000102AB8EEC33A83EE000A21EE009AB2EE07
:10184000040A84ED039AC87901EE100AB8EE411A31
:1018500081EE000A84ED050A087A84F829082348F5
:10186000C97A092928BFF73184F82C1884F818C0E0
:10187000807A02282DD11E4D0AEE10EA0BEE103AA6
:1018800095ED120A95ED151A30EE410AB7EEC00A31
:101890000FF0DEFA9FED101BB4EEC10BF1EE10FA63
:1018A00002DAA07A01280AD09FED0D1BB4EEC10B1D
:1018B000F1EE10FA01DAA07A08B1002000E0012070
:1018C00038EE0A0A39EE0B1A207685ED120A85EDFC
:1018D000001ABDEC088B70BD9A9999999999E93FC6
:1018E0009A9999999999D93F0000C842782B002478
:1018F000601D002480B5014684480022C2808448CF
:10190000428A013242828348FFF742FF002080BDB5
:1019100070B50A78AA2A65D14C7804EB440201EB31
:1019200042029278DD2A5DD12F4A9289063A92B21C
:101930002B2A57D89FED2D0A00F65F0C00F6BC034A
:10194000033100224FF0640E80F8544847E090F8CD
:101950004C48022C1ABFB0F8504801340024A0F8BB
:10196000504811F8014C0B2C88BF70BD0CF8024098
:1019700001320C7904EB8404640001EE104AB8EEE5
:10198000C11A83ED001A0C784D7804F07F0614F02C
:10199000800F16FB0E5501EE105AB8EEC11A81EEFB
:1019A000001AB1EE412A01FE021A03ED0A1A8C78E0
:1019B000CD78063104F07F0614F0800F16FB0E552B
:1019C00001EE105AB8EEC11A81EE001AB1EE412AAA
:1019D00001FE021A03ED141A043390F85448E4B2DD
:1019E000A242B4DB70BD00BF103000240000C8422A
:1019F00080B501464648428B013242834548FFF795
:101A000087FF002080BD00BF0A78AA2A69D14A78E2
:101A100080F83A28012A8B7880F83C3818BF704744
:101A200080B5CB7891F804E04FF0640C9FED2D0A5F
:101A30009FED2D4ABFEE002AB7EE003A03F03F02B9
:101A400013F0C00F12FB0CE203FE025A01EE102A43
:101A5000B8EEC11A81EE001A25EE011AB0EE085A4E
:101A600021EE041A21EE051ABDEEC11A11EE102A5C
:101A7000A0F840284A7991F806E002F03F0312F0FE
:101A8000C00F13FB0CE302FE036A01EE103AB8EE3E
:101A9000C11A81EE001A26EE011A21EE041A21EE77
:101AA000051ABDEEC11A11EE102AA0F83E284A7A96
:101AB00080F84828887AC97A00F03F0210F0C00FF9
:101AC00012FB0C1103FE022A01EE101A0749B8EEB0
:101AD000C11A81EE000A22EE000A81ED000ABDE87B
:101AE000804070470000C84200408F4444230024D7
:101AF00080B501460548002242810548828A0132AC
:101B000082820448FFF780FF002080BD080E002479
:101B10001030002450010024FEE700002DE9F04FB2
:101B20008FB0114B00F1080AD3E900C10E919968FA
:101B3000DB680D91D0E900EB9AE8E007D0E90841B5
:101B4000D0E90A20CDE90841CDE90A2002A8CDE973
:101B500000EB80E8E0076046DDE90D210BF0B4F909
:101B600000200FB0BDE8F08F200000242DE9F04FD9
:101B70008FB0114B00F1080AD3E900C10E919968AA
:101B8000DB680D91D0E900EB9AE8E007D0E9084165
:101B9000D0E90A20CDE90841CDE90A2002A8CDE923
:101BA00000EB80E8E0076046DDE90D210BF08CF9E1
:101BB00000200FB0BDE8F08F3000002410B588B0D1
:101BC000044600200221CDE9000002910121CDE967
:101BD000031005906946206803F08EFB2068012100
:101BE000002203F0FDFA206804F012F808B010BDDE
:101BF00070B58AB00C46054601AE142101CC0190A7
:101C00000020CDE902000820049006F11000FEF744
:101C1000B7FB28683146224603F036FBB0FA80F065
:101C200040090AB070BD0000484BDDE90B12984234
:101C30000FD0474B984240D1A2F2012080B2032836
:101C400021D844481E4B00EB42000A0AC2541D4AE8
:101C500032E0A2F2012080B2032807D83D481A4B97
:101C600000EB42000A0AC254184A25E0A2F20520FD
:101C700080B2032821D837483D4B00EB42000A0AC6
:101C8000C2543C4A18E0A2F2052080B2032807D8CB
:101C90003048334B00EB42000A0AC254314A0BE091
:101CA000A2F2092080B2022807D82A482A4B00EB6A
:101CB00042000A0AC254294A81540020704700BFDA
:101CC00026FCFFFF27FCFFFF02FCFFFF03FCFFFFDA
:101CD0001E4BDDE90B1298420FD01D4B984233D1B9
:101CE000A2F2052080B2032821D81A481C4B00EB31
:101CF00042000A0AC2541B4A25E0A2F2052080B223
:101D0000032807D813481A4B00EB42000A0AC254B2
:101D1000184A18E0A2F2092080B2022814D80D480F
:101D2000114B00EB42000A0AC254104A0BE0A2F227
:101D3000092080B2022807D80648074B00EB420072
:101D40000A0AC254054A8154002070474C230024DB
:101D5000EC230024700000242EFCFFFF2FFCFFFF6B
:101D60002AFCFFFF2BFCFFFF0AFCFFFF0BFCFFFF21
:101D700006FCFFFF07FCFFFF01884FF47F43418112
:101D800007990ABA03EA1123120C43EA116102818E
:101D9000418008990BBA090C1B0C83808171028069
:101DA0000020704710B50368094C084AA34206D0CA
:101DB000084CA34218BF10BD02F10C0302E002F16F
:101DC0001C0310321060196010BD00BF20000024F9
:101DD00000A4004000A0004070B52DED0C8B0D4616
:101DE000044600F0BFF904EB80009FED731A00F683
:101DF000940090ED000AB4EEC10AF1EE10FA00F37F
:101E0000C2809FED6E2AB4EEC20AF1EE10FAC0F263
:101E1000BA806B4830EE010A6A4E9FED6B6A80ED26
:101E2000040A95ED152A31EE422AB1EE041A20EE8D
:101E3000014A96ED091A30EE023A32EE025A80ED6E
:101E4000052AB4EEC63AF1EE10FA15DA9FED622AD1
:101E500035EE022AB4EEC24AF1EE10FA36DAB0EEEE
:101E60000C0BB7EEC32AB7EEC11A82EE000BB0EE30
:101E7000042B30EE011B1CE09FED543A35EE444A32
:101E800034EE033AB5EEC03AF1EE10FA2DDA9FEDDA
:101E9000513AB7EEC11A33EE422A32EE400AB0EEA2
:101EA0000C2BB7EEC00A80EE020BB8EE042B31EE1D
:101EB000401BB7EEC11B86ED091A96ED121AB7EE5C
:101EC000C11A00EE021BB7EEC10B20E09FED432AC2
:101ED00095EDD03A32EE432A30EE020ABBEE092AE3
:101EE00031EE001A33EE020A0FE09FED392A95ED2C
:101EF000CF3AB3EE094A33EE022A32EE042A30EE2C
:101F0000420A31EE001A33EE040A86ED091A04F68D
:101F10006C0586ED120A9FED1E8B04F6BC0495ED50
:101F2000000A94ED009AB7EEC00A80EE080B0FF09D
:101F3000FFFB95ED001A9FED18BBB7EEC92A94ED93
:101F400000AA9FED179B9FED18CB9FED19DBB7EE15
:101F5000C11A00EE02BB81EE081BB0EE410B0EF081
:101F600077FEB7EECA1A00EE019B3BEE0C0B39EE82
:101F70000D1B80EE010B0EF077FB20EE080BB7EE89
:101F8000C00B86ED000ABDEC0C8B70BD00BF00BF1E
:101F90006666666666A64C40000000000000594078
:101FA0000000000000D066C000000000004067C0D4
:101FB00000000000007071400000B4420000B4C294
:101FC00070100024601D00240000344300402144B0
:101FD000000087430000B44300000CC30000E64249
:101FE000B0B5044636480078D0B3954DA87A00F0D5
:101FF000F000402818BFB0BDB5F88E100120972919
:1020000024BFB5F8EC10332936D395F8480142289F
:1020100010D195ED510ABAEE001A30EE010AB7EE72
:10202000C00A0EF015FFB0EE001BB4EEC10BF1EECE
:1020300010FA20DB95F88C000B2804D3E98E40F6CB
:10204000C512914217D309289EBF698C40F6C5126C
:10205000914210D30B281BD3298CC9B903200BE064
:102060007748B0F88E00952801D8012004E0154883
:10207000807A012805D1042084F834080020A07259
:10208000B0BD032818BF022084F83408F6D010E051
:1020900000210A2838BF0121A88EB0FA80F0420939
:1020A00003201142E8D1A989F029E5D9022084F85A
:1020B000340894F848080128E0D10120DFE700BF88
:1020C000810F0024782B0024B0B52DED048B224D18
:1020D00004462249B0EE008B286891ED030A90ED8A
:1020E000071A31EE000AB0EE481BB7EEC00A0EF038
:1020F000BBFE2868B0EE409BB0EE481B90ED060A90
:10210000B7EEC00A0EF0B0FE9FED111B144839EE79
:10211000000B4FF0FF31B4EEC10BF1EE10FAC8BF67
:102120000121026811440022B1F5967F0160C8BF09
:102130000122B1F5167F84F8A12202DD4FF4167159
:1021400002E0002901DC00210160BDEC048BB0BD80
:102150000000000000405440A8200024601D00241E
:10216000581D002490F85418012901D1002062E084
:102170002DE9F043324B9FED310A9FED341A9FED6C
:10218000392A9FED353A9FED354A9FED355A00F6D5
:10219000BC0200F65F0C00200FF2A8080FF2B00995
:1021A000002693F88CE042E01CF8067003EB47042D
:1021B000002F04F1100504F1240408BF03F11E05EB
:1021C00008BF03F13204BEF10A0F88BF2C4692ED1E
:1021D000006A4D462488B4EEC16A642C444638BF78
:1021E0000434F1EE10FAC8BF043594ED007A042FE0
:1021F00095ED006A36EE476A07D8DFE807F0030975
:102200000C0E0E0036EE036A07E036EE026A04E0BA
:1022100036EE046A01E036EE056AB4EEC06A0432B6
:1022200086FE400AF1EE10FAB8BF30460136B142E0
:10223000BAD1BDE8F043C0B2704700BF00401C46B1
:102240007C2E00240000000000007A4400409C45E1
:10225000000000000000FA440000C8C2000048C3AB
:102260000000FAC30000C84291ED021A90ED012A65
:1022700091ED010A90ED023A22EE011A03EE401AA6
:1022800082ED001A91ED000A90ED023A91ED021AEA
:1022900090ED002A23EE000A02EE410A82ED010AC7
:1022A00091ED011A90ED002A91ED000A90ED013AAE
:1022B00022EE011A03EE401A82ED021A7047000066
:1022C000014801F09DBC00BFC01A0024014801F084
:1022D00097BC00BF00180024014801F091BC00BF6A
:1022E000401B0024014801F08BBC00BF7013002488
:1022F000014801F085BC00BFF0130024014801F043
:102300007FBC00BF70140024014801F079BC00BFFD
:10231000F0140024014801F073BC00BF70150024C4
:10232000014801F06DBC00BFA00E0024014801F07F
:1023300067BC00BFD0110024014801F061BC00BFA0
:10234000E0180024014801F05BBC00BFF015002438
:10235000014801F055BC00BF20170024014801F0DE
:102360004FBC00BFC0190024014801F049BC00BFA8
:10237000401A0024000000000168B722C4F20202E3
:10238000914213DD40F25742C4F2020291421EDC38
:1023900040F22742C4F20202914233DCB822C4F276
:1023A000020291424AD040F2104243E05722C4F266
:1023B000020291421ADD8722C4F2020291422ADC13
:1023C0005822C4F20202914238D0702232E040F228
:1023D0008742C4F20202914224DC40F25842C4F225
:1023E000020291422AD040F2704223E01022C4F24D
:1023F000020291421EBF2822C4F2020291421DD065
:10240000402217E040F22842C4F20202914215D065
:1024100040F240420EE08822C4F2020291420DD006
:10242000A02207E040F2A042C4F20202914205D08D
:1024300040F28842C4F2020291421BD1D0F800C09F
:102440006FF00F0151FA8CF34AF6AB21CAF6AA21BC
:10245000A3FB0112C2F302110CA2515CC16540F250
:10246000FF312CEA01015F2B88BF41F00401816537
:1024700008467047D0F800C040F2B843C4F20203E7
:102480009942DDD02CF0FF01F1E700BF00061016E5
:10249000000610160000000010B5026845F29441D5
:1024A000C5F6020145F24343C5F602039A420EDD2A
:1024B00045F26B43C5F602039A4217DC45F24443EA
:1024C000C5F602039A421DD045F2584316E045F284
:1024D0000843C5F602039A421EBF45F21C43C5F6E7
:1024E00002039A420ED045F2304307E045F28043A2
:1024F000C5F602039A4205D045F26C43C5F60203C5
:102500009A4217D10378A3F108024CF6CD43CCF6DA
:10251000CC43A2FB03231B0901F57B7201F55B7120
:1025200001EB830103F01F03012404FA03F360307D
:102530000EC010BD03788A42E5D0A3F110014AF61F
:10254000AB23CAF6AA23A1FB031C4FF0080E4FEAE7
:102550001C1140F20F44C4F20204A2420B4688BF91
:102560000EEB1C13AA34A24228BF0B4640F6000112
:10257000C4F2020101F18002D2E700000000000075
:1025800001790139072988BF704710B502684FF0FB
:10259000010E45F6001CC5F6020C40F60013C4F20D
:1025A000020345F24344C5F60204A2420EDD45F2A1
:1025B0006B44C5F60204A24217DC45F24444C5F65A
:1025C0000204A24226D045F2584416E045F20844DF
:1025D000C5F60204A2421EBF45F21C44C5F6020421
:1025E000A24217D045F2304407E045F26C44C5F6EC
:1025F0000204A2420ED045F28044C5F60204A24273
:1026000008D04AF66C34CAF2FD742244B2FA82F25F
:102610004FEA521EBEF1000F03F1400218BF63469D
:1026200003EB8103BEF1000F18BF0CF1400201243F
:1026300004FA01F1C0E91B324167BDE81040704760
:102640008269816AB2F5005F06D06AB9022912D0A8
:10265000012915D0D9B90EE0032918D8DFE801F017
:10266000020B02100120704703293CBF0120704774
:102670001CBF0020704790F82F0000F00100704749
:10268000C06AA0F1C070B0FA80F040097047002025
:102690007047000000000000B0B50468D0F858C0D2
:1026A00040F26F4EC4F2020E744516DC9F25C4F250
:1026B0000205AC422CDC5725C4F20205AC424FDCCB
:1026C0001025C4F20205AC421EBF2825C4F2020543
:1026D000AC4200F0858040256BE045F22F45C5F601
:1026E0000205AC4227DC40F2B745C4F20205AC4219
:1026F00042DC40F27045C4F20205AC421EBF40F21B
:102700008845C4F20205AC426AD040F2A04550E0D0
:1027100040F22745C4F20205AC423CDCA025C4F2DD
:102720000205AC421EBFB825C4F20205AC4257D028
:1027300040F210453DE045F26B45C5F60205AC425E
:102740003CDC45F23045C5F60205AC421EBF45F201
:102750004445C5F60205AC4242D045F258453BE03F
:102760005825C4F20205AC421EBF7025C4F2020512
:10277000AC4235D088251CE040F2B845C4F20205D1
:10278000AC421EBF45F20845C5F60205AC4227D053
:1027900045F21C4520E040F22845C4F20205AC4257
:1027A0001EBF40F24045C4F20205AC4218D040F2D0
:1027B0005845C4F20205AC4212D01AE045F26C450D
:1027C000C5F60205AC421EBF45F29445C5F60205AA
:1027D000AC4205D045F28045C5F60205AC4208D1B1
:1027E000D0E919456560C46E002C1CBFD0E91C45BA
:1027F00065600468744515DC9F25C4F20205AC428F
:102800002BDC5725C4F20205AC424EDC1025C4F285
:102810000205AC421EBF2825C4F20205AC4271D0AD
:1028200040256BE045F22F45C5F60205AC4227DC9A
:1028300040F2B745C4F20205AC4242DC40F27045BA
:10284000C4F20205AC421EBF40F28845C4F2020544
:10285000AC4257D040F2A04550E040F22745C4F2C8
:102860000205AC423CDCA025C4F20205AC421EBF0E
:10287000B825C4F20205AC4244D040F210453DE018
:1028800045F26B45C5F60205AC4256DC45F23045D3
:10289000C5F60205AC421EBF45F24445C5F6020529
:1028A000AC425DD045F2584555E05825C4F20205CA
:1028B000AC421EBF7025C4F20205AC4222D088256E
:1028C0001CE040F2B845C4F20205AC421AD045F211
:1028D0000845C5F60205AC4242D045F21C453AE037
:1028E00040F22845C4F20205AC421EBF40F240450A
:1028F000C4F20205AC4205D040F25845C4F20205CC
:10290000AC4242D1C56D05F01F053F2404FA05F520
:10291000CCF8085005682C6824F480242C600568E5
:102920006B6003688568402D0D4608BF15469D60A5
:1029300008BF0A460068C260B0BD45F26C45C5F6E6
:102940000205AC421EBF45F28045C5F60205AC4209
:1029500006D045F29445C5F60205AC4218BFB0BD9D
:10296000C56D05F01F05012404FA05F5CCF80450E7
:1029700005686B6003688568402D0D4608BF1546E5
:102980009D6008BF0A460068C260B0BD6848017813
:1029900001B1704781B00121017064490A68009259
:1029A000009A43699A4201B03EBF02690132026156
:1029B0000968416100210170704700BF5B485C4AB3
:1029C000016892ED011AB8EE411A21EE000A026880
:1029D000521A01EE102AB8EE411AB4EEC10AF1EE15
:1029E00010FAF4DC704700BF80B52DED047B4F4931
:1029F0004F4A09680191019992ED010A0268891A0A
:102A0000B8EE400A019A01EE101A0260B8EE411ABF
:102A100081EE008AFFF7BAFFB0EE480ABDEC047BF6
:102A200080BD00BF80B500F049F80E490C489FED0D
:102A30000F2A9FED0F3A91ED060A0B49008809888D
:102A400004EE100A01EE101AB8EE411AB8EE400A70
:102A5000B8EE444A01EE020A04EE030A80BD00BF4C
:102A6000C0220024B00F0024BC2200246F12833A3D
:102A7000BD3786350E494FF0000C0A6842F080726F
:102A80000A604FF47A720B49C1F804C00B6843F036
:102A900001030B60264B08494843B0FBF2F2B0FB40
:102AA000F1F1C3E90102C3E9031CFFF76FBF00BFE7
:102AB000FCED00E0001000E040420F00F8B51B48BC
:102AC00000680090FFF762FF194F4FF0FF310025BB
:102AD00000233869009CE0FB0145C7E90C4520460E
:102AE00029467E683246FDF7F3FBA0FB0623A41AB5
:102AF00001FB06324FF00003954107F1200233C27B
:102B0000B86120462946BE683246FDF7E1FB094917
:102B1000FA680023088080B27043201A65F1000132
:102B2000FDF7D6FB04490880F8BD00BF041000E0A3
:102B3000B00F0024BC220024C0220024704791ED75
:102B4000010A90ED014A91ED001A90ED003A91EDE5
:102B5000022A90ED025A24EE000A03EE010A05EE65
:102B6000020A7047C0E90012704700004FF480610C
:102B7000018041808180C18001498160704700BF30
:102B8000000303000A780F2A40F084802DE9F04109
:102B9000414A00234FF480689380404AD38901332F
:102BA000D3814D788A7862F30A250580A5F2DF3556
:102BB0008A78CB78ADB23A2D4FEAD20463F34A1447
:102BC0004480A4F2DF340B794F79CA78A4B24FEA7B
:102BD000830308EA872743EA921242EA07068680BF
:102BE0004A798F794FEA520367F3CA13C380A3F27D
:102BF000DF33CA7A4F7A91F807C091F808E0897AF2
:102C000098BFA0F800803A2C9BB29CBF4FF4806420
:102C10004480A6F2DF34A4B23A2C4FEA97054FEA7B
:102C2000C2029CBF4FF4806484803A2B4FEA811427
:102C30009CBF4FF48063C380490944EA0503DBB2BB
:102C40002BB1612B05D09E2B05D1022302E003237B
:102C500000E00123437211434FEA4E034FEADC15B3
:102C6000C9B229B1612905D09E2905D1022102E00E
:102C7000032100E00121817243EA0501C9B2612903
:102C8000BDE8F04104D09E2918BF7047002100E044
:102C900001210172704700BF080E0024103000248B
:102CA00080B5014602480022FFF76CFF002080BD7E
:102CB000782B002492ED001A92ED034A92ED012A3E
:102CC00092ED023A90ED017AB6EE000A90ED006ABC
:102CD000D0ED020AF0EE401A24EE015A43EE431AF8
:102CE00003EE025A44EE441A24EE022A27EE054A65
:102CF000B0EE405A03EE412A06EE214A02EE204A87
:102D000034EE041A81ED001A92ED012A92ED023A96
:102D100092ED034A92ED001A90ED017A90ED006A6F
:102D2000D0ED020A02EE425A62EE031A04EE445A51
:102D300041EE441A23EE043A25EE074A02EE013A28
:102D400006EE214A03EE204A34EE041A81ED011A00
:102D500092ED023A92ED034A92ED001A92ED012AA9
:102D600090ED017A90ED006AD0ED020A24EE035A4C
:102D700061EE031A02EE420A02EE415A42EE041AD2
:102D800003EE430A25EE071A06EE211A00EE201A7A
:102D900031EE010A81ED020A70477047014802F0E6
:102DA000C3BB00BF4C230024014802F0BDBB00BFE1
:102DB000EC230024000000000168426BD1F884C0BD
:102DC0004FF6FC732CEA030343EA8203C1F8843014
:102DD0000168D1F88430D0F838C023F47F0343EA87
:102DE0000C43C1F884300168836B1A44D1F88830F1
:102DF0006FF38F0343EA8203C1F888300168D1F88A
:102E00008830D0F83CC023F4FE0343EA0C43C1F8F9
:102E100088300168C36B02EB4302D1F8A0306FF336
:102E20008F0343EA8203C1F8A0300168D1F8A030D3
:102E3000D0F840C023F4FE0343EA0C43C1F8A030AD
:102E40000168D0E910C303FB0C22D1F8B0306FF356
:102E50008F0343EA8203C1F8B0300168D1F8B03083
:102E6000D0F848C023F4FE0343EA0C43C1F8B03065
:102E7000D0F800C0D0E9123101FB0321DCF8AC200E
:102E80006FF38F0242EA81020368C3F8AC20D0F8E6
:102E900000C0D0E9143202FB0311DCF8F0206FF31C
:102EA0008F0242EA81020368C3F8F0200268D2F878
:102EB000F020D0F800C0836D22F47C1242EA034275
:102EC000CCF8F0200268836D01EB4301D2F8C020FA
:102ED0006FF38F0242EA81010268C2F8C0100168F4
:102EE000D1F8C0100268C36D21F47C1141EA03419E
:102EF000C2F8C0100168D1F8C0100268036E21F05A
:102F00007C5141EA0361C2F8C010416B4AF60042AD
:102F1000C4F2000202EB8101C166826B01EB820107
:102F20000167C26B01EBC2014167D0E910235A432C
:102F300001EB82018167D0E912235A4301EB820140
:102F4000C167D0E914235A4301EB8201C0F8801015
:102F5000826D01EBC201C0F88410C26D836E5A43CA
:102F600001EB8201C0F88810026E836E5A4301EBB8
:102F70008201C0F890104DF2FD32C4F2000291427D
:102F80000BD3D0F89C1041F02001C0F89C10032115
:102F900080F89810012108467047C26ED0F8901052
:102FA0008A4222BF0021084670474FF0000100BF4F
:102FB00042F8041BD0F890309A42F9D30846704783
:102FC0002DE9F043D1E900CED1E90248D1E9046905
:102FD000D1E9065734434CEA040646F08046BEF178
:102FE000000F08BF44EA8C46846ED0F88400634327
:102FF0000C6A40F8236000EB830047EA04632B432C
:1030000043EA090343EA08434360CB68002B08BF47
:10301000BDE8F08300F108004FF0000343F2B40C68
:10302000C0F6010CD758C750CF681CF8077004339E
:10303000BB42F7D3BDE8F083C1898180018AC1809A
:10304000418A0180818A4180018B4181418B81814C
:10305000002101834183C0F81210C0F80E100AF05D
:1030600019B800001249884204BF1048704712493D
:10307000884204BF0F4870471149884204BF0F4877
:103080007047114988420DD01149884204BF0F484A
:1030900070471149884207D01249884214BF0F482F
:1030A0000F487047074870470A4870472C30002483
:1030B0004C26002400310024E0260024D4310024D2
:1030C00074270024A8320024082800247C3300241C
:1030D0009C2800245034002430290024F835002492
:1030E00024350024C42900242DE9F84380463448BF
:1030F0000079C0070BD13349B8F89C01C97B01297D
:1031000018BF4FF0FF310844A8F89C0101E0B8F85F
:103110009C0100B200214FF47A724FF000090CF0CC
:1031200092FEA8F89C019FED240B6FF007064FF468
:103130009877B8F9981111FB00F101EE101AB8EE6A
:10314000C11B21EE001BB7EEC11B88ED621AB8F956
:103150009A1110FB01F001EE100AB8EEC11B21EE2E
:10316000000BB7EEC00BB1EE400A88ED630A1EE01B
:1031700008EB090508EB060408EB0700B5F9A210F7
:1031800094ED640A01EE101AF8EEC10AFEF74AFA4D
:10319000014605F1980000EE101AB8EEC00A84ED61
:1031A000660A09F013FE2C3709F14C090436002E8B
:1031B000DED1BDE8F88300BFFCA9F1D24D62503FDB
:1031C000F00F0024782B0024A0B180B5DFF82CC0CC
:1031D0000BE010F801EBD3B202F47F42013983EA2D
:1031E0000E033CF8133083EA12220029F1D1BDE826
:1031F000804001E04FF6FF7290B27047C430010882
:103200002DE9F04381B0044602F0BEFE0546002CD5
:1032100002BF012001B0BDE8F08394F83500022818
:103220001ED1206840F2B848C4F2020840F2B70943
:10323000C4F20209484517DD40F25741C4F20201C9
:10324000884222DC40F22741C4F20201884237DC86
:10325000B821C4F2020188424FD040F2104147E049
:103260008020606501208AE25721C4F20201884271
:103270001ADD8721C4F2020188422ADC5821C4F2F7
:103280000201884239D0702132E040F28741C4F215
:103290000201884224DC40F25841C4F20201884213
:1032A0002BD040F2704123E01021C4F20201884289
:1032B0001EBF2821C4F2020188421ED0402117E01F
:1032C00040F22841C4F20201884216D040F2404147
:1032D0000EE08821C4F2020188420ED0A02107E04E
:1032E00040F2A041C4F20201884206D040F2884177
:1032F000C4F20201884240F0EB8121680A6822F0A2
:103300001E0008602068416921F080014161276842
:10331000206840F26F46C4F20206B04216DC9F21DC
:10332000C4F2020188422CDC5721C4F20201884217
:103330004FDC1021C4F2020188421EBF2821C4F2D2
:103340000201884200F08180402167E045F22F4170
:10335000C5F60201884227DC40F2B741C4F20201FF
:10336000884242DC40F27041C4F2020188421EBF32
:1033700040F28841C4F20201884266D040F2A04186
:103380004CE040F22741C4F20201884238DCA0211F
:10339000C4F2020188421EBFB821C4F20201884271
:1033A00053D040F2104139E045F26B41C5F60201BD
:1033B000884238DC45F23041C5F6020188421EBF22
:1033C00045F24441C5F6020188423ED045F25841DB
:1033D00037E05821C4F2020188421EBF7021C4F2B6
:1033E0000201884231D0882118E040451EBF45F2D5
:1033F0000841C5F60201884227D045F21C4120E071
:1034000040F22841C4F2020188421EBF40F240410E
:10341000C4F20201884218D040F25841C4F20201BD
:10342000884212D016E045F26C41C5F6020188428E
:103430001EBF45F29441C5F60201884205D045F20F
:103440008041C5F60201884204D1206E016821F452
:1034500080710160206840F20F41C4F2020188428D
:1034600010DC6F21C4F2020188421CDC3F21C4F24F
:103470000201884232DC1021C4F2020188424ED09F
:10348000282146E0B0421ADC40F23F41C4F202017A
:1034900088422ADC40F21041C4F2020188423ED048
:1034A00040F2284135E09F21C4F20201884225DC28
:1034B0007021C4F20201884231D0882129E040F213
:1034C0009F41C4F2020188421FDC40F27041C4F205
:1034D0000201884223D040F288411AE04021C4F220
:1034E000020188421BD0582113E040F24041C4F24F
:1034F0000201884213D040F258410AE0A021C4F2F0
:10350000020188420BD0B82103E0404507D040F2C9
:10351000A041C4F20201884208BF206800E0206890
:10352000016821F001010160386810F0010F0BD033
:1035300002F02AFD401B0628F6D3202060650320F8
:1035400084F8350001201AE12068484513DD40F277
:103550005741C4F2020188421EDC40F22741C4F206
:103560000201884233DCB821C4F2020188424BD008
:1035700040F2104143E05721C4F2020188421ADDB3
:103580008721C4F2020188422ADC5821C4F20201D8
:10359000884239D0702132E040F28741C4F2020102
:1035A000884224DC40F25841C4F2020188422BD008
:1035B00040F2704123E01021C4F2020188421EBF94
:1035C0002821C4F2020188421ED0402117E040F2B7
:1035D0002841C4F20201884216D040F240410EE078
:1035E0008821C4F2020188420ED0A02107E040F2F7
:1035F000A041C4F20201884206D040F28841C4F2E0
:103600000201884240F0C180D4E9161000F01F0288
:103610003F20904088602068B04216DC9F21C4F2B1
:10362000020188422CDC5721C4F20201884258DC96
:103630001021C4F2020188421EBF2821C4F20201F7
:10364000884200F08A80402170E045F22F41C5F6A3
:103650000201884227DC40F2B741C4F202018842ED
:103660004BDC40F27041C4F2020188421EBF40F2BE
:103670008841C4F2020188426FD040F2A04155E077
:1036800040F22741C4F20201884241DCA021C4F289
:10369000020188421EBFB821C4F2020188425CD0F8
:1036A00040F2104142E045F26B41C5F6020188420A
:1036B00041DC45F23041C5F6020188421EBF45F2A9
:1036C0004441C5F60201884247D045F2584140E0E6
:1036D00021680A6840453FF412AE22F00E000860EF
:1036E00015E65821C4F2020188421EBF7021C4F2BF
:1036F0000201884231D0882118E040451EBF45F2C2
:103700000841C5F60201884227D045F21C4120E05D
:1037100040F22841C4F2020188421EBF40F24041FB
:10372000C4F20201884218D040F25841C4F20201AA
:10373000884212D01FE045F26C41C5F60201884272
:103740001EBF45F29441C5F60201884205D045F2FC
:103750008041C5F6020188420DD1D4E919014160CA
:10376000E06E00281FBF016821F480710160D4E978
:103770001C0118BF4160012084F8350000200021A1
:1037800084F8341001B0BDE8F083D4E9161202F0D9
:103790001F0240453FF43CAF0120904048603AE7AB
:1037A000E8B190F83510022917D1016840F20F42B4
:1037B000C4F20202914215DC6F23C4F20203994263
:1037C00025DC3F23C4F2020399423BDC1023C4F200
:1037D0000203994259D0282353E0802141650121F9
:1037E0000846704740F26F43C4F2020399421ADC64
:1037F00040F23F43C4F2020399422ADC40F21043F4
:10380000C4F20203994240D040F2284339E09F239A
:10381000C4F20203994225DC7023C4F202039942E8
:1038200033D088232DE040F29F43C4F20203994233
:103830001FDC40F27043C4F20203994225D040F2EB
:1038400088431EE04023C4F2020399421DD058234E
:1038500017E040F24043C4F20203994215D040F20F
:1038600058430EE0A023C4F2020399420DD0B823BE
:1038700007E040F2B843C4F20203994205D040F297
:10388000A043C4F20203994271D1042180F835109B
:103890000168914210DC6F22C4F20202914220DCE6
:1038A0003F22C4F20202914236DC1022C4F202022C
:1038B000914254D028224EE040F26F42C4F20202FC
:1038C00091421ADC40F23F42C4F2020291422ADCE9
:1038D00040F21042C4F20202914240D040F228422B
:1038E00039E09F22C4F20202914225DC7022C4F228
:1038F0000202914233D088222DE040F29F42C4F26E
:10390000020291421FDC40F27042C4F20202914274
:1039100025D040F288421EE04022C4F202029142C9
:103920001DD0582217E040F24042C4F202029142F8
:1039300015D040F258420EE0A022C4F20202914299
:103940000DD0B82207E040F2B842C4F20202914220
:1039500005D040F2A042C4F20202914220D1006898
:10396000016821F0010101600021084670470168EB
:103970000B6823F00E030B600168914215DC6F2287
:10398000C4F20202914225DC3F22C4F202029142BB
:103990003BDC1022C4F2020291425BD0282253E0A9
:1039A000086820F001000860DEE740F26F42C4F2D0
:1039B000020291421ADC40F23F42C4F202029142FA
:1039C0002ADC40F21042C4F20202914242D040F29C
:1039D000284239E09F22C4F20202914225DC702283
:1039E000C4F20202914235D088222DE040F29F427B
:1039F000C4F2020291421FDC40F27042C4F20202A1
:103A0000914227D040F288421EE04022C4F20202D6
:103A100091421FD0582217E040F24042C4F2020205
:103A2000914217D040F258420EE0A022C4F20202A6
:103A300091420FD0B82207E040F2B842C4F202022D
:103A4000914207D040F2A042C4F20202914208BF64
:103A5000016800E001680A6822F001020A6001685A
:103A600040F26F42C4F20202914216DC9F22C4F27D
:103A7000020291422CDC5722C4F2020291424FDC36
:103A80001022C4F2020291421EBF2822C4F2020296
:103A9000914200F0858040226BE045F22F42C5F64E
:103AA0000202914227DC40F2B742C4F20202914284
:103AB00042DC40F27042C4F2020291421EBF40F268
:103AC0008842C4F2020291426AD040F2A04250E021
:103AD00040F22742C4F2020291423CDCA022C4F22E
:103AE000020291421EBFB822C4F20202914257D094
:103AF00040F210423DE045F26B42C5F602029142AF
:103B00003CDC45F23042C5F6020291421EBF45F24E
:103B10004442C5F60202914242D045F258423BE08F
:103B20005822C4F2020291421EBF7022C4F2020265
:103B3000914235D088221CE040F2B842C4F2020221
:103B400091421EBF45F20842C5F60202914227D0BB
:103B500045F21C4220E040F22842C4F202029142A7
:103B60001EBF40F24042C4F20202914218D040F21D
:103B70005842C4F20202914212D02CE045F26C424B
:103B8000C5F6020291421EBF45F29442C5F60202FA
:103B9000914205D045F28042C5F6020291421AD107
:103BA000016E0A6822F480720A60D0E9161202F0EF
:103BB0001F02012303FA02F24A60D0E919124A6097
:103BC000C16E00291FBF0A6822F480720A60D0E922
:103BD0001C1218BF4A60012180F83510002180F8BE
:103BE0003410026D22B180B590470021BDE88040BD
:103BF0000846704700000000406D7047000000005C
:103C00002DE9F04182B004460020019040F20C0002
:103C1000C2F20040006848F2B511C1F64E31A0FB77
:103C20000108A56D2E682968206840F26F47C4F22C
:103C30000207B84215DC9F21C4F2020188422BDC46
:103C40005721C4F2020188424EDC1021C4F2020165
:103C500088421EBF2821C4F20201884272D040214E
:103C60006BE045F22F42C5F60202904227DC40F29B
:103C7000B742C4F20202904242DC40F27041C4F208
:103C8000020188421EBF40F28841C4F2020188420C
:103C900058D040F2A04150E040F22741C4F2020166
:103CA00088423CDCA021C4F2020188421EBFB82138
:103CB000C4F20201884245D040F210413DE045F295
:103CC0006B42C5F60202904274DC45F23042C5F602
:103CD000020290421EBF45F24442C5F602029042E3
:103CE0007BD045F2584273E05821C4F20201884269
:103CF0001EBF7021C4F20201884223D088211CE03B
:103D000040F2B842C4F2020290421BD045F208428F
:103D1000C5F60202904260D045F21C4258E040F2E3
:103D20002841C4F2020188421EBF40F24041C4F261
:103D30000201884206D040F25841C4F20201884292
:103D400040F0D283E06D00F01F00082101FA00F07E
:103D5000304200F01E81206840F20F41C4F202019F
:103D6000884213DC6F21C4F20201884200F3908084
:103D70003F21C4F20201884200F3D2801021C4F234
:103D80000201884200F0F0802821E8E0B84200F308
:103D90008B8040F23F41C4F20201884200F3C780A9
:103DA00040F21041C4F20201884200F0DD8040F28E
:103DB0002841D4E045F26C42C5F6020290421EBF93
:103DC00045F28042C5F60202904206D045F2944286
:103DD000C5F60202904240F0878320680068E26DD9
:103DE00002F01F0210F0040F1EBF0423934013EAD9
:103DF00001062AD1830766D50223934013EA010600
:103E000061D06B60010400F16983800600F1E984F0
:103E1000206840F20F41C4F20201884200F3168488
:103E20006F21C4F20201884200F391843F21C4F261
:103E30000201884200F3A6841021C4F202018842E4
:103E400000F0C384282100F0BCBC6B6001045FD487
:103E5000800600F15084206840F20F41C4F2020154
:103E6000884200F398836F21C4F20201884200F374
:103E7000B6833F21C4F20201884200F3FB83102184
:103E8000C4F20201884200F03084282100F028BCEE
:103E90009F21C4F20201884252DC7021C4F2020167
:103EA000884261D088215AE040F29F41C4F2020169
:103EB00088424CDC40F27041C4F20201884253D087
:103EC00040F288414BE0000740F10E83082090400B
:103ED000084000F00983206840F20F41C4F202015B
:103EE000884200F36A836F21C4F20201884200F322
:103EF00082833F21C4F20201884200F3C283102171
:103F0000C4F20201884200F00784282100F000BCBE
:103F1000C0034CBF216CA16C002940F03783E3E261
:103F20004021C4F2020188421ED0582117E040F21D
:103F30004041C4F20201884216D040F258410EE0DE
:103F4000A021C4F2020188420ED0B82107E040F25D
:103F5000B841C4F20201884206D040F2A041C4F246
:103F60000201884240F0C3822068042100680842B0
:103F70000FD02068016821F004010160E06D00F0BD
:103F80001F00082101FA00F0A860606D40F00100F8
:103F90006065E06D00F01F00012101FA00F0304281
:103FA00078D0206840F20F41C4F20201884210DC50
:103FB0006F21C4F2020188421CDC3F21C4F20201DD
:103FC000884232DC1021C4F20201884251D02821FB
:103FD0004AE0B8421ADC40F23F41C4F20201884292
:103FE0002ADC40F21041C4F20201884241D040F282
:103FF000284139E09F21C4F20201884225DC70216A
:10400000C4F20201884234D088212DE040F29F4161
:10401000C4F2020188421FDC40F27041C4F2020186
:10402000884226D040F288411EE04021C4F20201BD
:1040300088421ED0582117E040F24041C4F20201EC
:10404000884216D040F258410EE0A021C4F202018D
:1040500088420ED0B82107E040F2B841C4F2020114
:10406000884206D040F2A041C4F20201884240F0EA
:104070004082206814308021006808420AD0E06D38
:1040800000F01F00012101FA00F0A860606D40F00F
:1040900002006065E06D00F01F00042101FA00F0ED
:1040A000304277D0206840F20F41C4F202018842CA
:1040B00010DC6F21C4F2020188421CDC3F21C4F2F3
:1040C0000201884232DC1021C4F20201884251D040
:1040D00028214AE0B8421ADC40F23F41C4F2020112
:1040E00088422ADC40F21041C4F20201884241D0E9
:1040F00040F2284139E09F21C4F20201884225DCC8
:104100007021C4F20201884234D088212DE040F2AF
:104110009F41C4F2020188421FDC40F27041C4F2A8
:104120000201884226D040F288411EE04021C4F2BC
:10413000020188421ED0582117E040F24041C4F2EB
:104140000201884216D040F258410EE0A021C4F28C
:10415000020188420ED0B82107E040F2B841C4F213
:104160000201884206D040F2A041C4F20201884216
:1041700040F0C18120680221006808420AD0E06D49
:1041800000F01F00042101FA00F0A860606D40F00B
:1041900004006065E06D00F01F00102101FA00F0DE
:1041A000304200F08B80206840F20F41C4F20201DF
:1041B000884210DC6F21C4F2020188421CDC3F21DE
:1041C000C4F20201884232DC1021C4F202018842AA
:1041D00051D028214AE0B8421ADC40F23F41C4F2F3
:1041E000020188422ADC40F21041C4F202018842F6
:1041F00041D040F2284139E09F21C4F202018842B7
:1042000025DC7021C4F20201884234D088212DE0DF
:1042100040F29F41C4F2020188421FDC40F270412B
:10422000C4F20201884226D040F288411EE04021BB
:10423000C4F2020188421ED0582117E040F24041EA
:10424000C4F20201884216D040F258410EE0A0218B
:10425000C4F2020188420ED0B82107E040F2B84112
:10426000C4F20201884206D040F2A041C4F2020129
:10427000884240F0428120680821006808421DD031
:10428000E06D00F01F00102101FA00F0A860206826
:104290000168006811F4802F07D1C0055FBF206856
:1042A000016821F00801016001E0000301D4216CE4
:1042B00000E0A16C00291CBF20468847E06D00F09B
:1042C0001F00202101FA00F0304200F0B880206881
:1042D00040F20F41C4F20201884210DC6F21C4F2A7
:1042E000020188421CDC3F21C4F20201884232DC18
:1042F0001021C4F20201884251D028214AE0B8427C
:104300001ADC40F23F41C4F2020188422ADC40F24A
:104310001041C4F20201884241D040F2284139E004
:104320009F21C4F20201884225DC7021C4F20201FF
:10433000884234D088212DE040F29F41C4F202012E
:1043400088421FDC40F27041C4F20201884226D04C
:1043500040F288411EE04021C4F2020188421ED092
:10436000582117E040F24041C4F20201884216D0C1
:1043700040F258410EE0A021C4F2020188420ED062
:10438000B82107E040F2B841C4F20201884206D0E9
:1043900040F2A041C4F20201884240F0B08020689F
:1043A0001021006808424AD0E06D00F01F00202173
:1043B00001FA00F0A86094F8352021680868042A02
:1043C00022D120F0160008602068416921F08001A8
:1043D0004161206C08B9A06C20B12068016821F00F
:1043E00008010160E06D00F01F003F2101FA00F0BC
:1043F000A860012084F83500002084F83400216D85
:10440000002940F0C3806FE02168096840030DD4A3
:10441000C8050FD42068016821F010010160012057
:1044200084F83500002084F8340003E0080301D448
:10443000616C00E0E16B00291CBF20468847606D7D
:10444000002851D0606D10F0010F00F09C80042016
:1044500084F83500206840F20F41C4F2020188421E
:1044600010DC6F21C4F2020188421CDC3F21C4F23F
:104470000201884245DC1021C4F20201884265D065
:1044800028215DE0B8421ADC40F23F41C4F202014B
:1044900088423DDC40F21041C4F20201884255D00E
:1044A00040F228414CE09F21C4F20201884238DCEE
:1044B0007021C4F20201884248D0882140E040F2D5
:1044C0009F41C4F20201884232DC40F27041C4F2E2
:1044D000020188423AD040F2884131E0C00354BF23
:1044E000616CE16B002951D102B0BDE8F081082177
:1044F0003CE50021C0E500213EE60421BDE60221A5
:104500004FE74021C4F2020188421FD0582117E032
:1045100040F24041C4F20201884217D040F25841B3
:104520000EE0A021C4F2020188420FD0B82107E0BA
:1045300040F2B841C4F20201884207D040F2A041E3
:10454000C4F20201884208BF206800E020684FEAF8
:104550009821026822F00102026000BF0198421C0B
:10456000019220688A4203D8026812F0010FF5D147
:10457000006800F00100012141EA400084F83500A4
:10458000002084F83400E16C0029ADD02046884733
:1045900002B0BDE8F081B8423ADC40F23F41C4F2DB
:1045A0000201884274DC40F21041C4F202018842E8
:1045B00000F09B8040F2284192E0B84237DC40F2A4
:1045C0003F41C4F2020188426BDC40F21041C4F268
:1045D0000201884200F0A08040F2284198E09F212B
:1045E000C4F20201884265DC7021C4F202018842F3
:1045F0007BD0882174E09F21C4F20201884260DCF4
:104600007021C4F20201884200F0868088217FE098
:1046100040F29F41C4F20201884259DC40F27041ED
:10462000C4F20201884260D040F2884158E040F272
:104630009F41C4F20201884262DC40F27041C4F240
:104640000201884268D040F2884161E0B84200F33C
:104650008A8040F23F41C4F20201884200F399800F
:1046600040F21041C4F20201884200F0AE8040F2F4
:104670002841A6E04021C4F20201884235D05821E9
:104680002EE04021C4F20201884245D058213FE08B
:1046900040F24041C4F20201884226D040F2584123
:1046A0001EE040F24041C4F20201884234D040F2A0
:1046B00058412DE0A021C4F20201884215D0B82152
:1046C0000EE0A021C4F20201884225D0B8211FE0EB
:1046D00040F2B841C4F20201884206D040F2A04143
:1046E000C4F20201884240F0818020686FF0080126
:1046F000026811400160216C00297FF447AFF3E6A6
:1047000040F2B841C4F20201884205D040F2A04113
:10471000C4F2020188426CD120686FF01C0102686B
:1047200011400160E06D00F01F00012101FA00F06E
:104730006860616584F83510002084F83400E16C0D
:1047400000291CBF2046884702B0BDE8F0819F21A8
:10475000C4F20201884225DC7021C4F202018842C1
:1047600033D088212DE040F29F41C4F202018842FB
:104770001FDC40F27041C4F20201884225D040F2B1
:1047800088411EE04021C4F2020188421DD0582118
:1047900017E040F24041C4F20201884215D040F2D5
:1047A00058410EE0A021C4F2020188420DD0B82188
:1047B00007E040F2B841C4F20201884205D040F25D
:1047C000A041C4F20201884216D120686FF01401A2
:1047D000026811400160012084F83500002084F84F
:1047E0003400E16B00297FF4D1AE7DE66FF0040167
:1047F0007EE76FF00E0192E76FF00A01E8E7000034
:104800002DE9F04381B0044601F0BEFB0546002CC3
:1048100000F07381206840F26F48C4F202084045FE
:1048200015DC9F21C4F2020188422BDC5721C4F21F
:104830000201884250DC1021C4F2020188421EBFEE
:104840002821C4F20201884274D040216DE045F273
:104850002F41C5F60201884227DC40F2B741C4F27D
:104860000201884244DC40F27041C4F202018842F5
:104870001EBF40F28841C4F2020188425AD040F281
:10488000A04152E040F22741C4F2020188423EDCDE
:10489000A021C4F2020188421EBFB821C4F2020165
:1048A000884247D040F210413FE045F26B41C5F6E7
:1048B0000201884200F38F8045F23041C5F60201C3
:1048C00088421EBF45F24441C5F60201884200F00D
:1048D000958045F258418CE05821C4F2020188428B
:1048E0001EBF7021C4F20201884223D088211CE03F
:1048F00040F2B841C4F2020188421BD045F208419F
:10490000C5F60201884279D045F21C4171E040F2BF
:104910002841C4F2020188421EBF40F24041C4F265
:104920000201884206D040F25841C4F20201884296
:1049300040F01482022084F83500002084F834000E
:10494000206840F20F41C4F20201884212DC6F215C
:10495000C4F20201884220DC3F21C4F202018842F5
:1049600000F391801021C4F20201884200F0B0806F
:104970002821A7E040451EDC40F23F41C4F202017D
:10498000884200F3878040F21041C4F2020188425D
:1049900000F09E8040F2284194E09F21C4F2020181
:1049A000884200F380807021C4F20201884200F046
:1049B0008F80882186E040F29F41C4F20201884244
:1049C00078DC40F27041C4F20201884200F080803D
:1049D00040F2884176E045F26C41C5F6020188421A
:1049E0001EBF45F28041C5F60201884206D045F25D
:1049F0009441C5F60201884240F0B081022084F85B
:104A00003500002084F8340021680A68D4E90237B0
:104A1000D4E90465D4E906CED4F820906FF31012DF
:104A200042EAD702802B08BF4FF48040402B08BFDA
:104A30001020104340EAD60040EAD50040EADC00EE
:104A400040EADE0040EA1910086020684AF6F831B2
:104A5000CAF2FD7108444CF6CD41CCF6CC41A0FB26
:104A600001014FF6FC70C3F6FF7000EA9100E065AB
:104A70002046FDF781FCE16D01F01F01012202FAE1
:104A800001F14160A4E04021C4F2020188421FD03C
:104A9000582117E040F24041C4F20201884217D089
:104AA00040F258410EE0A021C4F2020188420FD02A
:104AB000B82107E040F2B841C4F20201884207D0B1
:104AC00040F2A041C4F20201884208BF206800E021
:104AD0002068016821F00101016000BF20680168C1
:104AE00011F0010F0DD001F04FFA401B0628F5D34D
:104AF00020206065032084F83500012001B0BDE866
:104B0000F083006848F23F01CFF6106100EA010C23
:104B100004F10807EECFD4E9080E41EA0C01114375
:104B200019432943314339430843BEF1040F02BFFF
:104B3000D4E90B120843104341F20001C5F60041CD
:104B40000968B1F1005F1CD361682939292918D897
:104B5000DFE801F015151515151517171717171795
:104B600017171717171717171717151515151717DD
:104B7000171715151717171717171515151540F4CB
:104B800080102168086020684069616A20F0070091
:104B900040EA010504290FD1D4E90A01054359B1BE
:104BA0002046FDF74DFD38B140206065012084F8B6
:104BB000350001B0BDE8F083206845612046FDF76F
:104BC000DBFBE16D01F01F013F2202FA01F1816080
:104BD0002068404516DC9F21C4F2020188422CDC8B
:104BE0005721C4F2020188424FDC1021C4F20201B5
:104BF00088421EBF2821C4F20201884200F085804D
:104C000040216BE045F22F41C5F60201884227DCC6
:104C100040F2B741C4F20201884242DC40F27041E6
:104C2000C4F2020188421EBF40F28841C4F2020170
:104C300088426AD040F2A04150E040F22741C4F2DD
:104C4000020188423CDCA021C4F2020188421EBF5E
:104C5000B821C4F20201884257D040F210413DE031
:104C600045F26B41C5F6020188423CDC45F2304119
:104C7000C5F6020188421EBF45F24441C5F6020155
:104C8000884242D045F258413BE05821C4F202012B
:104C900088421EBF7021C4F20201884235D08821AB
:104CA0001CE040F2B841C4F2020188421EBF45F246
:104CB0000841C5F60201884227D045F21C4120E098
:104CC00040F22841C4F2020188421EBF40F2404136
:104CD000C4F20201884218D040F25841C4F20201E5
:104CE000884212D032E045F26C41C5F6020188429A
:104CF0001EBF45F29441C5F60201884205D045F237
:104D00008041C5F60201884220D12046FDF7C4FB50
:104D1000A068802804BF00206060206E21790160B7
:104D2000D4E9190141606068A0F10100072809D8A1
:104D30002046FDF725FCE06E00210160D4E91C014E
:104D4000416003E00020C4E91B006067002060654B
:104D5000012184F8351001B0BDE8F0834020C8E699
:104D600070B504468CB394F83400012802BF0220C9
:104D7000C0B270BD4FF0010084F8340094F83500E3
:104D800001281CD1022084F83500002060652068CD
:104D900040F20F46C4F20206B04219DC6F25C4F29D
:104DA0000205A84229DC3F25C4F20205A8423FDCE7
:104DB0001025C4F20205A8425FD0282557E04FF421
:104DC00000606065002084F834000120C0B270BD2E
:104DD00040F26F45C4F20205A8421ADC40F23F459A
:104DE000C4F20205A8422ADC40F21045C4F20205D2
:104DF000A84242D040F2284539E09F25C4F202057E
:104E0000A84225DC7025C4F20205A84235D08825C9
:104E10002DE040F29F45C4F20205A8421FDC40F29B
:104E20007045C4F20205A84227D040F288451EE032
:104E30004025C4F20205A8421FD0582517E040F2D1
:104E40004045C4F20205A84217D040F258450EE092
:104E5000A025C4F20205A8420FD0B82507E040F211
:104E6000B845C4F20205A84207D040F2A045C4F2FA
:104E70000205A84208BF206800E02068056825F008
:104E8000010505602046FDF707FC2068B721C4F244
:104E90000201884213DD40F25741C4F20201884208
:104EA0001EDC40F22741C4F20201884233DCB82103
:104EB000C4F2020188424BD040F2104143E0572136
:104EC000C4F2020188421ADD8721C4F2020188423D
:104ED0002ADC5821C4F20201884239D0702132E024
:104EE00040F28741C4F20201884224DC40F258417A
:104EF000C4F2020188422BD040F2704123E010211D
:104F0000C4F2020188421EBF2821C4F20201884275
:104F10001ED0402117E040F22841C4F2020188422D
:104F200016D040F240410EE08821C4F202018842CE
:104F30000ED0A02107E040F2A041C4F20201884255
:104F400006D040F28841C4F20201884240F0298133
:104F5000226811680B2060F344011160206C20B1BD
:104F60002068016841F008010160216840F26F404B
:104F7000C4F20200814216DC9F22C4F20202914276
:104F80002CDC5722C4F2020291424FDC1022C4F200
:104F9000020291421EBF2822C4F20202914200F096
:104FA000858040226BE045F22F42C5F60202914215
:104FB00027DC40F2B742C4F20202914242DC40F2E6
:104FC0007042C4F2020291421EBF40F28842C4F213
:104FD000020291426AD040F2A04250E040F22742E1
:104FE000C4F2020291423CDCA022C4F202029142CD
:104FF0001EBFB822C4F20202914257D040F21042C2
:105000003DE045F26B42C5F6020291423CDC45F2BE
:105010003042C5F6020291421EBF45F24442C5F637
:105020000202914242D045F258423BE05822C4F27B
:10503000020291421EBF7022C4F20202914235D098
:1050400088221CE040F2B842C4F2020291421EBF24
:1050500045F20842C5F60202914227D045F21C42B1
:1050600020E040F22842C4F2020291421EBF40F208
:105070004042C4F20202914218D040F25842C4F2B7
:105080000202914212D021E045F26C42C5F60202C2
:1050900091421EBF45F29442C5F60202914205D0EC
:1050A00045F28042C5F6020291420FD1216E0A6894
:1050B00012F4803F1EBF0A6842F480720A60E16EFB
:1050C00000291EBF0A6842F480720A602168B1425A
:1050D00010DC6F20C4F2020081421CDC3F20C4F2CD
:1050E0000200814232DC1020C4F20200814250D022
:1050F00028204AE081421ADC40F23F40C4F202001C
:1051000081422ADC40F21040C4F20200814240D0C9
:1051100040F2284039E09F20C4F20200814225DCA1
:105120007020C4F20200814233D088202DE040F28A
:105130009F40C4F2020081421FDC40F27040C4F282
:105140000200814225D040F288401EE04020C4F297
:10515000020081421DD0582017E040F24040C4F2C6
:105160000200814215D040F258400EE0A020C4F267
:10517000020081420DD0B82007E040F2B840C4F2EE
:105180000200814205D040F2A040C4F202008142F8
:105190001ED12068016841F0010101600020C0B209
:1051A00070BD2268116840F2B843C4F2020398420D
:1051B0003FF4D0AE052060F3430120680160206C0D
:1051C00000283FF4D2AE2068016841F00401CBE62C
:1051D000086840F001000860E0E7000000000000FF
:1051E00090F89830013BDBB2012B18D8D0F800C002
:1051F000DCF858300B4217D080B5D0F800E0DEF86C
:1052000058300B408B4206BFDEF85C3043F0020C96
:105210004FF0030CCEF85CC0BDE880400AE000F11E
:105220009C01012002222AE0DCF85C3043F00103FB
:10523000CCF85C308B0541BFD0F800C0DCF8E03022
:105240001343CCF8E0304B0541BFD0F800C0DCF888
:10525000E4301A43CCF8E4204FF6FF72C3F6CF7265
:1052600002EA01020068436D42EA030242654FEA26
:1052700091724FF000004AF61401C4F200010B686D
:105280001A430A6070470000B0B5044694F89800CD
:1052900002281BD12068D0F8C03013F07C5F1AD0F0
:1052A000D0F8C43013F4001F1AD1D0F8C400C0F3F2
:1052B000044520462B46FDF783FE0120A8402168C7
:1052C000C1F8D000C4F894000020B0BDD4F89C0010
:1052D00040F0080008E0D4F89C0040F0200003E013
:1052E000D4F89C0040F40070C4F89C000120B0BDCC
:1052F000704700000000000090F89820013AD2B2F8
:10530000012A09D80A68D1E9033C6AB14CEA437220
:10531000072B15D18B6918E0D0F89C1041F00201E1
:10532000C0F89C100120704780B54FEA0C4C072B49
:1053300014D101F1180ECA6913024FF0605212E045
:10534000D1F808C04B6943EA8C734968006F40F894
:10535000312000EBC10043600020704701F1140EC2
:10536000DA068B689B0742EA0C021A43DEF800302B
:105370001A434968C06E40F82120002080BD00001B
:1053800070470000000000007047000000000000AF
:1053900070B590F89850022D22D1402925D104688B
:1053A000D4F8A05015F4FE0F00F0A280D4F8A45059
:1053B00015F07F0F00F0AA80D4F8A45015F0807F7C
:1053C0001ABFD4F8A050ED0F0025D4F8A440C4F3C0
:1053D000052404EB050E00F17404456CF44630E03E
:1053E000D0F89C1041F0080194E041291FD10468D5
:1053F000D4F8B05015F4FE0F7AD0D4F8B45015F0AC
:105400007F0F00F08380D4F8B45015F0807F1ABF6E
:10541000D4F8B050ED0F0025D4F8B440C4F30524FF
:1054200004EB050E00F17804C56CF44609E0056D47
:105430008D425DD900F17C04D0F854E04FF0000CAF
:105440000D4605FB0EFE246854F82E5015F08045DD
:10545000556054F82E50C5F38A4618BF25F06046B3
:10546000166054F82E5005F00055956054F82E50F3
:1054700005F00045156104EB8E05AE88D661EE8817
:1054800006F00F06D6606E6806F4801656616E68E8
:1054900006F400169661EE7906F07F0616626E68D5
:1054A000F60F5662D6686EB10835002443F2B40E8A
:1054B000C0F6010E2E5D1E55D6681EF8066001343A
:1054C000B442F7D30068402902BFC0F8A8C000204A
:1054D00070BD412902BFC0F8B8C0002070BD1F29AF
:1054E0000BD8012202FA01F1C0F89810002070BD1B
:1054F000D0F89C1041F020010CE001F01F010122C6
:1055000002FA01F1C0F89C10002070BDD0F89C1088
:1055100041F48071C0F89C10012070BD00000000B3
:1055200070470000000000002DE9F04F87B00446EE
:105530004AF61007C4F2000739684AF61400C4F2AC
:10554000000002682068056DD0F85490036D009348
:10555000D0F85480036D0293436D0193036D06935D
:10556000436D0593036D0493436D0393436D066D83
:1055700003EA060B5FEACB5302EA010A07D54FF4B0
:1055800080710165002038602046FFF7C9FF05EAF9
:1055900009064FEA8A755FEA4B50B9460ED5206876
:1055A000D0F8DC10D0F8E4204FF4806303650020CD
:1055B000C9F800001140204600F05EFB009808EAA0
:1055C000000806F4704655B12068002101650AF014
:1055D0000300C9F8000020462946FFF789FEDDE9EF
:1055E000011000EA010708F00F0546B120680665C2
:1055F0000020C9F800002046314600F045FB07F0C6
:10560000F00645B1206805650020C9F80000204675
:10561000294600F0CBFA46B1206806650020C9F89B
:1056200000002046314600F0EFFA5FEA0B5009D542
:1056300020684FF4006101650020C9F80000204691
:1056400000F026FB5FEA8B500ED52068D0F8D8100A
:10565000D0F8E0204FF4007303650020C9F8000083
:105660001140204600F00CFB5FEA0B3009D52068A2
:105670004FF4002101650020C9F80000204600F029
:1056800093FA5FEACB3009D520684FF48031016589
:105690000020C9F80000204600F0EAFADDE9031016
:1056A00000EA01055FEA4B3009D520684FF48021FC
:1056B00001650020C9F80000204600F0D5FADDE9B8
:1056C0000510084005F060715FEA8B320CD5226846
:1056D0004FF4003313650022C9F80020D4F89C2051
:1056E00042F08002C4F89C2000F0715539B1206866
:1056F00001650020C9F800002046FFF745FE4DB1C6
:10570000206805650020C9F80000D4F89C002843F3
:10571000C4F89C002068A9F50161884263D16068E3
:10572000816811F0030F5ED0016A426A114011F0E6
:105730000F01026A436A02EA030202F03005066AB8
:10574000D0F82490026A0492D0F824B0026A06923B
:10575000426A0592D0F82480D0F820A003D00162DC
:10576000204600F075FA06EA09072DB16068056267
:105770002046294600F074FA049800EA0B0607F464
:10578000C07508EA0A0040060AD56068C16BC26BA2
:1057900040230362090C02F03F02204600F05CFA4D
:1057A000DDE9051000EA010706F4FC462DB160684A
:1057B00005622046294600F047FA07F4F020002E43
:1057C0001FBF61680E62D4F89C10314318BFC4F843
:1057D0009C1000281FBF61680862D4F89C10084321
:1057E00018BFC4F89C00D4F89C00002804BF07B080
:1057F000BDE8F08F204607B0BDE8F04FFFF7C0BD11
:105800002DE9F041044674B320684AF20008C4F25E
:105810000008404504BF00F58070606094F898006F
:1058200028B9002084F89900204600F025F9206866
:10583000816921F01001816100F0A6FB054600BFDF
:105840002068816911F0080F10D000F09DFB401B0B
:105850000B28F5D3D4F89C0040F00100C4F89C005C
:10586000032084F898000120BDE8F081816941F0AF
:105870000101816100F088FB054600BF2068816955
:1058800011F0010F10D100F07FFB401B0B28F5D366
:10589000D4F89C0040F00100C4F89C00032084F878
:1058A00098000120BDE8F081816941F00201816129
:1058B000207C21688A6942F04003012808BF22F059
:1058C00040038B61607C21688A6922F4804301284F
:1058D00008BF42F480438B61A07C21688A6942F44E
:1058E0008053012808BF22F480538B6120688169AE
:1058F000A26821F44071114381612068816921F01F
:10590000A40181612068016921F010010161E26850
:10591000EAB1012A05D12068816941F00401816161
:1059200015E0206850F8181F022A0DD041F08001C0
:1059300001602068016941F010010161E0680328FD
:1059400005D1206850F8181F41F02001016022683D
:10595000D4E90530D4E907154FF07E4606EB4066E2
:105960006FF0FF0000EB012131436E1E0E4300215A
:10597000CFF6FF7101EB03433343D361A268B2F565
:10598000407F11D104F124064CCE256B6FF00F0738
:1059900007EB0517256800EB0620013B1843384349
:1059A00001EB02410843E860206E00281FBF206819
:1059B000616ED0F8C020114318BFC0F8C010D4E900
:1059C0001701C8420ED02068D0F8C810A26E42F667
:1059D000B473C0F6010353F8222021F007011143EC
:1059E000C0F8C810206C70B12068D0F8BC10626C90
:1059F00042F6B473C0F6010353F8222021F00701E8
:105A00001143C0F8BC10A06C78B12068D0F8BC106D
:105A1000E26C42F6B473C0F6010353F8222021F081
:105A2000700141EA0211C0F8BC10206D78B1206805
:105A3000D0F8BC10626D42F6B473C0F6010353F89F
:105A4000222021F4E06141EA0221C0F8BC10206864
:105A5000404504D16068816821F003018160002025
:105A6000C4F89400C4F89C00012084F898002046F3
:105A7000BDE8F041FDF7A0B9B0B5B8B0044633A811
:105A80001421FAF77DFC02A8C021FAF779FC2068FE
:105A9000404C414D414988423DD05849884276D1D9
:105AA000002003904FF4004002904FF080501E9071
:105AB00002A801F089F808B1FDF76FF938480168CC
:105AC0004A1C0029026008D1E86840F48070E86050
:105AD000E86800F4807001900198286833A940F0CC
