:020000040800F2
:10000000B0430024AD020008C1ED000863A200085F
:10001000B9EA00085D1B0008E112010800000000B9
:100020000000000000000000000000003DF7000894
:10003000052B00080000000043EE000825FC000826
:10004000C7020008C7020008C7020008C70200086C
:10005000C7020008C7020008C7020008C70200085C
:10006000C7020008C7020008C70200087D22000876
:100070008922000895220008A1220008AD2200086C
:10008000B9220008C5220008C7020008652D000833
:10009000712D0008C7020008C7020008C702000847
:1000A000C7020008C7020008C7020008C70200080C
:1000B000C7020008C7020008C7020008C7020008FC
:1000C000C702000859AB0008C7020008BDF40008C9
:1000D000C70200088D120108A5120108BD1201080F
:1000E000C7020008C702000800000000C70200089D
:1000F0002100010815000108C7020008D1220008EC
:10010000C7020008C7020008C7020008C7020008AB
:10011000F105010809060108C7020008C702000826
:10012000DD220008E9220008F5220008012300086A
:100130000D230008C7020008C7020008C702000814
:1001400000000000000000000000000000000000AF
:10015000192300082523000831230008D5120108BF
:10016000C7020008C7020008C7020008C70200084B
:10017000C7020008C7020008C7020008C70200083B
:10018000C7020008C7020008210601083906010855
:10019000C7020008C7020008C7020008C70200081B
:1001A000C7020008C7020008C7020008C70200080B
:1001B000C7020008C7020008C7020008C7020008FB
:1001C000C7020008C7020008C7020008C7020008EB
:1001D000C7020008C7020008C7020008C7020008DB
:1001E000C7020008C7020008C7020008C7020008CB
:1001F000C7020008C7020008C7020008C7020008BB
:10020000C7020008C7020008C7020008C7020008AA
:10021000C7020008C7020008C7020008C70200089A
:10022000C7020008C7020008C7020008000000005B
:10023000C7020008C702000800000000C70200084B
:10024000C7020008C7020008C7020008C70200086A
:10025000C7020008C7020008C7020008C70200085A
:10026000C7020008C7020008C7020008C70200084A
:10027000C7020008C7020008C7020008000000000B
:10028000C7020008C7020008C702000800000000FB
:1002900000000000C7020008DFF80CD000F080FA70
:1002A00000480047911C0108B043002406488047DD
:1002B00006480047FEE7FEE7FEE7FEE7FEE7FEE74B
:1002C000FEE7FEE7FEE7FEE719FD000899020008D9
:1002D0002DE9F05F0546002092469B46884606467B
:1002E000814640241BE0284641464746224600F00E
:1002F00077F853465A46C01A914110D31146184612
:10030000224600F05EF82D1A67EB01084F462246A0
:100310000120002100F055F817EB00094E41201E86
:10032000A4F10104DFDC484631462A464346BDE8D5
:10033000F09F10B5431A934209D28318881803E03E
:1003400010F8011D03F8011D521EF9D210BD40EA3C
:1003500001039B0703D009E008C9121F08C0042A43
:10036000FAD203E011F8013B00F8013B521EF9D22A
:1003700010BDD2B201E000F8012B491EFBD270473C
:100380000022F6E710B513460A4604461946FFF761
:10039000F0FF204610BD30B50B460146002020225C
:1003A000012409E021FA02F59D4205D303FA02F582
:1003B000491B04FA02F52844151EA2F10102F1DCE2
:1003C00030BD202A04DB203A00FA02F100207047F9
:1003D0009140C2F1200320FA03F319439040704783
:1003E000202A04DB203A21FA02F00021704721FA8A
:1003F00002F3D040C2F120029140084319467047F1
:100400002DE9FE4F804681EA0300C00F0C460090A4
:1004100021F0004123F00045B8EB0200A94105D2CC
:100420004046214690461C460B46024623F00040BB
:10043000104347D0270DC7F30A00C3F30A510290B7
:10044000401A019040286BDAC3F3130040F4801B7C
:100450000098924620B10023D2EB030A63EB0B0B0A
:1004600001985946C0F140025046FFF7AAFF0646E0
:100470000D4650465946019A00F0A4F910EB0800C9
:100480006141002487EA115284EAE7731A4340D09D
:10049000009A62B3019A012A4FEA075215DC001B49
:1004A00061EB02014FF0004202EA0752CDE900423F
:1004B000001C41F5801132462B4600F0A4F903B030
:1004C000BDE8F08F40462146F9E7001B61EB0201D1
:1004D000001C41F5801300185B412018A2F500179D
:1004E00047EB030140EAD570B6196D4111E06D0884
:1004F0004FEA360645EAC0754FEA0752001B61EB2A
:100500000201001C41F5801149084FEA3000001932
:10051000514132462B4603B0BDE8F04F00F064B9BC
:100520000098012240000023D0EB020263EBE0734D
:10053000009821464FEAE074B8EB000061EB04013B
:10054000E9E783F000435BE781F0004158E72DE9DC
:10055000FE4F81EA030404F0004421F000410094BE
:100560004FF0000B23F0004350EA01045ED052EA42
:1005700003045BD0C3F30A54C1F30A552C44A4F21C
:10058000F3340194A0FB0254C1F3130141F4801130
:10059000C3F3130343F4801301FB024400FB034E37
:1005A000840A970A44EA815447EA8357A4FB076800
:1005B00002958D0A05FB07854FEA932C04FB0C542A
:1005C0002705029D4FEA065847EA1637B5EB08059E
:1005D0006EEB070C870E920E47EA811742EA8312F0
:1005E000A7FB0201B6EB0B0164EB00042B0D43EA01
:1005F0000C335E1844EB1C50DA465146E7FB02010F
:10060000C5F313044FEA0B3343EA14534FEA0432A1
:10061000019C43EA0603A4F10C040294009CCDE97A
:1006200000B400F0F0F803B0BDE8F08F0020014600
:10063000F9E72DE9F04D81EA030404F0004B21F0C5
:10064000004514464FF0000A23F0004150EA05022D
:1006500020D054EA01021DD0C5F30A570246C5F363
:100660001303C1F31300C1F30A5640F4801543F499
:100670008013A7EB0608101BD64608F2FD3873EB73
:10068000050002D308F1010801E092185B41B8F1BE
:10069000000F03DA00200146BDE8F08D00204FF482
:1006A0008011064684460EE0171B73EB050705D341
:1006B000121B63EB050306434CEA010C49084FEAA1
:1006C000300092185B4150EA0107EDD152EA030075
:1006D00012D082EA040083EA0501084305D0101B0A
:1006E000AB4106D20122002306E000224FF0004376
:1006F00002E06FF0010253101AEB06004CEB0851B8
:1007000010EB0A0041EB0B01BDE8F04D00F06CB8B6
:1007100070B521F0004303430CD0C1F30A55002407
:10072000D5EB040564EB0403D617AD1AB34102DB25
:100730000020014670BD201841EB025170BDC1F38D
:100740000A52C1F3130140F2FF3341F480119A427F
:1007500002DA00200146704740F233439A42A2F287
:10076000334202DC5242FFF73BBEFFF72ABE0000D5
:1007700030B5041E71F1000404DB4FF00044404228
:1007800064EB0101141E73F1000405DB1C464FF0FD
:100790000043524263EB0403994208BF904230BDCC
:1007A000064C074D06E0E06840F0010394E80700BE
:1007B00098471034AC42F6D3FFF772FD984F01080A
:1007C000B84F0108202A06DBCB17203A41FA02F085
:1007D00043EAE07306E041FA02F3D040C2F120029E
:1007E000914008431946704710B5141E73F1000478
:1007F00008DA401C41F1000192185B411A4301D113
:1008000020F0010010BD2DE9F04D92469B4611B13C
:10081000B1FA81F202E0B0FA80F220329046FFF79E
:10082000D0FD04460F4640EA0A0041EA0B01534658
:100830005A46084313D0114653EA010019D0C8F1B3
:1008400040025046FFF7CCFD05460E46504659463D
:100850004246FFF7B6FD084305D0012004E02046DC
:100860003946BDE8F08D0020054346EAE0762C438A
:1008700037430A986305E40AA0EB08000022FD0A4A
:1008800044EA47540A3002D500200146E9E7010551
:1008900010196941DDE9084500196941BDE8F04DCD
:1008A000A2E770B58C1810F8015B15F0070301D1B1
:1008B00010F8013B2A1106D110F8012B03E010F8C3
:1008C000016B01F8016B5B1EF9D12B0705D40023E6
:1008D000521E0DD401F8013BFAE710F8013BCB1A88
:1008E000921C03E013F8015B01F8015B521EF9D57D
:1008F000A142D8D3002070BD2DE9F8432DED0E8B19
:1009000004465F48B0EE408ADFF87C8194EDA09AFF
:10091000B0F976905B4800F63C0696ED000AB1EE21
:10092000400AB7EEC00AC04796ED001A584F94ED42
:10093000A1AA564DB7EEC92A20EE029BB1EE411A8C
:10094000B7EEC11AB0EE410BB847B7EECA1A00EEC7
:10095000419BB7EEC90B85ED040A96ED000A94EDB4
:10096000A0AAB1EE400AB7EEC00AB847B0EE409B6D
:1009700096ED000A94EDA1BAB1EE400AB7EEC00AB6
:10098000C0479FED441AB7EECB2AB7EECA3A04EE41
:10099000109A20EE020B9FED382B09EE030BB8EEF8
:1009A000C43BB7EEC00B28EE011A85ED050AB7EE81
:1009B000C11A95ED04BA03EE021BB7EEC10BB7EEF8
:1009C000C08AB0EE480BB84795ED05CAB0EE409B23
:1009D000B0EE480BC04795ED04DAB0EE40ABB0EE98
:1009E000480BC04795ED05EAB7EECD1A20EE01DBC6
:1009F000B0EE480BB847B7EECE1AB7EECC2A204679
:100A000000EE41DBB7EECB0A2AEE021BB7EECD2B90
:100A100009EE001B85ED062AB7EEC10BB1EE424A86
:100A200094EDA21A32EE403A34EE404A31EE033AE7
:100A300031EE044ABDEEC33A84ED1E3A30EE423A3E
:100A4000BDEEC44A30EE020A31EE033A84ED314A7B
:100A500030EE010ABDEEC32A84ED442ABDEEC00A81
:100A600084ED570ABDEC0E8B01B0BDE8F0430EF0EB
:100A700097BF00BF00BF00BF94F6065F984C65BFEC
:100A80009C1D00241401002469290108A0100024E1
:100A90004934010803FA8EBC2DE9F84F1B4E8246FB
:100AA000984691460F4640F201240AF5BC7B5D460C
:100AB00012E0A0B200210022022300900BEB0600FE
:100AC0000EF046F897EC030AD7ED081A284600F016
:100AD000ADFD2C3501344C36002EEAD199EC030AD9
:100AE000D9ED081A0AF50A7000F0A0FD98EC030A87
:100AF000D8ED081A0AF5157000F098FD4FF07E50F9
:100B0000CAE9A500CAF89C02BDE8F88FD0FEFFFF35
:100B10002DE9F843DFF89890044640F201201F4683
:100B200015460E460021002201234FF000080090D8
:100B300004F19800C84740F202200021002201235E
:100B4000009004F1E400C84740F203200021022293
:100B5000012300902046C84797EC030AD7ED081AF6
:100B6000144F04F14C00B84796EC030AD6ED081A6E
:100B700004F59870B84795EC030AD5ED081A04F50A
:100B8000AE70B8474FF4FA50A4F89000282084F8CB
:100B900093000948C4F884004EF6BC10A4F89C8168
:100BA000A4F8980105480A30A4F89A01BDE8F18339
:100BB00051EB00082D1600081FF42C3EBCE9FFFF86
:100BC0005B480122B0F85C10806D05F051BA00BF9F
:100BD00057480022B0F85C10806D05F049BA00BF9C
:100BE0002DE9F0412DED028BDFF80881C047424C22
:100BF0008020A0475520A0475520A0473F4D404F9B
:100C00006870B8479FED3F8A3F4EB0EE480AB04744
:100C1000C0478020A0475520A0475520A0476870B6
:100C2000B847B0EE480AB047C0477E20B62100F072
:100C3000B5FCB8479FED350AB047C0478020A047B4
:100C40005520A0475520A0476870B847B0EE480A25
:100C5000B047C0478020A0475520A0475520A04757
:100C60006870B847B0EE480AB04768781E283BD194
:100C7000734E9FED248A002030E0FFF7A9FFA8788B
:100C800000EB4001705C3144497800F087FCFFF7CD
:100C900097FFB0EE480A01F075FEFFF799FFA878BC
:100CA00000EB4000305C40F08000A0475520A0479A
:100CB0005520A0476870FFF783FFB0EE480A01F0A7
:100CC00061FEA8786A7800EB4001013031444B782E
:100CD0009A421FBF89782A7811432970A870C0B240
:100CE0000528CAD9002000E0FF20BDEC028BBDE83A
:100CF000F08100BFD10B000871150008B01200246C
:100D0000C10B00086F12833A852900080AD7A33D5A
:100D100007480122B0F88410D0F8800005F0A8B987
:100D200003480022B0F88410D0F8800005F0A0B984
:100D3000780D0024F8B52DED028B394CA047394DC4
:100D40000020A847384EB0479FED388A384FB0EEA4
:100D5000480AB847A0470020A847B047B0EE480A65
:100D6000B847A0471420B62100F018FCB0479FED0B
:100D7000310AB847A0470020A847B047B0EE480A5C
:100D8000B847A0470020A847B047B0EE480AB84788
:100D9000294C60780F283DD1284D9FED248A284E9C
:100DA000002031E0FFF7BCFFA07800EB4001685C59
:100DB0002944497800F0F2FBFFF7AAFFB0EE480A99
:100DC00001F0E0FDFFF7ACFFA07800EB4000285CED
:100DD00000F0C0FBFFF79CFFB0EE480A01F0D2FD27
:100DE000A078617800EB40022A44527891420AD000
:100DF0000138C1B2A0704900227851FA80F1314423
:100E00008978114321700130A070C0B20528C9D97A
:100E1000002000E0FF20BDEC028B01B0F0BD00BF60
:100E2000210D000855150008110D00086F12833AB6
:100E3000852900080AD7A33DB0120024424B0108BF
:100E4000304B01082DE9F84F2DED1A3BDFF82854FF
:100E5000044604F1480128460EF0AFFB04F170018E
:100E600028460EF0AAFBDFF8146400253570FFF762
:100E7000B7FE317808433070FFF75CFF3178ADF88A
:100E8000245008433070CDE9075501F0AFFDDFED88
:100E9000E8DA9FEDE88A9FEDF3FA9FEDF39ADFED34
:100EA000F3AADFEDF3BADFEDF3CA04F1180704F19A
:100EB0000C05B2EE08DA0DF110080DF1040AB6EED9
:100EC00000EAF4EE008AF3EE079A86ED020AF0EEED
:100ED0006DEAF0EE6DFA01F089FD96ED021A30EE42
:100EE000410AB4EECD0AF1EE10FA00F3A581B0EE9E
:100EF000480A01F047FD4FF00009B0EE6DCAC4E9A1
:100F00000699C4F8209005E0B0EE490A01F03AFDD8
:100F100009F101091FFA89F041F26F71884200F26C
:100F20000A810DF11C0B122008220023594600F003
:100F3000B1FA9DF81E009DF81F1040EA0120D0492B
:100F400000B201EE100A0A4692ED010AB8EEC11A8B
:100F500020EE010A84ED000A9DF820009DF8211082
:100F600092ED011A40EA012000B202EE100AB8EE3A
:100F7000C22A21EE022A84ED012A22EE02BA9DF84D
:100F800022009DF8231000EE00BA40EA012000B2D2
:100F900003EE100AB8EEC33A21EE031A01EE01BACD
:100FA00084ED021AB0EE4B0A12F0A1FBB0EE40AA9B
:100FB000B4EE4AAAF1EE10FA05D0B0EE4B0A12F0E8
:100FC00096FBB0EE40AA002059460822002300F00C
:100FD00093FA9DF81D000F2841D19DF81F009DF840
:100FE000201040EA0120A64900B201EE100A91ED5E
:100FF000020AB8EEC11A20EE011A84ED031A94ED2C
:10100000062A32EE011A84ED061A9DF821009DF899
:10101000221040EA012000B201EE100AB8EEC11A17
:1010200020EE011A84ED041A94ED072A32EE011A1B
:1010300084ED071A9DF823009DF8241040EA012052
:1010400000B201EE100AB8EEC11A20EE010A84EDDA
:10105000050A94ED081A31EE000A84ED080A5FEAE9
:10106000094026D0002019E008EB00012A1892ED73
:10107000000A91ED001AB4EEC10AF1EE10FAC8BFF1
:1010800081ED000A0AEB0001043091ED001AB4EE84
:10109000C10AF1EE10FAB8BF81ED000A0C28E3D1C5
:1010A000B4EEEEAACAFE6FFAF1EE10FA7AFE2EEA5C
:1010B0000EE0002006E055F8201048F820104AF80D
:1010C000201001300328F6D1F0EE4AEAF0EE4AFA99
:1010D0003EEEEF0A3CEE0ACA002086ED030A0DE060
:1010E00008EB00010AEB000291ED002A92ED001AD4
:1010F0003118043032EE411A81ED041A0C28EFD178
:10110000B4EECE0AF1EE10FADEBF96ED040AB4EEAC
:10111000CF0AF1EE10FA0EDC96ED050AB4EECF0A16
:10112000F1EE10FADEBF96ED060AB4EECF0AF1EE4C
:1011300010FA7FF7E9AE07A9002007E03A1804305B
:1011400092ED000A80EE2A0A82ED000A0C28F5D101
:1011500022200222002300F09DF99DF81F109DF827
:101160001E000022B0EE691A490941EAC000454953
:10117000B2EB902F18BF084300EE100A4048B8EEBB
:10118000C00A00EE281A84ED091A014696ED030AFA
:101190000888B4EECE0A0130F1EE10FA08803FF76D
:1011A0009AAE8CEE2AAA3AEE2B0A10F0C6FEB4EEE6
:1011B000EC0AF1EE10FADEBF96ED040AB4EECF0AA7
:1011C000F1EE10FA3FF787AE96ED050AB4EECF0ABE
:1011D000F1EE10FADEBF96ED060AB4EECF0AF1EE9C
:1011E00010FA3FF778AE94ED060A10F0A6FE9FEDD8
:1011F000261AB4EEC10AF1EE10FA3FF76CAE94ED88
:10120000070A10F09AFE9FED201AB4EEC10AF1EE23
:1012100010FA3FF760AE94ED080A10F08EFE9FEDD5
:101220001A1AB4EEC10AF1EE10FA3FF754AE0DE00F
:10123000000000000AD7A33B14489FED18AAA06144
:101240001348E06113481449C4E908109FED140ADB
:1012500080EE0A0A84ED0B0A3078BDEC1A3B01B02F
:10126000BDE8F08F9A99193E6F12033A0080BB4592
:10127000CDCC1CC16666663F840A0024B0120024EF
:101280004000002400F8FFFF0AD7233CF2FA88BB95
:101290007779ABBB00008C42E1CB96B92C09244195
:1012A000C3F51C41F8B5044600294AD0012918BFEE
:1012B000F8BDAE4D12202222012305F11C0100F0E1
:1012C000E9F8A87FE97F40EA01207149208600B251
:1012D00094ED0B1A02EE100A91ED010AB8EEC22A43
:1012E00020EE020A21EE000A84ED000A95F82000A3
:1012F00095F8212040EA0220608600B291ED010AB3
:1013000002EE100AB8EEC22A20EE022A21EE022ACC
:1013100084ED012A95F8220095F8231040EA012077
:1013200001B202EE101AB8EEC22AA880A08605F11A
:101330002F002E3520EE020A21EE000A84ED020A6B
:101340008AE08A4E12200622002306F11C05294657
:1013500000F0A0F8307F717F4D4F0822002340EA53
:101360000120208600B297ED010A94ED0B1A02EEDF
:10137000100AB8EEC22A20EE020A21EE000A84ED1D
:10138000000AB07FF17F40EA0120608600B297ED4D
:10139000010A02EE100AB8EEC22A20EE022A21EE5D
:1013A000022A84ED012A96F8200096F8211040EADE
:1013B000012001B202EE101A2946B8EEC22AB0800E
:1013C000A086002020EE020A21EE000A84ED020A27
:1013D00000F092F8307F0F2836D1B07FF17F40EADD
:1013E0000120E08600B297ED020A94ED061A02EEA3
:1013F000100AB8EEC22A10EE021A84ED031A96F80B
:10140000200096F8211040EA0120208700B294EDD8
:10141000071A02EE100AB8EEC22A10EE021A84ED84
:10142000041A96F8220096F8231040EA0120B080B2
:10143000608700B294ED081A02EE100AB8EEC22AD4
:1014400010EE021A84ED051A2220294602220023FA
:1014500000F020F806F11D0000782978434AB4EE28
:10146000001AB3EE072A400940EAC1000021B1EB9F
:10147000902F18BF40F4784001B200EE101AB8EE79
:10148000C00A908000EE012A84ED0A2AF8BD00BF50
:1014900040000024F8B51E4615460C460746FFF7E7
:1014A00097FB144967F07F002A4608704870881C33
:1014B000552102E000F8011B013A002AFAD156B189
:1014C000012E18BFF8BD34480A49AB1C22460068FB
:1014D00007F006FBF8BD30484FF47A71AB1C22468A
:1014E00000680091034907F0E7F8BDE8F840FFF70E
:1014F00067BB00BF581D00247CB50C4640F080013E
:1015000013481E46154600F8011B552102E000F85D
:10151000011B013A002AFAD1FFF702FC56B1012E55
:1015200018BF7CBD1C480A496B1C2246006807F0A6
:10153000D7FA7CBD18484FF47A716B1C22460068BC
:101540000091034907F0B8F8BDE87C40FFF7E0BB25
:10155000761D002480B540F0800000F009F8552089
:1015600000F006F80149487080BD00BFB0120024A9
:10157000E0B58DF8070008484FF47A710DF10602C6
:10158000012300910DF10701006807F095F89DF81F
:10159000060002B080BD00BF840A002410B50C46CE
:1015A000FFF7E6FF2046BDE81040FFF7E1BF00006F
:1015B00010B52DED068B044630EE608A84ED038A6B
:1015C00094ED000A28EE009A84ED059A94ED010A44
:1015D00094ED06AA08EE00AAB7EEC80A84ED06AAA2
:1015E00011F0C2FA94ED081AB7EEC11AB4EEC10BAD
:1015F000F1EE10FAC2BF9FED0CAA0020A06194ED9D
:10160000090A94ED021A38EE402A39EE0A0A21EE50
:10161000423A01EE420A84ED073A84ED098A84EDEC
:101620000A0ABDEC068B10BD000000000021C0EDD1
:10163000081A80EC030AC0E90511C1617047000077
:1016400010B52DED068B044630EE608A84ED038ADA
:1016500094ED000A28EE009A84ED059A94ED010AB3
:1016600094ED06AA08EE00AAB7EEC80A84ED06AA11
:1016700011F07AFA94ED081AB7EEC11AB4EEC10B64
:10168000F1EE10FAC2BF9FED0EAA0020A06194ED0A
:10169000091A94ED020A39EE0A2A38EE411A20EEB0
:1016A000413A00EE412A84ED073A84ED0A2ABDEE64
:1016B000C20A84ED098A10EE100ABDEC068B10BD3B
:1016C0000000000092ED012A92ED023A92ED001A1C
:1016D00092ED034A90ED017AB6EE000A90ED006AB1
:1016E000D0ED020AF0EE401A23EE025A43EE431AFE
:1016F00004EE415A44EE441A23EE011A27EE053A4D
:10170000B0EE405A04EE021A06EE213A01EE203AFB
:1017100033EE031A81ED001A92ED012A92ED001AC0
:1017200092ED034A92ED023A90ED017A90ED006A53
:10173000D0ED020A02EE425A61EE041A04EE445A57
:1017400042EE031A23EE044A25EE073A02EE414A1E
:1017500006EE213A04EE203A33EE031A81ED011A27
:1017600092ED023A92ED034A92ED012A92ED001AAF
:1017700090ED017A90ED006AD0ED020A24EE035A52
:1017800022EE044A02EE420A02EE015A01EE434AF8
:1017900003EE430A25EE071A06EE041A00EE201A9D
:1017A00031EE010A81ED020A7047000000000000DE
:1017B0002DE9F0412DED068B04460878AB287CD14D
:1017C0004878A07101288A78E27104BF487BDD283F
:1017D00073D1002564279FED3E0ABFEE001AB7EED5
:1017E000002A6580087B04EB8000406A20620A7B47
:1017F00004EB8202D2F828840122C4F824842270E7
:10180000CA780B7902F03F0612F0C00F16FB0733BF
:1018100002FE014A03EE103AB8EEC33A83EE003AF4
:1018200024EE038A84ED048A4A798B7902F03F061C
:1018300012F0C00F16FB073302FE011A03EE103A36
:10184000B8EEC33A83EE000A21EE009AB2EE040A23
:1018500084ED039ACA7901EE102AB8EE411A81EE9E
:10186000000A84ED050A0A7A84F82928C97A2176C3
:1018700018496576897A02291FD1174E0AEE100A97
:1018800096ED120A96ED151A30EE410AB7EEC00A2F
:1018900011F06AF99FED0C1BB4EEC10B00EE108A3B
:1018A00038EE0A1AF1EE10FA39EE000AB8BF012537
:1018B000657686ED121A86ED000ABDEC068BBDE852
:1018C000F08100BF00BF00BF9A9999999999D93FBB
:1018D0000000C842B02C00249C1D002480B50146A5
:1018E0009B480022C2809B48428A013242829A4829
:1018F000FFF75EFF002080BDF8B50D46044628784E
:10190000AA2840F09080484880890B28C0F08B803E
:101910006E78042E88BFF8BD002E84F84C6804D180
:1019200004F64D008C21FEF72BFD94F844089FED42
:101930003F0A9FED3F1A2A1D04F6B40100234FF021
:10194000090C01254FF0640E02281CBF002084F80A
:10195000440804F6570063E094F84468022E1ABF66
:10196000B4F8486801360026A4F8486812F8026CFA
:10197000B6FBFCF707EBC707F61BC654C61812F8F0
:10198000017C06F80A7C167906EB8606760002EEE4
:10199000106AB8EEC22A81ED002A1678B5EB961FC0
:1019A0000DD0B70918D1577806F03F0616FB0E7612
:1019B00002EE106AB8EEC22A82EE012A0AE05778D7
:1019C00006F03F0616FB0E7602EE106AB8EEC22A4B
:1019D00082EE002A01ED0A2A9678B5EB961F0DD00B
:1019E000B70918D1D77806F03F0616FB0E7602EE3F
:1019F000106AB8EEC22A82EE012A0AE0D77806F011
:101A00003F0616FB0E7602EE106AB8EEC22A82EE90
:101A1000002A01ED142A94F84C680431073201338E
:101A2000F6B2B34298DBF8BDEE3000240000C8C225
:101A30000000C84280B501464648428B01324283CD
:101A40004548FFF759FF002080BD00BF0A78AA2A49
:101A500069D14A7880F83228012A8B7880F83438A6
:101A600018BF704780B5CB7891F804E04FF0640C54
:101A70009FED2D0A9FED2D4ABFEE002AB7EE003AEA
:101A800003F03F0213F0C00F12FB0CE203FE025AF8
:101A900001EE102AB8EEC11A81EE001A25EE011AE5
:101AA000B0EE085A21EE041A21EE051ABDEEC11A55
:101AB00011EE102AA0F838284A7991F806E002F0D1
:101AC0003F0312F0C00F13FB0CE302FE036A01EEAA
:101AD000103AB8EEC11A81EE001A26EE011A21EE74
:101AE000041A21EE051ABDEEC11A11EE102AA0F853
:101AF00036284A7A80F84028887AC97A00F03F026E
:101B000010F0C00F12FB0C1103FE022A01EE101A96
:101B10000749B8EEC11A81EE000A22EE000A81EDF3
:101B2000000ABDE8804070470000C84200408F4472
:101B3000B423002480B501460548002242810548AF
:101B4000828A013282820448FFF780FF002080BD34
:101B5000100E0024EE30002414010024FEE70000E3
:101B60002DE9F04F8FB0114B00F1080AD3E900C105
:101B70000E919968DB680D91D0E900EB9AE8E007D7
:101B8000D0E90841D0E90A20CDE90841CDE90A2091
:101B900002A8CDE900EB80E8E0076046DDE90D2111
:101BA0000DF00AF800200FB0BDE8F08F20000024EF
:101BB0002DE9F04F8FB0114B00F1080AD3E900C1B5
:101BC0000E919968DB680D91D0E900EB9AE8E00787
:101BD000D0E90841D0E90A20CDE90841CDE90A2041
:101BE00002A8CDE900EB80E8E0076046DDE90D21C1
:101BF0000CF0E2FF00200FB0BDE8F08F30000024B1
:101C000010B588B0044600200221CDE90000029101
:101C10000121CDE9031005906946206803F0E8FB37
:101C200020680121002203F08BFB206804F06CF88F
:101C300008B010BD484BDDE90B1298420FD0474B5E
:101C4000984240D1A2F2012080B2032821D8444812
:101C50001E4B00EB42000A0AC2541D4A32E0A2F2B7
:101C6000012080B2032807D83D481A4B00EB420000
:101C70000A0AC254184A25E0A2F2052080B20328BD
:101C800021D837483D4B00EB42000A0AC2543C4A77
:101C900018E0A2F2052080B2032807D83048334B61
:101CA00000EB42000A0AC254314A0BE0A2F20920BA
:101CB00080B2022807D82A482A4B00EB42000A0AC1
:101CC000C254294A81540020704700BF26FCFFFF00
:101CD00027FCFFFF02FCFFFF03FCFFFF1E4BDDE9BB
:101CE0000B1298420FD01D4B984233D1A2F205201F
:101CF00080B2032821D81A481C4B00EB42000A0A84
:101D0000C2541B4A25E0A2F2052080B2032807D85E
:101D100013481A4B00EB42000A0AC254184A18E052
:101D2000A2F2092080B2022814D80D48114B00EB12
:101D300042000A0AC254104A0BE0A2F2092080B203
:101D4000022807D80648074B00EB42000A0AC25493
:101D5000054A8154002070473C240024DC240024E0
:101D6000500000242EFCFFFF2FFCFFFF2AFCFFFF8A
:101D70002BFCFFFF0AFCFFFF0BFCFFFF06FCFFFF35
:101D800007FCFFFF01884FF47F43418107990ABA9E
:101D900003EA1123120C43EA116102814180089980
:101DA0000BBA090C1B0C83808171028000207047E4
:101DB00010B50368094C084AA34206D0084CA34258
:101DC00018BF10BD02F10C0302E002F11C03103237
:101DD0001060196010BD00BF2000002400A4004066
:101DE00000A000400000000070B52DED068B0D46F0
:101DF000044600F095F904F644019FED6E6A0A1856
:101E000001EB80001E21527A90ED120AC2EB021201
:101E100001EB8200644901EE100AB8EEC11A30EEFF
:101E2000010A9FED621A81ED050A95ED152A604DB4
:101E300031EE422AB1EE041A20EE014A95ED091A5C
:101E400032EE003A32EE025A81ED062AB4EEC63A7C
:101E5000F1EE10FA15DA9FED5C2A35EE022AB4EEA7
:101E6000C24AF1EE10FA36DAB0EE0C0BB7EEC32A26
:101E7000B7EEC11A82EE000BB0EE042B30EE011B60
:101E80001CE09FED4D3A35EE444A34EE033AB5EE90
:101E9000C03AF1EE10FA25DA9FED4A3AB7EEC11AD0
:101EA00033EE422A32EE400AB0EE0C2BB7EEC00AF7
:101EB00080EE020BB8EE042B31EE401BB7EEC11BD7
:101EC00085ED091A95ED121AB7EEC11A00EE021B44
:101ED000B7EEC10B10E0B3EE052A30EE022A9FEDFB
:101EE0003B0A05E09FED352A30EE022A9FED340AC9
:101EF00031EE021A85ED091A04F6640685ED120A20
:101F00009FED1F8B04F6B40496ED000A94ED009A41
:101F1000B1EE400AB7EEC00A80EE080B11F094FA59
:101F200096ED001A9FED183BB7EEC94A94ED002AD2
:101F30009FED179B9FED18ABB1EE411A84EE034B5A
:101F4000B7EEC22AB7EEC11A04EE009B81EE081B61
:101F500082EE038BB0EE410B10F006FD08EE00ABF5
:101F600089EE0A0B10F00CFA9FED0D1B20EE010B11
:101F7000B7EEC00B85ED000ABDEC068B70BD00BF4F
:101F80006666666666A64C400000000000408F4012
:101F90008FC2F5285C8FB2BFB81E85EB51B8AE3F3B
:101FA0006666666666A64CC0201000240000B44237
:101FB0009C1D00240000344300402144000044C321
:101FC000000094C20000B44300000CC300008A4229
:101FD00090F82C18022917D190F84018012902BF57
:101FE0002449096800290FD121490988B1F5967F54
:101FF0000AD88249897A01F0F0020121402A1EBFE5
:102000001D4A1278002A00D0002101727B49B1F8E4
:102010007E20B2F5C87F15D3022280F82C288A7A58
:10202000412A11D191F87C200B2A01D30B8C1BB1D2
:10203000092A09D88A8E3AB900220272032280F84E
:102040002C2801E0962A08D3B1F8D820322A07D8E4
:10205000897A01F0F001402902D1012180F82C1881
:102060000649897A012904BF042180F82C18704799
:10207000E41000242C100024790F0024B02C00243C
:10208000B0B52DED048B244DB7EE081BB0EE008BE0
:10209000044695ED140AB7EEC00A30EE010BB0EE1F
:1020A000481B10F06DFDB0EE409B95ED150AB8EEA3
:1020B000001A30EE010AB0EE481BB7EEC00A10F06D
:1020C0005FFD9FED131B154839EE000B4FF0FF31FC
:1020D000B4EEC10BF1EE10FAC8BF01210268114441
:1020E0000022B1F5967F0160C8BF0122B1F5167FCD
:1020F00084F8A12202DD4FF4167102E0002901DC10
:1021000000210160BDEC048BB0BD00BF00BF00BF6B
:1021100000000000000059403C0E0024941D0024E3
:1021200090F84C18012901D1002062E02DE9F0431C
:10213000324B9FED310A9FED341A9FED392A9FED06
:10214000353A9FED354A9FED355A00F6B40200F658
:10215000570C00200FF2A8080FF2B009002693F8E0
:102160007CE042E01CF8067003EB4704002F04F10A
:10217000100504F1240408BF03F11E0508BF03F194
:102180003204BEF10A0F88BF2C4692ED006A4D461C
:102190002488B4EEC16A642C444638BF0434F1EE9E
:1021A00010FAC8BF043594ED007A042F95ED006A4B
:1021B00036EE476A07D8DFE807F003090C0E0E0079
:1021C00036EE036A07E036EE026A04E036EE046A91
:1021D00001E036EE056AB4EEC06A043286FE400ABB
:1021E000F1EE10FAB8BF30460136B142BAD1BDE8BF
:1021F000F043C0B2704700BF00401C46B42F00241B
:102200000000000000007A4400409C4500000000EF
:102210000000FA440000C8C2000048C30000FAC32E
:102220000000C84291ED021A90ED012A91ED010AD9
:1022300090ED023A22EE011A03EE401A82ED001AE6
:1022400091ED000A90ED023A91ED021A90ED002A0C
:1022500023EE000A02EE410A82ED010A91ED011A15
:1022600090ED002A91ED000A90ED013A22EE011A5C
:1022700003EE401A82ED021A70470000014801F097
:102280006FBD00BFC01A0024014801F069BD00BF46
:1022900000180024014801F063BD00BF401B00246A
:1022A000014801F05DBD00BF70130024014801F03A
:1022B00057BD00BFF0130024014801F051BD00BF1D
:1022C00070140024014801F04BBD00BFF01400243D
:1022D000014801F045BD00BF70150024014801F020
:1022E0003FBD00BFA00E0024014801F039BD00BF72
:1022F00080110024014801F033BD00BFE018002424
:10230000014801F02DBD00BFF0150024014801F087
:1023100027BD00BF20170024014801F021BD00BFE8
:10232000C0190024014801F01BBD00BF401A002461
:10233000014801F015BD00BFC423002400000000C7
:102340000168B722C4F20202914213DD40F2574203
:10235000C4F2020291421EDC40F22742C4F20202A1
:10236000914233DCB822C4F2020291424AD040F2D8
:10237000104243E05722C4F2020291421ADD872242
:10238000C4F2020291422ADC5822C4F202029142B3
:1023900038D0702232E040F28742C4F20202914209
:1023A00024DC40F25842C4F2020291422AD040F2A8
:1023B000704223E01022C4F2020291421EBF282282
:1023C000C4F2020291421DD0402217E040F228429E
:1023D000C4F20202914215D040F240420EE088223F
:1023E000C4F2020291420DD0A02207E040F2A042C6
:1023F000C4F20202914205D040F28842C4F20202C5
:1024000091421BD1D0F800C06FF00F0151FA8CF34C
:102410004AF6AB21CAF6AA21A3FB0112C2F30211AC
:102420000CA2515CC16540F2FF312CEA01015F2B27
:1024300088BF41F00401816508467047D0F800C0AC
:1024400040F2B843C4F202039942DDD02CF0FF0100
:10245000F1E700BF0006101600061016000000008D
:1024600010B5026845F29441C5F6020145F24343B6
:10247000C5F602039A420EDD45F26B43C5F6020330
:102480009A4217DC45F24443C5F602039A421DD036
:1024900045F2584316E045F20843C5F602039A4256
:1024A0001EBF45F21C43C5F602039A420ED045F208
:1024B000304307E045F28043C5F602039A4205D057
:1024C00045F26C43C5F602039A4217D10378A3F193
:1024D00008024CF6CD43CCF6CC43A2FB03231B09E8
:1024E00001F57B7201F55B7101EB830103F01F03C2
:1024F000012404FA03F360300EC010BD03788A4251
:10250000E5D0A3F110014AF6AB23CAF6AA23A1FB3A
:10251000031C4FF0080E4FEA1C1140F20F44C4F2A6
:102520000204A2420B4688BF0EEB1C13AA34A2423F
:1025300028BF0B4640F60001C4F2020101F18002FF
:10254000D2E700000000000001790139072988BFA7
:10255000704710B502684FF0010E45F6001CC5F635
:10256000020C40F60013C4F2020345F24344C5F6E0
:102570000204A2420EDD45F26B44C5F60204A242FB
:1025800017DC45F24444C5F60204A24226D045F2C7
:10259000584416E045F20844C5F60204A2421EBFA4
:1025A00045F21C44C5F60204A24217D045F230445D
:1025B00007E045F26C44C5F60204A2420ED045F293
:1025C0008044C5F60204A24208D04AF66C34CAF22E
:1025D000FD742244B2FA82F24FEA521EBEF1000F9D
:1025E00003F1400218BF634603EB8103BEF1000F05
:1025F00018BF0CF14002012404FA01F1C0E91B32BA
:102600004167BDE8104070478269816AB2F5005F9A
:1026100006D06AB9022912D0012915D0D9B90EE025
:10262000032918D8DFE801F0020B021001207047DF
:1026300003293CBF012070471CBF0020704790F861
:102640002F0000F001007047C06AA0F1C070B0FA1E
:1026500080F0400970470020704700000000000033
:10266000B0B50468D0F858C040F26F4EC4F2020E04
:10267000744516DC9F25C4F20205AC422CDC5725BC
:10268000C4F20205AC424FDC1025C4F20205AC4294
:102690001EBF2825C4F20205AC4200F0858040250B
:1026A0006BE045F22F45C5F60205AC4227DC40F24F
:1026B000B745C4F20205AC4242DC40F27045C4F2B8
:1026C0000205AC421EBF40F28845C4F20205AC428E
:1026D0006AD040F2A04550E040F22745C4F202051E
:1026E000AC423CDCA025C4F20205AC421EBFB825BA
:1026F000C4F20205AC4257D040F210453DE045F22D
:102700006B45C5F60205AC423CDC45F23045C5F6EA
:102710000205AC421EBF45F24445C5F60205AC4277
:1027200042D045F258453BE05825C4F20205AC4280
:102730001EBF7025C4F20205AC4235D088251CE0CE
:1027400040F2B845C4F20205AC421EBF45F208454E
:10275000C5F60205AC4227D045F21C4520E040F208
:102760002845C4F20205AC421EBF40F24045C4F207
:102770000205AC4218D040F25845C4F20205AC4202
:1027800012D01AE045F26C45C5F60205AC421EBFF8
:1027900045F29445C5F60205AC4205D045F28045A8
:1027A000C5F60205AC4208D1D0E919456560C46E92
:1027B000002C1CBFD0E91C4565600468744515DC1D
:1027C0009F25C4F20205AC422BDC5725C4F202055A
:1027D000AC424EDC1025C4F20205AC421EBF2825D7
:1027E000C4F20205AC4271D040256BE045F22F45A2
:1027F000C5F60205AC4227DC40F2B745C4F202053B
:10280000AC4242DC40F27045C4F20205AC421EBF4D
:1028100040F28845C4F20205AC4257D040F2A045D0
:1028200050E040F22745C4F20205AC423CDCA02552
:10283000C4F20205AC421EBFB825C4F20205AC4288
:1028400044D040F210453DE045F26B45C5F6020527
:10285000AC4256DC45F23045C5F60205AC421EBF1F
:1028600045F24445C5F60205AC425DD045F25845F7
:1028700055E05825C4F20205AC421EBF7025C4F2D3
:102880000205AC4222D088251CE040F2B845C4F2D3
:102890000205AC421AD045F20845C5F60205AC4225
:1028A00042D045F21C453AE040F22845C4F2020508
:1028B000AC421EBF40F24045C4F20205AC4205D016
:1028C00040F25845C4F20205AC4242D1C56D05F054
:1028D0001F053F2404FA05F5CCF8085005682C685C
:1028E00024F480242C6005686B6003688568402DA3
:1028F0000D4608BF15469D6008BF0A460068C260C5
:10290000B0BD45F26C45C5F60205AC421EBF45F2AE
:102910008045C5F60205AC4206D045F29445C5F6A1
:102920000205AC4218BFB0BDC56D05F01F050124FE
:1029300004FA05F5CCF8045005686B6003688568F7
:10294000402D0D4608BF15469D6008BF0A46006829
:10295000C260B0BD6848017801B1704781B0012103
:10296000017064490A680092009A43699A4201B072
:102970003EBF0269013202610968416100210170B4
:10298000704700BF5B485C4A016892ED011AB8EEDF
:10299000411A21EE000A0268521A01EE102AB8EE1E
:1029A000411AB4EEC10AF1EE10FAF4DC704700BF30
:1029B00080B52DED047B4F494F4A0968019101997B
:1029C00092ED010A0268891AB8EE400A019A01EEF6
:1029D000101A0260B8EE411A81EE008AFFF7BAFFC2
:1029E000B0EE480ABDEC047B80BD00BF80B500F0AE
:1029F00049F80E490C489FED0F2A9FED0F3A91EDD3
:102A0000060A0B490088098804EE100A01EE101A24
:102A1000B8EE411AB8EE400AB8EE444A01EE020A96
:102A200004EE030A80BD00BF30230024900F002471
:102A30002C2300246F12833ABD3786350E494FF0A0
:102A4000000C0A6842F080720A604FF47A720B49F7
:102A5000C1F804C00B6843F001030B60264B084922
:102A60004843B0FBF2F2B0FBF1F1C3E90102C3E964
:102A7000031CFFF76FBF00BFFCED00E0001000E09B
:102A800040420F00F8B51B4800680090FFF762FF56
:102A9000194F4FF0FF31002500233869009CE0FBFF
:102AA0000145C7E90C45204629467E683246FDF7B8
:102AB0000FFCA0FB0623A41A01FB06324FF0000313
:102AC000954107F1200233C2B86120462946BE680D
:102AD0003246FDF7FDFB0949FA680023088080B201
:102AE0007043201A65F10001FDF7F2FB04490880EC
:102AF000F8BD00BF041000E0900F00242C23002438
:102B000030230024704791ED010A90ED014A91EDC8
:102B1000001A90ED003A91ED022A90ED025A24EE4F
:102B2000000A03EE010A05EE020A7047C0E900122E
:102B3000704700004FF48061018041808180C18036
:102B400001498160704700BF000303000A780F2A23
:102B500040F084802DE9F041414A00234FF4806821
:102B60009380404AD3890133D3814D788A7862F3C8
:102B70000A250580A5F2DF358A78CB78ADB23A2DEB
:102B80004FEAD20463F34A144480A4F2DF340B7991
:102B90004F79CA78A4B24FEA830308EA872743EA49
:102BA000921242EA070686804A798F794FEA5203E9
:102BB00067F3CA13C380A3F2DF33CA7A4F7A91F85E
:102BC00007C091F808E0897A98BFA0F800803A2CF5
:102BD0009BB29CBF4FF480644480A6F2DF34A4B261
:102BE0003A2C4FEA97054FEAC2029CBF4FF480642B
:102BF00084803A2B4FEA81149CBF4FF48063C380DA
:102C0000490944EA0503DBB22BB1612B05D09E2BA9
:102C100005D1022302E0032300E0012343721143A4
:102C20004FEA4E034FEADC15C9B229B1612905D03C
:102C30009E2905D1022102E0032100E001218172D9
:102C400043EA0501C9B26129BDE8F04104D09E29DB
:102C500018BF7047002100E001210172704700BFDA
:102C6000100E0024EE30002480B5014602480022F8
:102C7000FFF76CFF002080BDB02C002492ED001AFD
:102C800092ED034A92ED012A92ED023A90ED017A1B
:102C9000B6EE000A90ED006AD0ED020AF0EE401A9E
:102CA00024EE015A43EE431A03EE025A44EE441A4C
:102CB00024EE022A27EE054AB0EE405A03EE412ADE
:102CC00006EE214A02EE204A34EE041A81ED001A83
:102CD00092ED012A92ED023A92ED034A92ED001A2A
:102CE00090ED017A90ED006AD0ED020A02EE425AB0
:102CF00062EE031A04EE445A41EE441A23EE043AFB
:102D000025EE074A02EE013A06EE214A03EE204A7A
:102D100034EE041A81ED011A92ED023A92ED034A63
:102D200092ED001A92ED012A90ED017A90ED006A81
:102D3000D0ED020A24EE035A61EE031A02EE420AB3
:102D400002EE415A42EE041A03EE430A25EE071A38
:102D500006EE211A00EE201A31EE010A81ED020A78
:102D600070477047014802F05BBC00BF3C24002460
:102D7000014802F055BC00BFDC2400240000000024
:102D80000168426BD1F884C04FF6FC732CEA030350
:102D900043EA8203C1F884300168D1F88430D0F866
:102DA00038C023F47F0343EA0C43C1F88430016840
:102DB000836B1A44D1F888306FF38F0343EA8203A0
:102DC000C1F888300168D1F88830D0F83CC023F4CD
:102DD000FE0343EA0C43C1F888300168C36B02EB81
:102DE0004302D1F8A0306FF38F0343EA8203C1F8A6
:102DF000A0300168D1F8A030D0F840C023F4FE0321
:102E000043EA0C43C1F8A0300168D0E910C303FBCA
:102E10000C22D1F8B0306FF38F0343EA8203C1F87C
:102E2000B0300168D1F8B030D0F848C023F4FE03C8
:102E300043EA0C43C1F8B030D0F800C0D0E91231F9
:102E400001FB0321DCF8AC206FF38F0242EA810220
:102E50000368C3F8AC20D0F800C0D0E9143202FBFC
:102E60000311DCF8F0206FF38F0242EA810203685D
:102E7000C3F8F0200268D2F8F020D0F800C0836DCB
:102E800022F47C1242EA0342CCF8F0200268836DFF
:102E900001EB4301D2F8C0206FF38F0242EA8101B7
:102EA0000268C2F8C0100168D1F8C0100268C36D92
:102EB00021F47C1141EA0341C2F8C0100168D1F845
:102EC000C0100268036E21F07C5141EA0361C2F830
:102ED000C010416B4AF60042C4F2000202EB8101CD
:102EE000C166826B01EB82010167C26B01EBC2011B
:102EF0004167D0E910235A4301EB82018167D0E991
:102F000012235A4301EB8201C167D0E914235A43CB
:102F100001EB8201C0F88010826D01EBC201C0F8A4
:102F20008410C26D836E5A4301EB8201C0F8881091
:102F3000026E836E5A4301EB8201C0F890104DF28D
:102F4000FD32C4F2000291420BD3D0F89C1041F044
:102F50002001C0F89C10032180F898100121084638
:102F60007047C26ED0F890108A4222BF00210846F6
:102F700070474FF0000100BF42F8041BD0F89030BA
:102F80009A42F9D308467047C1898180018AC1807D
:102F9000418A0180818A4180018B4181418B8181FD
:102FA000002101834183C0F81210C0F80E100BF00D
:102FB000E9BE00001249884204BF10487047124918
:102FC000884204BF0F4870471149884204BF0F4828
:102FD0007047114988420DD01149884204BF0F48FB
:102FE00070471149884207D01249884214BF0F48E0
:102FF0000F487047074870470A4870470C31002453
:1030000088270024E03100241C280024B432002446
:10301000B028002488330024442900245C34002490
:10302000D8290024303500246C2A0024D836002406
:1030300004360024002B0024A0B180B5DFF82CC09A
:103040000BE010F801EBD3B202F47F42013983EABE
:103050000E033CF8133083EA12220029F1D1BDE8B7
:10306000804001E04FF6FF7290B27047744D010846
:103070002DE9F04381B0044603F00AF80546002C20
:1030800002BF012001B0BDE8F08394F835000228AA
:103090001ED1206840F2B848C4F2020840F2B709D5
:1030A000C4F20209484517DD40F25741C4F202015B
:1030B000884222DC40F22741C4F20201884237DC18
:1030C000B821C4F2020188424FD040F2104147E0DB
:1030D0008020606501208AE25721C4F20201884203
:1030E0001ADD8721C4F2020188422ADC5821C4F289
:1030F0000201884239D0702132E040F28741C4F2A7
:103100000201884224DC40F25841C4F202018842A4
:103110002BD040F2704123E01021C4F2020188421A
:103120001EBF2821C4F2020188421ED0402117E0B0
:1031300040F22841C4F20201884216D040F24041D8
:103140000EE08821C4F2020188420ED0A02107E0DF
:1031500040F2A041C4F20201884206D040F2884108
:10316000C4F20201884240F0EB8121680A6822F033
:103170001E0008602068416921F0800141612768D4
:10318000206840F26F46C4F20206B04216DC9F216E
:10319000C4F2020188422CDC5721C4F202018842A9
:1031A0004FDC1021C4F2020188421EBF2821C4F264
:1031B0000201884200F08180402167E045F22F4102
:1031C000C5F60201884227DC40F2B741C4F2020191
:1031D000884242DC40F27041C4F2020188421EBFC4
:1031E00040F28841C4F20201884266D040F2A04118
:1031F0004CE040F22741C4F20201884238DCA021B1
:10320000C4F2020188421EBFB821C4F20201884202
:1032100053D040F2104139E045F26B41C5F602014E
:10322000884238DC45F23041C5F6020188421EBFB3
:1032300045F24441C5F6020188423ED045F258416C
:1032400037E05821C4F2020188421EBF7021C4F247
:103250000201884231D0882118E040451EBF45F266
:103260000841C5F60201884227D045F21C4120E002
:1032700040F22841C4F2020188421EBF40F24041A0
:10328000C4F20201884218D040F25841C4F202014F
:10329000884212D016E045F26C41C5F60201884220
:1032A0001EBF45F29441C5F60201884205D045F2A1
:1032B0008041C5F60201884204D1206E016821F4E4
:1032C00080710160206840F20F41C4F2020188421F
:1032D00010DC6F21C4F2020188421CDC3F21C4F2E1
:1032E0000201884232DC1021C4F2020188424ED031
:1032F000282146E0B0421ADC40F23F41C4F202010C
:1033000088422ADC40F21041C4F2020188423ED0D9
:1033100040F2284135E09F21C4F20201884225DCB9
:103320007021C4F20201884231D0882129E040F2A4
:103330009F41C4F2020188421FDC40F27041C4F296
:103340000201884223D040F288411AE04021C4F2B1
:10335000020188421BD0582113E040F24041C4F2E0
:103360000201884213D040F258410AE0A021C4F281
:10337000020188420BD0B82103E0404507D040F25B
:10338000A041C4F20201884208BF206800E0206822
:10339000016821F001010160386810F0010F0BD0C5
:1033A00002F076FE401B0628F6D32020606503203D
:1033B00084F8350001201AE12068484513DD40F209
:1033C0005741C4F2020188421EDC40F22741C4F298
:1033D0000201884233DCB821C4F2020188424BD09A
:1033E00040F2104143E05721C4F2020188421ADD45
:1033F0008721C4F2020188422ADC5821C4F202016A
:10340000884239D0702132E040F28741C4F2020193
:10341000884224DC40F25841C4F2020188422BD099
:1034200040F2704123E01021C4F2020188421EBF25
:103430002821C4F2020188421ED0402117E040F248
:103440002841C4F20201884216D040F240410EE009
:103450008821C4F2020188420ED0A02107E040F288
:10346000A041C4F20201884206D040F28841C4F271
:103470000201884240F0C180D4E9161000F01F021A
:103480003F20904088602068B04216DC9F21C4F243
:10349000020188422CDC5721C4F20201884258DC28
:1034A0001021C4F2020188421EBF2821C4F2020189
:1034B000884200F08A80402170E045F22F41C5F635
:1034C0000201884227DC40F2B741C4F2020188427F
:1034D0004BDC40F27041C4F2020188421EBF40F250
:1034E0008841C4F2020188426FD040F2A04155E009
:1034F00040F22741C4F20201884241DCA021C4F21B
:10350000020188421EBFB821C4F2020188425CD089
:1035100040F2104142E045F26B41C5F6020188429B
:1035200041DC45F23041C5F6020188421EBF45F23A
:103530004441C5F60201884247D045F2584140E077
:1035400021680A6840453FF412AE22F00E00086080
:1035500015E65821C4F2020188421EBF7021C4F250
:103560000201884231D0882118E040451EBF45F253
:103570000841C5F60201884227D045F21C4120E0EF
:1035800040F22841C4F2020188421EBF40F240418D
:10359000C4F20201884218D040F25841C4F202013C
:1035A000884212D01FE045F26C41C5F60201884204
:1035B0001EBF45F29441C5F60201884205D045F28E
:1035C0008041C5F6020188420DD1D4E9190141605C
:1035D000E06E00281FBF016821F480710160D4E90A
:1035E0001C0118BF4160012084F835000020002133
:1035F00084F8341001B0BDE8F083D4E9161202F06B
:103600001F0240453FF43CAF0120904048603AE73C
:10361000E8B190F83510022917D1016840F20F4245
:10362000C4F20202914215DC6F23C4F202039942F4
:1036300025DC3F23C4F2020399423BDC1023C4F291
:103640000203994259D0282353E08021416501218A
:103650000846704740F26F43C4F2020399421ADCF5
:1036600040F23F43C4F2020399422ADC40F2104385
:10367000C4F20203994240D040F2284339E09F232C
:10368000C4F20203994225DC7023C4F2020399427A
:1036900033D088232DE040F29F43C4F202039942C5
:1036A0001FDC40F27043C4F20203994225D040F27D
:1036B00088431EE04023C4F2020399421DD05823E0
:1036C00017E040F24043C4F20203994215D040F2A1
:1036D00058430EE0A023C4F2020399420DD0B82350
:1036E00007E040F2B843C4F20203994205D040F229
:1036F000A043C4F20203994271D1042180F835102D
:103700000168914210DC6F22C4F20202914220DC77
:103710003F22C4F20202914236DC1022C4F20202BD
:10372000914254D028224EE040F26F42C4F202028D
:1037300091421ADC40F23F42C4F2020291422ADC7A
:1037400040F21042C4F20202914240D040F22842BC
:1037500039E09F22C4F20202914225DC7022C4F2B9
:103760000202914233D088222DE040F29F42C4F2FF
:10377000020291421FDC40F27042C4F20202914206
:1037800025D040F288421EE04022C4F2020291425B
:103790001DD0582217E040F24042C4F2020291428A
:1037A00015D040F258420EE0A022C4F2020291422B
:1037B0000DD0B82207E040F2B842C4F202029142B2
:1037C00005D040F2A042C4F20202914220D100682A
:1037D000016821F00101016000210846704701687D
:1037E0000B6823F00E030B600168914215DC6F2219
:1037F000C4F20202914225DC3F22C4F2020291424D
:103800003BDC1022C4F2020291425BD0282253E03A
:10381000086820F001000860DEE740F26F42C4F261
:10382000020291421ADC40F23F42C4F2020291428B
:103830002ADC40F21042C4F20202914242D040F22D
:10384000284239E09F22C4F20202914225DC702214
:10385000C4F20202914235D088222DE040F29F420C
:10386000C4F2020291421FDC40F27042C4F2020232
:10387000914227D040F288421EE04022C4F2020268
:1038800091421FD0582217E040F24042C4F2020297
:10389000914217D040F258420EE0A022C4F2020238
:1038A00091420FD0B82207E040F2B842C4F20202BF
:1038B000914207D040F2A042C4F20202914208BFF6
:1038C000016800E001680A6822F001020A600168EC
:1038D00040F26F42C4F20202914216DC9F22C4F20F
:1038E000020291422CDC5722C4F2020291424FDCC8
:1038F0001022C4F2020291421EBF2822C4F2020228
:10390000914200F0858040226BE045F22F42C5F6DF
:103910000202914227DC40F2B742C4F20202914215
:1039200042DC40F27042C4F2020291421EBF40F2F9
:103930008842C4F2020291426AD040F2A04250E0B2
:1039400040F22742C4F2020291423CDCA022C4F2BF
:10395000020291421EBFB822C4F20202914257D025
:1039600040F210423DE045F26B42C5F60202914240
:103970003CDC45F23042C5F6020291421EBF45F2E0
:103980004442C5F60202914242D045F258423BE021
:103990005822C4F2020291421EBF7022C4F20202F7
:1039A000914235D088221CE040F2B842C4F20202B3
:1039B00091421EBF45F20842C5F60202914227D04D
:1039C00045F21C4220E040F22842C4F20202914239
:1039D0001EBF40F24042C4F20202914218D040F2AF
:1039E0005842C4F20202914212D02CE045F26C42DD
:1039F000C5F6020291421EBF45F29442C5F602028C
:103A0000914205D045F28042C5F6020291421AD198
:103A1000016E0A6822F480720A60D0E9161202F080
:103A20001F02012303FA02F24A60D0E919124A6028
:103A3000C16E00291FBF0A6822F480720A60D0E9B3
:103A40001C1218BF4A60012180F83510002180F84F
:103A50003410026D22B180B590470021BDE880404E
:103A6000084670470000000010B50446002C04BF53
:103A7000012010BD206840F20F41C4F202018842CB
:103A800010DC6F21C4F20201884220DC3F21C4F225
:103A90000201884236DC1021C4F20201884256D06D
:103AA00028214EE040F26F41C4F2020188421ADC44
:103AB00040F23F41C4F2020188422ADC40F2104148
:103AC000C4F20201884242D040F2284139E09F21ED
:103AD000C4F20201884225DC7021C4F2020188424E
:103AE00035D088212DE040F29F41C4F20201884286
:103AF0001FDC40F27041C4F20201884227D040F23C
:103B000088411EE04021C4F2020188421FD05821A2
:103B100017E040F24041C4F20201884217D040F25F
:103B200058410EE0A021C4F2020188420FD0B82112
:103B300007E040F2B841C4F20201884207D040F2E7
:103B4000A041C4F20201884208BF206800E020685A
:103B5000016821F0010101602068B721C4F202016F
:103B6000884213DD40F25741C4F2020188421EDC54
:103B700040F22741C4F20201884233DCB821C4F28A
:103B8000020188424AD040F2104143E05721C4F27A
:103B9000020188421ADD8721C4F2020188422ADC30
:103BA0005821C4F20201884238D0702132E040F23C
:103BB0008741C4F20201884224DC40F25841C4F239
:103BC000020188422AD040F2704123E01021C4F261
:103BD000020188421EBF2821C4F2020188421DD082
:103BE000402117E040F22841C4F20201884215D07A
:103BF00040F240410EE08821C4F2020188420DD01B
:103C0000A02107E040F2A041C4F20201884205D0A1
:103C100040F28841C4F20201884240D1216800206C
:103C2000086021684860216888602168C860216850
:103C300008612068212141612046FEF781FBE16D8A
:103C400001F01F013F2202FA01F181602046FEF7D8
:103C500007FC206E00281FBF00210160D4E9190174
:103C600041606068A0F10100072808D82046FEF7EF
:103C70006BFCE06E00210160D4E91C014160002072
:103C8000C4E91B006067C4E90F00C4E91100C4E97E
:103C90001300606584F8350084F8340010BD216895
:103CA00040F2B842C4F202029042B8D0012045F27C
:103CB0005742C5F6020291420EDC45F22F42C5F68C
:103CC0000202914217DC45F20842C5F60202914217
:103CD00027D045F21C421FE045F27F42C5F60202A2
:103CE000914211DC45F25842C5F60202914218D0C9
:103CF00045F26C4210E045F23042C5F602029142B4
:103D00000FD045F2444207E045F29442C5F6020264
:103D1000914206D045F28042C5F60202914218BF98
:103D200010BD20680021016020684160206881602A
:103D30002068C160206801612046FEF701FBE16D4B
:103D400001F01F01012202FA01F141607EE700004B
:103D5000406D70470000000090F83500704700008B
:103D60002DE9F04182B004460020019040F20C00A1
:103D7000C2F20040006848F2B511C1F64E31A0FB16
:103D80000108A56D2E682968206840F26F47C4F2CB
:103D90000207B84215DC9F21C4F2020188422BDCE5
:103DA0005721C4F2020188424EDC1021C4F2020104
:103DB00088421EBF2821C4F20201884272D04021ED
:103DC0006BE045F22F42C5F60202904227DC40F23A
:103DD000B742C4F20202904242DC40F27041C4F2A7
:103DE000020188421EBF40F28841C4F202018842AB
:103DF00058D040F2A04150E040F22741C4F2020105
:103E000088423CDCA021C4F2020188421EBFB821D6
:103E1000C4F20201884245D040F210413DE045F233
:103E20006B42C5F60202904274DC45F23042C5F6A0
:103E3000020290421EBF45F24442C5F60202904281
:103E40007BD045F2584273E05821C4F20201884207
:103E50001EBF7021C4F20201884223D088211CE0D9
:103E600040F2B842C4F2020290421BD045F208422E
:103E7000C5F60202904260D045F21C4258E040F282
:103E80002841C4F2020188421EBF40F24041C4F200
:103E90000201884206D040F25841C4F20201884231
:103EA00040F0D283E06D00F01F00082101FA00F01D
:103EB000304200F01E81206840F20F41C4F202013E
:103EC000884213DC6F21C4F20201884200F3908023
:103ED0003F21C4F20201884200F3D2801021C4F2D3
:103EE0000201884200F0F0802821E8E0B84200F3A7
:103EF0008B8040F23F41C4F20201884200F3C78048
:103F000040F21041C4F20201884200F0DD8040F22C
:103F10002841D4E045F26C42C5F6020290421EBF31
:103F200045F28042C5F60202904206D045F2944224
:103F3000C5F60202904240F0878320680068E26D77
:103F400002F01F0210F0040F1EBF0423934013EA77
:103F500001062AD1830766D50223934013EA01069E
:103F600061D06B60010400F16983800600F1E9848F
:103F7000206840F20F41C4F20201884200F3168427
:103F80006F21C4F20201884200F391843F21C4F200
:103F90000201884200F3A6841021C4F20201884283
:103FA00000F0C384282100F0BCBC6B6001045FD426
:103FB000800600F15084206840F20F41C4F20201F3
:103FC000884200F398836F21C4F20201884200F313
:103FD000B6833F21C4F20201884200F3FB83102123
:103FE000C4F20201884200F03084282100F028BC8D
:103FF0009F21C4F20201884252DC7021C4F2020106
:10400000884261D088215AE040F29F41C4F2020107
:1040100088424CDC40F27041C4F20201884253D025
:1040200040F288414BE0000740F10E8308209040A9
:10403000084000F00983206840F20F41C4F20201F9
:10404000884200F36A836F21C4F20201884200F3C0
:1040500082833F21C4F20201884200F3C28310210F
:10406000C4F20201884200F00784282100F000BC5D
:10407000C0034CBF216CA16C002940F03783E3E200
:104080004021C4F2020188421ED0582117E040F2BC
:104090004041C4F20201884216D040F258410EE07D
:1040A000A021C4F2020188420ED0B82107E040F2FC
:1040B000B841C4F20201884206D040F2A041C4F2E5
:1040C0000201884240F0C38220680421006808424F
:1040D0000FD02068016821F004010160E06D00F05C
:1040E0001F00082101FA00F0A860606D40F0010097
:1040F0006065E06D00F01F00012101FA00F0304220
:1041000078D0206840F20F41C4F20201884210DCEE
:104110006F21C4F2020188421CDC3F21C4F202017B
:10412000884232DC1021C4F20201884251D0282199
:104130004AE0B8421ADC40F23F41C4F20201884230
:104140002ADC40F21041C4F20201884241D040F220
:10415000284139E09F21C4F20201884225DC702108
:10416000C4F20201884234D088212DE040F29F4100
:10417000C4F2020188421FDC40F27041C4F2020125
:10418000884226D040F288411EE04021C4F202015C
:1041900088421ED0582117E040F24041C4F202018B
:1041A000884216D040F258410EE0A021C4F202012C
:1041B00088420ED0B82107E040F2B841C4F20201B3
:1041C000884206D040F2A041C4F20201884240F089
:1041D0004082206814308021006808420AD0E06DD7
:1041E00000F01F00012101FA00F0A860606D40F0AE
:1041F00002006065E06D00F01F00042101FA00F08C
:10420000304277D0206840F20F41C4F20201884268
:1042100010DC6F21C4F2020188421CDC3F21C4F291
:104220000201884232DC1021C4F20201884251D0DE
:1042300028214AE0B8421ADC40F23F41C4F20201B0
:1042400088422ADC40F21041C4F20201884241D087
:1042500040F2284139E09F21C4F20201884225DC66
:104260007021C4F20201884234D088212DE040F24E
:104270009F41C4F2020188421FDC40F27041C4F247
:104280000201884226D040F288411EE04021C4F25B
:10429000020188421ED0582117E040F24041C4F28A
:1042A0000201884216D040F258410EE0A021C4F22B
:1042B000020188420ED0B82107E040F2B841C4F2B2
:1042C0000201884206D040F2A041C4F202018842B5
:1042D00040F0C18120680221006808420AD0E06DE8
:1042E00000F01F00042101FA00F0A860606D40F0AA
:1042F00004006065E06D00F01F00102101FA00F07D
:10430000304200F08B80206840F20F41C4F202017D
:10431000884210DC6F21C4F2020188421CDC3F217C
:10432000C4F20201884232DC1021C4F20201884248
:1043300051D028214AE0B8421ADC40F23F41C4F291
:10434000020188422ADC40F21041C4F20201884294
:1043500041D040F2284139E09F21C4F20201884255
:1043600025DC7021C4F20201884234D088212DE07E
:1043700040F29F41C4F2020188421FDC40F27041CA
:10438000C4F20201884226D040F288411EE040215A
:10439000C4F2020188421ED0582117E040F2404189
:1043A000C4F20201884216D040F258410EE0A0212A
:1043B000C4F2020188420ED0B82107E040F2B841B1
:1043C000C4F20201884206D040F2A041C4F20201C8
:1043D000884240F0428120680821006808421DD0D0
:1043E000E06D00F01F00102101FA00F0A8602068C5
:1043F0000168006811F4802F07D1C0055FBF2068F5
:10440000016821F00801016001E0000301D4216C82
:1044100000E0A16C00291CBF20468847E06D00F039
:104420001F00202101FA00F0304200F0B88020681F
:1044300040F20F41C4F20201884210DC6F21C4F245
:10444000020188421CDC3F21C4F20201884232DCB6
:104450001021C4F20201884251D028214AE0B8421A
:104460001ADC40F23F41C4F2020188422ADC40F2E9
:104470001041C4F20201884241D040F2284139E0A3
:104480009F21C4F20201884225DC7021C4F202019E
:10449000884234D088212DE040F29F41C4F20201CD
:1044A00088421FDC40F27041C4F20201884226D0EB
:1044B00040F288411EE04021C4F2020188421ED031
:1044C000582117E040F24041C4F20201884216D060
:1044D00040F258410EE0A021C4F2020188420ED001
:1044E000B82107E040F2B841C4F20201884206D088
:1044F00040F2A041C4F20201884240F0B08020683E
:104500001021006808424AD0E06D00F01F00202111
:1045100001FA00F0A86094F8352021680868042AA0
:1045200022D120F0160008602068416921F0800146
:104530004161206C08B9A06C20B12068016821F0AD
:1045400008010160E06D00F01F003F2101FA00F05A
:10455000A860012084F83500002084F83400216D23
:10456000002940F0C3806FE02168096840030DD442
:10457000C8050FD42068016821F0100101600120F6
:1045800084F83500002084F8340003E0080301D4E7
:10459000616C00E0E16B00291CBF20468847606D1C
:1045A000002851D0606D10F0010F00F09C800420B5
:1045B00084F83500206840F20F41C4F202018842BD
:1045C00010DC6F21C4F2020188421CDC3F21C4F2DE
:1045D0000201884245DC1021C4F20201884265D004
:1045E00028215DE0B8421ADC40F23F41C4F20201EA
:1045F00088423DDC40F21041C4F20201884255D0AD
:1046000040F228414CE09F21C4F20201884238DC8C
:104610007021C4F20201884248D0882140E040F273
:104620009F41C4F20201884232DC40F27041C4F280
:10463000020188423AD040F2884131E0C00354BFC1
:10464000616CE16B002951D102B0BDE8F081082115
:104650003CE50021C0E500213EE60421BDE6022143
:104660004FE74021C4F2020188421FD0582117E0D1
:1046700040F24041C4F20201884217D040F2584152
:104680000EE0A021C4F2020188420FD0B82107E059
:1046900040F2B841C4F20201884207D040F2A04182
:1046A000C4F20201884208BF206800E020684FEA97
:1046B0009821026822F00102026000BF0198421CAA
:1046C000019220688A4203D8026812F0010FF5D1E6
:1046D000006800F00100012141EA400084F8350043
:1046E000002084F83400E16C0029ADD020468847D2
:1046F00002B0BDE8F081B8423ADC40F23F41C4F27A
:104700000201884274DC40F21041C4F20201884286
:1047100000F09B8040F2284192E0B84237DC40F242
:104720003F41C4F2020188426BDC40F21041C4F206
:104730000201884200F0A08040F2284198E09F21C9
:10474000C4F20201884265DC7021C4F20201884291
:104750007BD0882174E09F21C4F20201884260DC92
:104760007021C4F20201884200F0868088217FE037
:1047700040F29F41C4F20201884259DC40F270418C
:10478000C4F20201884260D040F2884158E040F211
:104790009F41C4F20201884262DC40F27041C4F2DF
:1047A0000201884268D040F2884161E0B84200F3DB
:1047B0008A8040F23F41C4F20201884200F39980AE
:1047C00040F21041C4F20201884200F0AE8040F293
:1047D0002841A6E04021C4F20201884235D0582188
:1047E0002EE04021C4F20201884245D058213FE02A
:1047F00040F24041C4F20201884226D040F25841C2
:104800001EE040F24041C4F20201884234D040F23E
:1048100058412DE0A021C4F20201884215D0B821F0
:104820000EE0A021C4F20201884225D0B8211FE089
:1048300040F2B841C4F20201884206D040F2A041E1
:10484000C4F20201884240F0818020686FF00801C4
:10485000026811400160216C00297FF447AFF3E644
:1048600040F2B841C4F20201884205D040F2A041B2
:10487000C4F2020188426CD120686FF01C0102680A
:1048800011400160E06D00F01F00012101FA00F00D
:104890006860616584F83510002084F83400E16CAC
:1048A00000291CBF2046884702B0BDE8F0819F2147
:1048B000C4F20201884225DC7021C4F20201884260
:1048C00033D088212DE040F29F41C4F2020188429A
:1048D0001FDC40F27041C4F20201884225D040F250
:1048E00088411EE04021C4F2020188421DD05821B7
:1048F00017E040F24041C4F20201884215D040F274
:1049000058410EE0A021C4F2020188420DD0B82126
:1049100007E040F2B841C4F20201884205D040F2FB
:10492000A041C4F20201884216D120686FF0140140
:10493000026811400160012084F83500002084F8ED
:104940003400E16B00297FF4D1AE7DE66FF0040105
:104950007EE76FF00E0192E76FF00A01E8E70000D2
:104960002DE9F04381B0044601F092FB0546002C8E
:1049700000F07381206840F26F48C4F2020840459D
:1049800015DC9F21C4F2020188422BDC5721C4F2BE
:104990000201884250DC1021C4F2020188421EBF8D
:1049A0002821C4F20201884274D040216DE045F212
:1049B0002F41C5F60201884227DC40F2B741C4F21C
:1049C0000201884244DC40F27041C4F20201884294
:1049D0001EBF40F28841C4F2020188425AD040F220
:1049E000A04152E040F22741C4F2020188423EDC7D
:1049F000A021C4F2020188421EBFB821C4F2020104
:104A0000884247D040F210413FE045F26B41C5F685
:104A10000201884200F38F8045F23041C5F6020161
:104A200088421EBF45F24441C5F60201884200F0AB
:104A3000958045F258418CE05821C4F20201884229
:104A40001EBF7021C4F20201884223D088211CE0DD
:104A500040F2B841C4F2020188421BD045F208413D
:104A6000C5F60201884279D045F21C4171E040F25E
:104A70002841C4F2020188421EBF40F24041C4F204
:104A80000201884206D040F25841C4F20201884235
:104A900040F01482022084F83500002084F83400AD
:104AA000206840F20F41C4F20201884212DC6F21FB
:104AB000C4F20201884220DC3F21C4F20201884294
:104AC00000F391801021C4F20201884200F0B0800E
:104AD0002821A7E040451EDC40F23F41C4F202011C
:104AE000884200F3878040F21041C4F202018842FC
:104AF00000F09E8040F2284194E09F21C4F2020120
:104B0000884200F380807021C4F20201884200F0E4
:104B10008F80882186E040F29F41C4F202018842E2
:104B200078DC40F27041C4F20201884200F08080DB
:104B300040F2884176E045F26C41C5F602018842B8
:104B40001EBF45F28041C5F60201884206D045F2FB
:104B50009441C5F60201884240F0B081022084F8F9
:104B60003500002084F8340021680A68D4E902374F
:104B7000D4E90465D4E906CED4F820906FF310127E
:104B800042EAD702802B08BF4FF48040402B08BF79
:104B90001020104340EAD60040EAD50040EADC008D
:104BA00040EADE0040EA1910086020684AF6F83151
:104BB000CAF2FD7108444CF6CD41CCF6CC41A0FBC5
:104BC00001014FF6FC70C3F6FF7000EA9100E0654A
:104BD0002046FDF7B5FBE16D01F01F01012202FA4D
:104BE00001F14160A4E04021C4F2020188421FD0DB
:104BF000582117E040F24041C4F20201884217D028
:104C000040F258410EE0A021C4F2020188420FD0C8
:104C1000B82107E040F2B841C4F20201884207D04F
:104C200040F2A041C4F20201884208BF206800E0BF
:104C30002068016821F00101016000BF206801685F
:104C400011F0010F0DD001F023FA401B0628F5D317
:104C500020206065032084F83500012001B0BDE804
:104C6000F083006848F23F01CFF6106100EA010CC2
:104C700004F10807EECFD4E9080E41EA0C01114314
:104C800019432943314339430843BEF1040F02BF9E
:104C9000D4E90B120843104341F20001C5F600416C
:104CA0000968B1F1005F1CD361682939292918D836
:104CB000DFE801F015151515151517171717171734
:104CC000171717171717171717171515151517177C
:104CD000171715151717171717171515151540F46A
:104CE00080102168086020684069616A20F0070030
:104CF00040EA010504290FD1D4E90A01054359B15D
:104D00002046FDF781FC38B140206065012084F821
:104D1000350001B0BDE8F083206845612046FDF70D
:104D20000FFBE16D01F01F013F2202FA01F18160EA
:104D30002068404516DC9F21C4F2020188422CDC29
:104D40005721C4F2020188424FDC1021C4F2020153
:104D500088421EBF2821C4F20201884200F08580EB
:104D600040216BE045F22F41C5F60201884227DC65
:104D700040F2B741C4F20201884242DC40F2704185
:104D8000C4F2020188421EBF40F28841C4F202010F
:104D900088426AD040F2A04150E040F22741C4F27C
:104DA000020188423CDCA021C4F2020188421EBFFD
:104DB000B821C4F20201884257D040F210413DE0D0
:104DC00045F26B41C5F6020188423CDC45F23041B8
:104DD000C5F6020188421EBF45F24441C5F60201F4
:104DE000884242D045F258413BE05821C4F20201CA
:104DF00088421EBF7021C4F20201884235D088214A
:104E00001CE040F2B841C4F2020188421EBF45F2E4
:104E10000841C5F60201884227D045F21C4120E036
:104E200040F22841C4F2020188421EBF40F24041D4
:104E3000C4F20201884218D040F25841C4F2020183
:104E4000884212D032E045F26C41C5F60201884238
:104E50001EBF45F29441C5F60201884205D045F2D5
:104E60008041C5F60201884220D12046FDF7F8FABC
:104E7000A068802804BF00206060206E2179016056
:104E8000D4E9190141606068A0F10100072809D840
:104E90002046FDF759FBE06E00210160D4E91C01BA
:104EA000416003E00020C4E91B00606700206065EA
:104EB000012184F8351001B0BDE8F0834020C8E638
:104EC00070B504468CB394F83400012802BF022068
:104ED000C0B270BD4FF0010084F8340094F8350082
:104EE00001281CD1022084F835000020606520686C
:104EF00040F20F46C4F20206B04219DC6F25C4F23C
:104F00000205A84229DC3F25C4F20205A8423FDC85
:104F10001025C4F20205A8425FD0282557E04FF4BF
:104F200000606065002084F834000120C0B270BDCC
:104F300040F26F45C4F20205A8421ADC40F23F4538
:104F4000C4F20205A8422ADC40F21045C4F2020570
:104F5000A84242D040F2284539E09F25C4F202051C
:104F6000A84225DC7025C4F20205A84235D0882568
:104F70002DE040F29F45C4F20205A8421FDC40F23A
:104F80007045C4F20205A84227D040F288451EE0D1
:104F90004025C4F20205A8421FD0582517E040F270
:104FA0004045C4F20205A84217D040F258450EE031
:104FB000A025C4F20205A8420FD0B82507E040F2B0
:104FC000B845C4F20205A84207D040F2A045C4F299
:104FD0000205A84208BF206800E02068056825F0A7
:104FE000010505602046FDF73BFB2068B721C4F2B0
:104FF0000201884213DD40F25741C4F202018842A7
:105000001EDC40F22741C4F20201884233DCB821A1
:10501000C4F2020188424BD040F2104143E05721D4
:10502000C4F2020188421ADD8721C4F202018842DB
:105030002ADC5821C4F20201884239D0702132E0C2
:1050400040F28741C4F20201884224DC40F2584118
:10505000C4F2020188422BD040F2704123E01021BB
:10506000C4F2020188421EBF2821C4F20201884214
:105070001ED0402117E040F22841C4F202018842CC
:1050800016D040F240410EE08821C4F2020188426D
:105090000ED0A02107E040F2A041C4F202018842F4
:1050A00006D040F28841C4F20201884240F02981D2
:1050B000226811680B2060F344011160206C20B15C
:1050C0002068016841F008010160216840F26F40EA
:1050D000C4F20200814216DC9F22C4F20202914215
:1050E0002CDC5722C4F2020291424FDC1022C4F29F
:1050F000020291421EBF2822C4F20202914200F035
:10510000858040226BE045F22F42C5F602029142B3
:1051100027DC40F2B742C4F20202914242DC40F284
:105120007042C4F2020291421EBF40F28842C4F2B1
:10513000020291426AD040F2A04250E040F227427F
:10514000C4F2020291423CDCA022C4F2020291426B
:105150001EBFB822C4F20202914257D040F2104260
:105160003DE045F26B42C5F6020291423CDC45F25D
:105170003042C5F6020291421EBF45F24442C5F6D6
:105180000202914242D045F258423BE05822C4F21A
:10519000020291421EBF7022C4F20202914235D037
:1051A00088221CE040F2B842C4F2020291421EBFC3
:1051B00045F20842C5F60202914227D045F21C4250
:1051C00020E040F22842C4F2020291421EBF40F2A7
:1051D0004042C4F20202914218D040F25842C4F256
:1051E0000202914212D021E045F26C42C5F6020261
:1051F00091421EBF45F29442C5F60202914205D08B
:1052000045F28042C5F6020291420FD1216E0A6832
:1052100012F4803F1EBF0A6842F480720A60E16E99
:1052200000291EBF0A6842F480720A602168B142F8
:1052300010DC6F20C4F2020081421CDC3F20C4F26B
:105240000200814232DC1020C4F20200814250D0C0
:1052500028204AE081421ADC40F23F40C4F20200BA
:1052600081422ADC40F21040C4F20200814240D068
:1052700040F2284039E09F20C4F20200814225DC40
:105280007020C4F20200814233D088202DE040F229
:105290009F40C4F2020081421FDC40F27040C4F221
:1052A0000200814225D040F288401EE04020C4F236
:1052B000020081421DD0582017E040F24040C4F265
:1052C0000200814215D040F258400EE0A020C4F206
:1052D000020081420DD0B82007E040F2B840C4F28D
:1052E0000200814205D040F2A040C4F20200814297
:1052F0001ED12068016841F0010101600020C0B2A8
:1053000070BD2268116840F2B843C4F202039842AB
:105310003FF4D0AE052060F3430120680160206CAB
:1053200000283FF4D2AE2068016841F00401CBE6CA
:10533000086840F001000860E0E70000000000009D
:1053400090F89830013BDBB2012B18D8D0F800C0A0
:10535000DCF858300B4217D080B5D0F800E0DEF80A
:1053600058300B408B4206BFDEF85C3043F0020C35
:105370004FF0030CCEF85CC0BDE880400AE000F1BD
:105380009C01012002222AE0DCF85C3043F001039A
:10539000CCF85C308B0541BFD0F800C0DCF8E030C1
:1053A0001343CCF8E0304B0541BFD0F800C0DCF827
:1053B000E4301A43CCF8E4204FF6FF72C3F6CF7204
:1053C00002EA01020068436D42EA030242654FEAC5
:1053D00091724FF000004AF61401C4F200010B680C
:1053E0001A430A6070470000704700000000000088
:1053F00090F89820013AD2B2012A09D80A68D1E976
:10540000033C6AB14CEA4372072B15D18B6918E053
:10541000D0F89C1041F00201C0F89C1001207047A8
:1054200080B54FEA0C4C072B14D101F1180ECA6954
:1054300013024FF0605212E0D1F808C04B6943EA02
:105440008C734968006F40F8312000EBC100436065
:105450000020704701F1140EDA068B689B0742EAC0
:105460000C021A43DEF800301A434968C06E40F857
:105470002120002080BD00007047000000000000D7
:10548000704700000000000070B590F89850022DA1
:1054900022D1402925D10468D4F8A05015F4FE0F7C
:1054A00000F0A280D4F8A45015F07F0F00F0AA807D
:1054B000D4F8A45015F0807F1ABFD4F8A050ED0F97
:1054C0000025D4F8A440C4F3052404EB050E00F134
:1054D0007404456CF44630E0D0F89C1041F00801AB
:1054E00094E041291FD10468D4F8B05015F4FE0FA0
:1054F0007AD0D4F8B45015F07F0F00F08380D4F840
:10550000B45015F0807F1ABFD4F8B050ED0F0025CD
:10551000D4F8B440C4F3052404EB050E00F178047C
:10552000C56CF44609E0056D8D425DD900F17C043F
:10553000D0F854E04FF0000C0D4605FB0EFE246839
:1055400054F82E5015F08045556054F82E50C5F390
:105550008A4618BF25F06046166054F82E5005F0B4
:105560000055956054F82E5005F00045156104EB88
:105570008E05AE88D661EE8806F00F06D6606E689E
:1055800006F4801656616E6806F400169661EE7990
:1055900006F07F0616626E68F60F5662D6686EB128
:1055A0000835002444F6645EC0F6010E2E5D1E55DB
:1055B000D6681EF806600134B442F7D3006840296B
:1055C00002BFC0F8A8C0002070BD412902BFC0F8CA
:1055D000B8C0002070BD1F290BD8012202FA01F1CA
:1055E000C0F89810002070BDD0F89C1041F0200148
:1055F0000CE001F01F01012202FA01F1C0F89C1039
:10560000002070BDD0F89C1041F48071C0F89C104F
:10561000012070BD00000000704700000000000085
:105620002DE9F04F87B004464AF61007C4F2000790
:1056300039684AF61400C4F2000002682068056D5B
:10564000D0F85490036D0093D0F85480036D02930A
:10565000436D0193036D0693436D0593036D0493AE
:10566000436D0393436D066D03EA060B5FEACB536C
:1056700002EA010A07D54FF4807101650020386005
:105680002046FFF7C9FF05EA09064FEA8A755FEA77
:105690004B50B9460ED52068D0F8DC10D0F8E42085
:1056A0004FF4806303650020C9F8000011402046D4
:1056B00000F05EFB009808EA000806F4704655B159
:1056C0002068002101650AF00300C9F800002046A7
:1056D0002946FFF789FEDDE9011000EA010708F01D
:1056E0000F0546B1206806650020C9F80000204675
:1056F000314600F045FB07F0F00645B1206805652E
:105700000020C9F800002046294600F0CBFA46B137
:10571000206806650020C9F800002046314600F0E8
:10572000EFFA5FEA0B5009D520684FF4006101657C
:105730000020C9F80000204600F026FB5FEA8B50ED
:105740000ED52068D0F8D810D0F8E0204FF40073C0
:1057500003650020C9F800001140204600F00CFB52
:105760005FEA0B3009D520684FF400210165002065
:10577000C9F80000204600F093FA5FEACB3009D563
:1057800020684FF4803101650020C9F800002046F0
:1057900000F0EAFADDE9031000EA01055FEA4B30A8
:1057A00009D520684FF4802101650020C9F8000068
:1057B000204600F0D5FADDE90510084005F06071DB
:1057C0005FEA8B320CD522684FF400331365002258
:1057D000C9F80020D4F89C2042F08002C4F89C2034
:1057E00000F0715539B1206801650020C9F800004A
:1057F0002046FFF745FE4DB1206805650020C9F839
:105800000000D4F89C002843C4F89C002068A9F547
:105810000161884263D16068816811F0030F5ED036
:10582000016A426A114011F00F01026A436A02EAFA
:10583000030202F03005066AD0F82490026A04924E
:10584000D0F824B0026A0692426A0592D0F8248009
:10585000D0F820A003D00162204600F075FA06EAD5
:1058600009072DB1606805622046294600F074FAE8
:10587000049800EA0B0607F4C07508EA0A0040061F
:105880000AD56068C16BC26B40230362090C02F049
:105890003F02204600F05CFADDE9051000EA01074E
:1058A00006F4FC462DB1606805622046294600F0EA
:1058B00047FA07F4F020002E1FBF61680E62D4F88B
:1058C0009C10314318BFC4F89C1000281FBF6168AA
:1058D0000862D4F89C10084318BFC4F89C00D4F8A0
:1058E0009C00002804BF07B0BDE8F08F204607B039
:1058F000BDE8F04FFFF7C0BD2DE9F041044674B399
:1059000020684AF20008C4F20008404504BF00F5D0
:105910008070606094F8980028B9002084F899009D
:10592000204600F025F92068816921F0100181618D
:1059300000F0AEFB054600BF2068816911F0080F3A
:1059400010D000F0A5FB401B0B28F5D3D4F89C0029
:1059500040F00100C4F89C00032084F89800012066
:10596000BDE8F081816941F00101816100F090FBA7
:10597000054600BF2068816911F0010F10D100F0C9
:1059800087FB401B0B28F5D3D4F89C0040F00100A6
:10599000C4F89C00032084F898000120BDE8F08141
:1059A000816941F002018161207C21688A6942F0AD
:1059B0004003012808BF22F040038B61607C21680E
:1059C0008A6922F48043012808BF42F480438B6136
:1059D000A07C21688A6942F48053012808BF22F420
:1059E00080538B6120688169A26821F44071114362
:1059F00081612068816921F0A401816120680169C9
:105A000021F010010161E268EAB1012A05D12068A4
:105A1000816941F00401816115E0206850F8181F88
:105A2000022A0DD041F0800101602068016941F037
:105A300010010161E068032805D1206850F8181FA3
:105A400041F0200101602268D4E90530D4E907154E
:105A50004FF07E4606EB40666FF0FF0000EB012141
:105A600031436E1E0E430021CFF6FF7101EB03435D
:105A70003343D361A268B2F5407F11D104F124060B
:105A80004CCE256B6FF00F0707EB0517256800EB71
:105A90000620013B1843384301EB02410843E8600C
:105AA000206E00281FBF2068616ED0F8C02011430F
:105AB00018BFC0F8C010D4E91701C8420ED0206842
:105AC000D0F8C810A26E44F66443C0F6010353F840
:105AD000222021F007011143C0F8C810206C70B1DA
